{
	"contracts/SimpleToken.sol": {
		"SimpleToken": {
			"abi": [
				{
					"inputs": [],
					"name": "buyTokens",
					"outputs": [],
					"stateMutability": "payable",
					"type": "function"
				},
				{
					"inputs": [],
					"name": "tokenSupply",
					"outputs": [
						{
							"internalType": "uint256",
							"name": "",
							"type": "uint256"
						}
					],
					"stateMutability": "view",
					"type": "function"
				},
				{
					"inputs": [
						{
							"internalType": "address",
							"name": "_from",
							"type": "address"
						},
						{
							"internalType": "address",
							"name": "_to",
							"type": "address"
						},
						{
							"internalType": "uint256",
							"name": "_amount",
							"type": "uint256"
						}
					],
					"name": "transfer",
					"outputs": [],
					"stateMutability": "nonpayable",
					"type": "function"
				}
			],
			"devdoc": {
				"kind": "dev",
				"methods": {},
				"version": 1
			},
			"evm": {
				"assembly": "    /* \"contracts/SimpleToken.sol\":62:478  contract SimpleToken {... */\n  mstore(0x40, 0x80)\n    /* \"contracts/SimpleToken.sol\":166:173  1000000 */\n  0x0f4240\n    /* \"contracts/SimpleToken.sol\":137:173  uint256 public tokenSupply = 1000000 */\n  0x01\n  sstore\n    /* \"contracts/SimpleToken.sol\":62:478  contract SimpleToken {... */\n  callvalue\n  dup1\n  iszero\n  tag_1\n  jumpi\n  0x00\n  dup1\n  revert\ntag_1:\n  pop\n  dataSize(sub_0)\n  dup1\n  dataOffset(sub_0)\n  0x00\n  codecopy\n  0x00\n  return\nstop\n\nsub_0: assembly {\n        /* \"contracts/SimpleToken.sol\":62:478  contract SimpleToken {... */\n      mstore(0x40, 0x80)\n      jumpi(tag_1, lt(calldatasize, 0x04))\n      shr(0xe0, calldataload(0x00))\n      dup1\n      0x7824407f\n      eq\n      tag_2\n      jumpi\n      dup1\n      0xbeabacc8\n      eq\n      tag_3\n      jumpi\n      dup1\n      0xd0febe4c\n      eq\n      tag_4\n      jumpi\n    tag_1:\n      0x00\n      dup1\n      revert\n        /* \"contracts/SimpleToken.sol\":137:173  uint256 public tokenSupply = 1000000 */\n    tag_2:\n      callvalue\n      dup1\n      iszero\n      tag_5\n      jumpi\n      0x00\n      dup1\n      revert\n    tag_5:\n      pop\n      tag_6\n      tag_7\n      jump\t// in\n    tag_6:\n      mload(0x40)\n      tag_8\n      swap2\n      swap1\n      tag_9\n      jump\t// in\n    tag_8:\n      mload(0x40)\n      dup1\n      swap2\n      sub\n      swap1\n      return\n        /* \"contracts/SimpleToken.sol\":244:473  function transfer(address _from, address _to, uint256 _amount) public {... */\n    tag_3:\n      callvalue\n      dup1\n      iszero\n      tag_10\n      jumpi\n      0x00\n      dup1\n      revert\n    tag_10:\n      pop\n      tag_11\n      0x04\n      dup1\n      calldatasize\n      sub\n      dup2\n      add\n      swap1\n      tag_12\n      swap2\n      swap1\n      tag_13\n      jump\t// in\n    tag_12:\n      tag_14\n      jump\t// in\n    tag_11:\n      stop\n        /* \"contracts/SimpleToken.sol\":182:236  function buyTokens() public payable {... */\n    tag_4:\n      tag_15\n      tag_16\n      jump\t// in\n    tag_15:\n      stop\n        /* \"contracts/SimpleToken.sol\":137:173  uint256 public tokenSupply = 1000000 */\n    tag_7:\n      sload(0x01)\n      dup2\n      jump\t// out\n        /* \"contracts/SimpleToken.sol\":244:473  function transfer(address _from, address _to, uint256 _amount) public {... */\n    tag_14:\n        /* \"contracts/SimpleToken.sol\":356:363  _amount */\n      dup1\n        /* \"contracts/SimpleToken.sol\":333:345  tokenBalance */\n      0x00\n        /* \"contracts/SimpleToken.sol\":333:352  tokenBalance[_from] */\n      dup1\n        /* \"contracts/SimpleToken.sol\":346:351  _from */\n      dup6\n        /* \"contracts/SimpleToken.sol\":333:352  tokenBalance[_from] */\n      0xffffffffffffffffffffffffffffffffffffffff\n      and\n      0xffffffffffffffffffffffffffffffffffffffff\n      and\n      dup2\n      mstore\n      0x20\n      add\n      swap1\n      dup2\n      mstore\n      0x20\n      add\n      0x00\n      keccak256\n      sload\n        /* \"contracts/SimpleToken.sol\":333:363  tokenBalance[_from] >= _amount */\n      lt\n      iszero\n        /* \"contracts/SimpleToken.sol\":325:385  require(tokenBalance[_from] >= _amount, \"Not enough tokens\") */\n      tag_18\n      jumpi\n      mload(0x40)\n      0x08c379a000000000000000000000000000000000000000000000000000000000\n      dup2\n      mstore\n      0x04\n      add\n      tag_19\n      swap1\n      tag_20\n      jump\t// in\n    tag_19:\n      mload(0x40)\n      dup1\n      swap2\n      sub\n      swap1\n      revert\n    tag_18:\n        /* \"contracts/SimpleToken.sol\":419:426  _amount */\n      dup1\n        /* \"contracts/SimpleToken.sol\":396:408  tokenBalance */\n      0x00\n        /* \"contracts/SimpleToken.sol\":396:415  tokenBalance[_from] */\n      dup1\n        /* \"contracts/SimpleToken.sol\":409:414  _from */\n      dup6\n        /* \"contracts/SimpleToken.sol\":396:415  tokenBalance[_from] */\n      0xffffffffffffffffffffffffffffffffffffffff\n      and\n      0xffffffffffffffffffffffffffffffffffffffff\n      and\n      dup2\n      mstore\n      0x20\n      add\n      swap1\n      dup2\n      mstore\n      0x20\n      add\n      0x00\n      keccak256\n      0x00\n        /* \"contracts/SimpleToken.sol\":396:426  tokenBalance[_from] -= _amount */\n      dup3\n      dup3\n      sload\n      tag_21\n      swap2\n      swap1\n      tag_22\n      jump\t// in\n    tag_21:\n      swap3\n      pop\n      pop\n      dup2\n      swap1\n      sstore\n      pop\n        /* \"contracts/SimpleToken.sol\":458:465  _amount */\n      dup1\n        /* \"contracts/SimpleToken.sol\":437:449  tokenBalance */\n      0x00\n        /* \"contracts/SimpleToken.sol\":437:454  tokenBalance[_to] */\n      dup1\n        /* \"contracts/SimpleToken.sol\":450:453  _to */\n      dup5\n        /* \"contracts/SimpleToken.sol\":437:454  tokenBalance[_to] */\n      0xffffffffffffffffffffffffffffffffffffffff\n      and\n      0xffffffffffffffffffffffffffffffffffffffff\n      and\n      dup2\n      mstore\n      0x20\n      add\n      swap1\n      dup2\n      mstore\n      0x20\n      add\n      0x00\n      keccak256\n      0x00\n        /* \"contracts/SimpleToken.sol\":437:465  tokenBalance[_to] += _amount */\n      dup3\n      dup3\n      sload\n      tag_23\n      swap2\n      swap1\n      tag_24\n      jump\t// in\n    tag_23:\n      swap3\n      pop\n      pop\n      dup2\n      swap1\n      sstore\n      pop\n        /* \"contracts/SimpleToken.sol\":244:473  function transfer(address _from, address _to, uint256 _amount) public {... */\n      pop\n      pop\n      pop\n      jump\t// out\n        /* \"contracts/SimpleToken.sol\":182:236  function buyTokens() public payable {... */\n    tag_16:\n      jump\t// out\n        /* \"#utility.yul\":7:84   */\n    tag_26:\n        /* \"#utility.yul\":44:51   */\n      0x00\n        /* \"#utility.yul\":73:78   */\n      dup2\n        /* \"#utility.yul\":62:78   */\n      swap1\n      pop\n        /* \"#utility.yul\":7:84   */\n      swap2\n      swap1\n      pop\n      jump\t// out\n        /* \"#utility.yul\":90:208   */\n    tag_27:\n        /* \"#utility.yul\":177:201   */\n      tag_44\n        /* \"#utility.yul\":195:200   */\n      dup2\n        /* \"#utility.yul\":177:201   */\n      tag_26\n      jump\t// in\n    tag_44:\n        /* \"#utility.yul\":172:175   */\n      dup3\n        /* \"#utility.yul\":165:202   */\n      mstore\n        /* \"#utility.yul\":90:208   */\n      pop\n      pop\n      jump\t// out\n        /* \"#utility.yul\":214:436   */\n    tag_9:\n        /* \"#utility.yul\":307:311   */\n      0x00\n        /* \"#utility.yul\":345:347   */\n      0x20\n        /* \"#utility.yul\":334:343   */\n      dup3\n        /* \"#utility.yul\":330:348   */\n      add\n        /* \"#utility.yul\":322:348   */\n      swap1\n      pop\n        /* \"#utility.yul\":358:429   */\n      tag_46\n        /* \"#utility.yul\":426:427   */\n      0x00\n        /* \"#utility.yul\":415:424   */\n      dup4\n        /* \"#utility.yul\":411:428   */\n      add\n        /* \"#utility.yul\":402:408   */\n      dup5\n        /* \"#utility.yul\":358:429   */\n      tag_27\n      jump\t// in\n    tag_46:\n        /* \"#utility.yul\":214:436   */\n      swap3\n      swap2\n      pop\n      pop\n      jump\t// out\n        /* \"#utility.yul\":523:640   */\n    tag_29:\n        /* \"#utility.yul\":632:633   */\n      0x00\n        /* \"#utility.yul\":629:630   */\n      dup1\n        /* \"#utility.yul\":622:634   */\n      revert\n        /* \"#utility.yul\":769:895   */\n    tag_31:\n        /* \"#utility.yul\":806:813   */\n      0x00\n        /* \"#utility.yul\":846:888   */\n      0xffffffffffffffffffffffffffffffffffffffff\n        /* \"#utility.yul\":839:844   */\n      dup3\n        /* \"#utility.yul\":835:889   */\n      and\n        /* \"#utility.yul\":824:889   */\n      swap1\n      pop\n        /* \"#utility.yul\":769:895   */\n      swap2\n      swap1\n      pop\n      jump\t// out\n        /* \"#utility.yul\":901:997   */\n    tag_32:\n        /* \"#utility.yul\":938:945   */\n      0x00\n        /* \"#utility.yul\":967:991   */\n      tag_52\n        /* \"#utility.yul\":985:990   */\n      dup3\n        /* \"#utility.yul\":967:991   */\n      tag_31\n      jump\t// in\n    tag_52:\n        /* \"#utility.yul\":956:991   */\n      swap1\n      pop\n        /* \"#utility.yul\":901:997   */\n      swap2\n      swap1\n      pop\n      jump\t// out\n        /* \"#utility.yul\":1003:1125   */\n    tag_33:\n        /* \"#utility.yul\":1076:1100   */\n      tag_54\n        /* \"#utility.yul\":1094:1099   */\n      dup2\n        /* \"#utility.yul\":1076:1100   */\n      tag_32\n      jump\t// in\n    tag_54:\n        /* \"#utility.yul\":1069:1074   */\n      dup2\n        /* \"#utility.yul\":1066:1101   */\n      eq\n        /* \"#utility.yul\":1056:1119   */\n      tag_55\n      jumpi\n        /* \"#utility.yul\":1115:1116   */\n      0x00\n        /* \"#utility.yul\":1112:1113   */\n      dup1\n        /* \"#utility.yul\":1105:1117   */\n      revert\n        /* \"#utility.yul\":1056:1119   */\n    tag_55:\n        /* \"#utility.yul\":1003:1125   */\n      pop\n      jump\t// out\n        /* \"#utility.yul\":1131:1270   */\n    tag_34:\n        /* \"#utility.yul\":1177:1182   */\n      0x00\n        /* \"#utility.yul\":1215:1221   */\n      dup2\n        /* \"#utility.yul\":1202:1222   */\n      calldataload\n        /* \"#utility.yul\":1193:1222   */\n      swap1\n      pop\n        /* \"#utility.yul\":1231:1264   */\n      tag_57\n        /* \"#utility.yul\":1258:1263   */\n      dup2\n        /* \"#utility.yul\":1231:1264   */\n      tag_33\n      jump\t// in\n    tag_57:\n        /* \"#utility.yul\":1131:1270   */\n      swap3\n      swap2\n      pop\n      pop\n      jump\t// out\n        /* \"#utility.yul\":1276:1398   */\n    tag_35:\n        /* \"#utility.yul\":1349:1373   */\n      tag_59\n        /* \"#utility.yul\":1367:1372   */\n      dup2\n        /* \"#utility.yul\":1349:1373   */\n      tag_26\n      jump\t// in\n    tag_59:\n        /* \"#utility.yul\":1342:1347   */\n      dup2\n        /* \"#utility.yul\":1339:1374   */\n      eq\n        /* \"#utility.yul\":1329:1392   */\n      tag_60\n      jumpi\n        /* \"#utility.yul\":1388:1389   */\n      0x00\n        /* \"#utility.yul\":1385:1386   */\n      dup1\n        /* \"#utility.yul\":1378:1390   */\n      revert\n        /* \"#utility.yul\":1329:1392   */\n    tag_60:\n        /* \"#utility.yul\":1276:1398   */\n      pop\n      jump\t// out\n        /* \"#utility.yul\":1404:1543   */\n    tag_36:\n        /* \"#utility.yul\":1450:1455   */\n      0x00\n        /* \"#utility.yul\":1488:1494   */\n      dup2\n        /* \"#utility.yul\":1475:1495   */\n      calldataload\n        /* \"#utility.yul\":1466:1495   */\n      swap1\n      pop\n        /* \"#utility.yul\":1504:1537   */\n      tag_62\n        /* \"#utility.yul\":1531:1536   */\n      dup2\n        /* \"#utility.yul\":1504:1537   */\n      tag_35\n      jump\t// in\n    tag_62:\n        /* \"#utility.yul\":1404:1543   */\n      swap3\n      swap2\n      pop\n      pop\n      jump\t// out\n        /* \"#utility.yul\":1549:2168   */\n    tag_13:\n        /* \"#utility.yul\":1626:1632   */\n      0x00\n        /* \"#utility.yul\":1634:1640   */\n      dup1\n        /* \"#utility.yul\":1642:1648   */\n      0x00\n        /* \"#utility.yul\":1691:1693   */\n      0x60\n        /* \"#utility.yul\":1679:1688   */\n      dup5\n        /* \"#utility.yul\":1670:1677   */\n      dup7\n        /* \"#utility.yul\":1666:1689   */\n      sub\n        /* \"#utility.yul\":1662:1694   */\n      slt\n        /* \"#utility.yul\":1659:1778   */\n      iszero\n      tag_64\n      jumpi\n        /* \"#utility.yul\":1697:1776   */\n      tag_65\n      tag_29\n      jump\t// in\n    tag_65:\n        /* \"#utility.yul\":1659:1778   */\n    tag_64:\n        /* \"#utility.yul\":1817:1818   */\n      0x00\n        /* \"#utility.yul\":1842:1895   */\n      tag_66\n        /* \"#utility.yul\":1887:1894   */\n      dup7\n        /* \"#utility.yul\":1878:1884   */\n      dup3\n        /* \"#utility.yul\":1867:1876   */\n      dup8\n        /* \"#utility.yul\":1863:1885   */\n      add\n        /* \"#utility.yul\":1842:1895   */\n      tag_34\n      jump\t// in\n    tag_66:\n        /* \"#utility.yul\":1832:1895   */\n      swap4\n      pop\n        /* \"#utility.yul\":1788:1905   */\n      pop\n        /* \"#utility.yul\":1944:1946   */\n      0x20\n        /* \"#utility.yul\":1970:2023   */\n      tag_67\n        /* \"#utility.yul\":2015:2022   */\n      dup7\n        /* \"#utility.yul\":2006:2012   */\n      dup3\n        /* \"#utility.yul\":1995:2004   */\n      dup8\n        /* \"#utility.yul\":1991:2013   */\n      add\n        /* \"#utility.yul\":1970:2023   */\n      tag_34\n      jump\t// in\n    tag_67:\n        /* \"#utility.yul\":1960:2023   */\n      swap3\n      pop\n        /* \"#utility.yul\":1915:2033   */\n      pop\n        /* \"#utility.yul\":2072:2074   */\n      0x40\n        /* \"#utility.yul\":2098:2151   */\n      tag_68\n        /* \"#utility.yul\":2143:2150   */\n      dup7\n        /* \"#utility.yul\":2134:2140   */\n      dup3\n        /* \"#utility.yul\":2123:2132   */\n      dup8\n        /* \"#utility.yul\":2119:2141   */\n      add\n        /* \"#utility.yul\":2098:2151   */\n      tag_36\n      jump\t// in\n    tag_68:\n        /* \"#utility.yul\":2088:2151   */\n      swap2\n      pop\n        /* \"#utility.yul\":2043:2161   */\n      pop\n        /* \"#utility.yul\":1549:2168   */\n      swap3\n      pop\n      swap3\n      pop\n      swap3\n      jump\t// out\n        /* \"#utility.yul\":2174:2343   */\n    tag_37:\n        /* \"#utility.yul\":2258:2269   */\n      0x00\n        /* \"#utility.yul\":2292:2298   */\n      dup3\n        /* \"#utility.yul\":2287:2290   */\n      dup3\n        /* \"#utility.yul\":2280:2299   */\n      mstore\n        /* \"#utility.yul\":2332:2336   */\n      0x20\n        /* \"#utility.yul\":2327:2330   */\n      dup3\n        /* \"#utility.yul\":2323:2337   */\n      add\n        /* \"#utility.yul\":2308:2337   */\n      swap1\n      pop\n        /* \"#utility.yul\":2174:2343   */\n      swap3\n      swap2\n      pop\n      pop\n      jump\t// out\n        /* \"#utility.yul\":2349:2516   */\n    tag_38:\n        /* \"#utility.yul\":2489:2508   */\n      0x4e6f7420656e6f75676820746f6b656e73000000000000000000000000000000\n        /* \"#utility.yul\":2485:2486   */\n      0x00\n        /* \"#utility.yul\":2477:2483   */\n      dup3\n        /* \"#utility.yul\":2473:2487   */\n      add\n        /* \"#utility.yul\":2466:2509   */\n      mstore\n        /* \"#utility.yul\":2349:2516   */\n      pop\n      jump\t// out\n        /* \"#utility.yul\":2522:2888   */\n    tag_39:\n        /* \"#utility.yul\":2664:2667   */\n      0x00\n        /* \"#utility.yul\":2685:2752   */\n      tag_72\n        /* \"#utility.yul\":2749:2751   */\n      0x11\n        /* \"#utility.yul\":2744:2747   */\n      dup4\n        /* \"#utility.yul\":2685:2752   */\n      tag_37\n      jump\t// in\n    tag_72:\n        /* \"#utility.yul\":2678:2752   */\n      swap2\n      pop\n        /* \"#utility.yul\":2761:2854   */\n      tag_73\n        /* \"#utility.yul\":2850:2853   */\n      dup3\n        /* \"#utility.yul\":2761:2854   */\n      tag_38\n      jump\t// in\n    tag_73:\n        /* \"#utility.yul\":2879:2881   */\n      0x20\n        /* \"#utility.yul\":2874:2877   */\n      dup3\n        /* \"#utility.yul\":2870:2882   */\n      add\n        /* \"#utility.yul\":2863:2882   */\n      swap1\n      pop\n        /* \"#utility.yul\":2522:2888   */\n      swap2\n      swap1\n      pop\n      jump\t// out\n        /* \"#utility.yul\":2894:3313   */\n    tag_20:\n        /* \"#utility.yul\":3060:3064   */\n      0x00\n        /* \"#utility.yul\":3098:3100   */\n      0x20\n        /* \"#utility.yul\":3087:3096   */\n      dup3\n        /* \"#utility.yul\":3083:3101   */\n      add\n        /* \"#utility.yul\":3075:3101   */\n      swap1\n      pop\n        /* \"#utility.yul\":3147:3156   */\n      dup2\n        /* \"#utility.yul\":3141:3145   */\n      dup2\n        /* \"#utility.yul\":3137:3157   */\n      sub\n        /* \"#utility.yul\":3133:3134   */\n      0x00\n        /* \"#utility.yul\":3122:3131   */\n      dup4\n        /* \"#utility.yul\":3118:3135   */\n      add\n        /* \"#utility.yul\":3111:3158   */\n      mstore\n        /* \"#utility.yul\":3175:3306   */\n      tag_75\n        /* \"#utility.yul\":3301:3305   */\n      dup2\n        /* \"#utility.yul\":3175:3306   */\n      tag_39\n      jump\t// in\n    tag_75:\n        /* \"#utility.yul\":3167:3306   */\n      swap1\n      pop\n        /* \"#utility.yul\":2894:3313   */\n      swap2\n      swap1\n      pop\n      jump\t// out\n        /* \"#utility.yul\":3319:3499   */\n    tag_40:\n        /* \"#utility.yul\":3367:3444   */\n      0x4e487b7100000000000000000000000000000000000000000000000000000000\n        /* \"#utility.yul\":3364:3365   */\n      0x00\n        /* \"#utility.yul\":3357:3445   */\n      mstore\n        /* \"#utility.yul\":3464:3468   */\n      0x11\n        /* \"#utility.yul\":3461:3462   */\n      0x04\n        /* \"#utility.yul\":3454:3469   */\n      mstore\n        /* \"#utility.yul\":3488:3492   */\n      0x24\n        /* \"#utility.yul\":3485:3486   */\n      0x00\n        /* \"#utility.yul\":3478:3493   */\n      revert\n        /* \"#utility.yul\":3505:3699   */\n    tag_22:\n        /* \"#utility.yul\":3545:3549   */\n      0x00\n        /* \"#utility.yul\":3565:3585   */\n      tag_78\n        /* \"#utility.yul\":3583:3584   */\n      dup3\n        /* \"#utility.yul\":3565:3585   */\n      tag_26\n      jump\t// in\n    tag_78:\n        /* \"#utility.yul\":3560:3585   */\n      swap2\n      pop\n        /* \"#utility.yul\":3599:3619   */\n      tag_79\n        /* \"#utility.yul\":3617:3618   */\n      dup4\n        /* \"#utility.yul\":3599:3619   */\n      tag_26\n      jump\t// in\n    tag_79:\n        /* \"#utility.yul\":3594:3619   */\n      swap3\n      pop\n        /* \"#utility.yul\":3643:3644   */\n      dup3\n        /* \"#utility.yul\":3640:3641   */\n      dup3\n        /* \"#utility.yul\":3636:3645   */\n      sub\n        /* \"#utility.yul\":3628:3645   */\n      swap1\n      pop\n        /* \"#utility.yul\":3667:3668   */\n      dup2\n        /* \"#utility.yul\":3661:3665   */\n      dup2\n        /* \"#utility.yul\":3658:3669   */\n      gt\n        /* \"#utility.yul\":3655:3692   */\n      iszero\n      tag_80\n      jumpi\n        /* \"#utility.yul\":3672:3690   */\n      tag_81\n      tag_40\n      jump\t// in\n    tag_81:\n        /* \"#utility.yul\":3655:3692   */\n    tag_80:\n        /* \"#utility.yul\":3505:3699   */\n      swap3\n      swap2\n      pop\n      pop\n      jump\t// out\n        /* \"#utility.yul\":3705:3896   */\n    tag_24:\n        /* \"#utility.yul\":3745:3748   */\n      0x00\n        /* \"#utility.yul\":3764:3784   */\n      tag_83\n        /* \"#utility.yul\":3782:3783   */\n      dup3\n        /* \"#utility.yul\":3764:3784   */\n      tag_26\n      jump\t// in\n    tag_83:\n        /* \"#utility.yul\":3759:3784   */\n      swap2\n      pop\n        /* \"#utility.yul\":3798:3818   */\n      tag_84\n        /* \"#utility.yul\":3816:3817   */\n      dup4\n        /* \"#utility.yul\":3798:3818   */\n      tag_26\n      jump\t// in\n    tag_84:\n        /* \"#utility.yul\":3793:3818   */\n      swap3\n      pop\n        /* \"#utility.yul\":3841:3842   */\n      dup3\n        /* \"#utility.yul\":3838:3839   */\n      dup3\n        /* \"#utility.yul\":3834:3843   */\n      add\n        /* \"#utility.yul\":3827:3843   */\n      swap1\n      pop\n        /* \"#utility.yul\":3862:3865   */\n      dup1\n        /* \"#utility.yul\":3859:3860   */\n      dup3\n        /* \"#utility.yul\":3856:3866   */\n      gt\n        /* \"#utility.yul\":3853:3889   */\n      iszero\n      tag_85\n      jumpi\n        /* \"#utility.yul\":3869:3887   */\n      tag_86\n      tag_40\n      jump\t// in\n    tag_86:\n        /* \"#utility.yul\":3853:3889   */\n    tag_85:\n        /* \"#utility.yul\":3705:3896   */\n      swap3\n      swap2\n      pop\n      pop\n      jump\t// out\n\n    auxdata: 0xa2646970667358221220ff7a48be63da694e9cb1fcbfb319739a42f071aeb2f13257482855d7c28a73ba64736f6c63430008150033\n}\n",
				"bytecode": {
					"linkReferences": {},
					"object": "6080604052620f4240600155348015610016575f80fd5b5061040d806100245f395ff3fe608060405260043610610033575f3560e01c80637824407f14610037578063beabacc814610061578063d0febe4c14610089575b5f80fd5b348015610042575f80fd5b5061004b610093565b60405161005891906101db565b60405180910390f35b34801561006c575f80fd5b506100876004803603810190610082919061027c565b610099565b005b6100916101c1565b005b60015481565b805f808573ffffffffffffffffffffffffffffffffffffffff1673ffffffffffffffffffffffffffffffffffffffff1681526020019081526020015f20541015610118576040517f08c379a000000000000000000000000000000000000000000000000000000000815260040161010f90610326565b60405180910390fd5b805f808573ffffffffffffffffffffffffffffffffffffffff1673ffffffffffffffffffffffffffffffffffffffff1681526020019081526020015f205f8282546101639190610371565b92505081905550805f808473ffffffffffffffffffffffffffffffffffffffff1673ffffffffffffffffffffffffffffffffffffffff1681526020019081526020015f205f8282546101b591906103a4565b92505081905550505050565b565b5f819050919050565b6101d5816101c3565b82525050565b5f6020820190506101ee5f8301846101cc565b92915050565b5f80fd5b5f73ffffffffffffffffffffffffffffffffffffffff82169050919050565b5f610221826101f8565b9050919050565b61023181610217565b811461023b575f80fd5b50565b5f8135905061024c81610228565b92915050565b61025b816101c3565b8114610265575f80fd5b50565b5f8135905061027681610252565b92915050565b5f805f60608486031215610293576102926101f4565b5b5f6102a08682870161023e565b93505060206102b18682870161023e565b92505060406102c286828701610268565b9150509250925092565b5f82825260208201905092915050565b7f4e6f7420656e6f75676820746f6b656e730000000000000000000000000000005f82015250565b5f6103106011836102cc565b915061031b826102dc565b602082019050919050565b5f6020820190508181035f83015261033d81610304565b9050919050565b7f4e487b71000000000000000000000000000000000000000000000000000000005f52601160045260245ffd5b5f61037b826101c3565b9150610386836101c3565b925082820390508181111561039e5761039d610344565b5b92915050565b5f6103ae826101c3565b91506103b9836101c3565b92508282019050808211156103d1576103d0610344565b5b9291505056fea2646970667358221220ff7a48be63da694e9cb1fcbfb319739a42f071aeb2f13257482855d7c28a73ba64736f6c63430008150033",
					"opcodes": "PUSH1 0x80 PUSH1 0x40 MSTORE PUSH3 0xF4240 PUSH1 0x1 SSTORE CALLVALUE DUP1 ISZERO PUSH2 0x16 JUMPI PUSH0 DUP1 REVERT JUMPDEST POP PUSH2 0x40D DUP1 PUSH2 0x24 PUSH0 CODECOPY PUSH0 RETURN INVALID PUSH1 0x80 PUSH1 0x40 MSTORE PUSH1 0x4 CALLDATASIZE LT PUSH2 0x33 JUMPI PUSH0 CALLDATALOAD PUSH1 0xE0 SHR DUP1 PUSH4 0x7824407F EQ PUSH2 0x37 JUMPI DUP1 PUSH4 0xBEABACC8 EQ PUSH2 0x61 JUMPI DUP1 PUSH4 0xD0FEBE4C EQ PUSH2 0x89 JUMPI JUMPDEST PUSH0 DUP1 REVERT JUMPDEST CALLVALUE DUP1 ISZERO PUSH2 0x42 JUMPI PUSH0 DUP1 REVERT JUMPDEST POP PUSH2 0x4B PUSH2 0x93 JUMP JUMPDEST PUSH1 0x40 MLOAD PUSH2 0x58 SWAP2 SWAP1 PUSH2 0x1DB JUMP JUMPDEST PUSH1 0x40 MLOAD DUP1 SWAP2 SUB SWAP1 RETURN JUMPDEST CALLVALUE DUP1 ISZERO PUSH2 0x6C JUMPI PUSH0 DUP1 REVERT JUMPDEST POP PUSH2 0x87 PUSH1 0x4 DUP1 CALLDATASIZE SUB DUP2 ADD SWAP1 PUSH2 0x82 SWAP2 SWAP1 PUSH2 0x27C JUMP JUMPDEST PUSH2 0x99 JUMP JUMPDEST STOP JUMPDEST PUSH2 0x91 PUSH2 0x1C1 JUMP JUMPDEST STOP JUMPDEST PUSH1 0x1 SLOAD DUP2 JUMP JUMPDEST DUP1 PUSH0 DUP1 DUP6 PUSH20 0xFFFFFFFFFFFFFFFFFFFFFFFFFFFFFFFFFFFFFFFF AND PUSH20 0xFFFFFFFFFFFFFFFFFFFFFFFFFFFFFFFFFFFFFFFF AND DUP2 MSTORE PUSH1 0x20 ADD SWAP1 DUP2 MSTORE PUSH1 0x20 ADD PUSH0 KECCAK256 SLOAD LT ISZERO PUSH2 0x118 JUMPI PUSH1 0x40 MLOAD PUSH32 0x8C379A000000000000000000000000000000000000000000000000000000000 DUP2 MSTORE PUSH1 0x4 ADD PUSH2 0x10F SWAP1 PUSH2 0x326 JUMP JUMPDEST PUSH1 0x40 MLOAD DUP1 SWAP2 SUB SWAP1 REVERT JUMPDEST DUP1 PUSH0 DUP1 DUP6 PUSH20 0xFFFFFFFFFFFFFFFFFFFFFFFFFFFFFFFFFFFFFFFF AND PUSH20 0xFFFFFFFFFFFFFFFFFFFFFFFFFFFFFFFFFFFFFFFF AND DUP2 MSTORE PUSH1 0x20 ADD SWAP1 DUP2 MSTORE PUSH1 0x20 ADD PUSH0 KECCAK256 PUSH0 DUP3 DUP3 SLOAD PUSH2 0x163 SWAP2 SWAP1 PUSH2 0x371 JUMP JUMPDEST SWAP3 POP POP DUP2 SWAP1 SSTORE POP DUP1 PUSH0 DUP1 DUP5 PUSH20 0xFFFFFFFFFFFFFFFFFFFFFFFFFFFFFFFFFFFFFFFF AND PUSH20 0xFFFFFFFFFFFFFFFFFFFFFFFFFFFFFFFFFFFFFFFF AND DUP2 MSTORE PUSH1 0x20 ADD SWAP1 DUP2 MSTORE PUSH1 0x20 ADD PUSH0 KECCAK256 PUSH0 DUP3 DUP3 SLOAD PUSH2 0x1B5 SWAP2 SWAP1 PUSH2 0x3A4 JUMP JUMPDEST SWAP3 POP POP DUP2 SWAP1 SSTORE POP POP POP POP JUMP JUMPDEST JUMP JUMPDEST PUSH0 DUP2 SWAP1 POP SWAP2 SWAP1 POP JUMP JUMPDEST PUSH2 0x1D5 DUP2 PUSH2 0x1C3 JUMP JUMPDEST DUP3 MSTORE POP POP JUMP JUMPDEST PUSH0 PUSH1 0x20 DUP3 ADD SWAP1 POP PUSH2 0x1EE PUSH0 DUP4 ADD DUP5 PUSH2 0x1CC JUMP JUMPDEST SWAP3 SWAP2 POP POP JUMP JUMPDEST PUSH0 DUP1 REVERT JUMPDEST PUSH0 PUSH20 0xFFFFFFFFFFFFFFFFFFFFFFFFFFFFFFFFFFFFFFFF DUP3 AND SWAP1 POP SWAP2 SWAP1 POP JUMP JUMPDEST PUSH0 PUSH2 0x221 DUP3 PUSH2 0x1F8 JUMP JUMPDEST SWAP1 POP SWAP2 SWAP1 POP JUMP JUMPDEST PUSH2 0x231 DUP2 PUSH2 0x217 JUMP JUMPDEST DUP2 EQ PUSH2 0x23B JUMPI PUSH0 DUP1 REVERT JUMPDEST POP JUMP JUMPDEST PUSH0 DUP2 CALLDATALOAD SWAP1 POP PUSH2 0x24C DUP2 PUSH2 0x228 JUMP JUMPDEST SWAP3 SWAP2 POP POP JUMP JUMPDEST PUSH2 0x25B DUP2 PUSH2 0x1C3 JUMP JUMPDEST DUP2 EQ PUSH2 0x265 JUMPI PUSH0 DUP1 REVERT JUMPDEST POP JUMP JUMPDEST PUSH0 DUP2 CALLDATALOAD SWAP1 POP PUSH2 0x276 DUP2 PUSH2 0x252 JUMP JUMPDEST SWAP3 SWAP2 POP POP JUMP JUMPDEST PUSH0 DUP1 PUSH0 PUSH1 0x60 DUP5 DUP7 SUB SLT ISZERO PUSH2 0x293 JUMPI PUSH2 0x292 PUSH2 0x1F4 JUMP JUMPDEST JUMPDEST PUSH0 PUSH2 0x2A0 DUP7 DUP3 DUP8 ADD PUSH2 0x23E JUMP JUMPDEST SWAP4 POP POP PUSH1 0x20 PUSH2 0x2B1 DUP7 DUP3 DUP8 ADD PUSH2 0x23E JUMP JUMPDEST SWAP3 POP POP PUSH1 0x40 PUSH2 0x2C2 DUP7 DUP3 DUP8 ADD PUSH2 0x268 JUMP JUMPDEST SWAP2 POP POP SWAP3 POP SWAP3 POP SWAP3 JUMP JUMPDEST PUSH0 DUP3 DUP3 MSTORE PUSH1 0x20 DUP3 ADD SWAP1 POP SWAP3 SWAP2 POP POP JUMP JUMPDEST PUSH32 0x4E6F7420656E6F75676820746F6B656E73000000000000000000000000000000 PUSH0 DUP3 ADD MSTORE POP JUMP JUMPDEST PUSH0 PUSH2 0x310 PUSH1 0x11 DUP4 PUSH2 0x2CC JUMP JUMPDEST SWAP2 POP PUSH2 0x31B DUP3 PUSH2 0x2DC JUMP JUMPDEST PUSH1 0x20 DUP3 ADD SWAP1 POP SWAP2 SWAP1 POP JUMP JUMPDEST PUSH0 PUSH1 0x20 DUP3 ADD SWAP1 POP DUP2 DUP2 SUB PUSH0 DUP4 ADD MSTORE PUSH2 0x33D DUP2 PUSH2 0x304 JUMP JUMPDEST SWAP1 POP SWAP2 SWAP1 POP JUMP JUMPDEST PUSH32 0x4E487B7100000000000000000000000000000000000000000000000000000000 PUSH0 MSTORE PUSH1 0x11 PUSH1 0x4 MSTORE PUSH1 0x24 PUSH0 REVERT JUMPDEST PUSH0 PUSH2 0x37B DUP3 PUSH2 0x1C3 JUMP JUMPDEST SWAP2 POP PUSH2 0x386 DUP4 PUSH2 0x1C3 JUMP JUMPDEST SWAP3 POP DUP3 DUP3 SUB SWAP1 POP DUP2 DUP2 GT ISZERO PUSH2 0x39E JUMPI PUSH2 0x39D PUSH2 0x344 JUMP JUMPDEST JUMPDEST SWAP3 SWAP2 POP POP JUMP JUMPDEST PUSH0 PUSH2 0x3AE DUP3 PUSH2 0x1C3 JUMP JUMPDEST SWAP2 POP PUSH2 0x3B9 DUP4 PUSH2 0x1C3 JUMP JUMPDEST SWAP3 POP DUP3 DUP3 ADD SWAP1 POP DUP1 DUP3 GT ISZERO PUSH2 0x3D1 JUMPI PUSH2 0x3D0 PUSH2 0x344 JUMP JUMPDEST JUMPDEST SWAP3 SWAP2 POP POP JUMP INVALID LOG2 PUSH5 0x6970667358 0x22 SLT KECCAK256 SELFDESTRUCT PUSH27 0x48BE63DA694E9CB1FCBFB319739A42F071AEB2F13257482855D7C2 DUP11 PUSH20 0xBA64736F6C634300081500330000000000000000 "
				},
				"gasEstimates": {
					"creation": {
						"codeDepositCost": "207400",
						"executionCost": "22355",
						"totalCost": "229755"
					},
					"external": {
						"buyTokens()": "141",
						"tokenSupply()": "2403",
						"transfer(address,address,uint256)": "infinite"
					}
				},
				"methodIdentifiers": {
					"buyTokens()": "d0febe4c",
					"tokenSupply()": "7824407f",
					"transfer(address,address,uint256)": "beabacc8"
				}
			},
			"storageLayout": {
				"storage": [
					{
						"astId": 5,
						"contract": "contracts/SimpleToken.sol:SimpleToken",
						"label": "tokenBalance",
						"offset": 0,
						"slot": "0",
						"type": "t_mapping(t_address,t_uint256)"
					},
					{
						"astId": 8,
						"contract": "contracts/SimpleToken.sol:SimpleToken",
						"label": "tokenSupply",
						"offset": 0,
						"slot": "1",
						"type": "t_uint256"
					}
				],
				"types": {
					"t_address": {
						"encoding": "inplace",
						"label": "address",
						"numberOfBytes": "20"
					},
					"t_mapping(t_address,t_uint256)": {
						"encoding": "mapping",
						"key": "t_address",
						"label": "mapping(address => uint256)",
						"numberOfBytes": "32",
						"value": "t_uint256"
					},
					"t_uint256": {
						"encoding": "inplace",
						"label": "uint256",
						"numberOfBytes": "32"
					}
				}
			},
			"userdoc": {
				"kind": "user",
				"methods": {},
				"version": 1
			}
		}
	}
}