{
	"contracts/PriceOracle.sol": {
		"PriceOracle": {
			"abi": [
				{
					"inputs": [
						{
							"internalType": "address",
							"name": "_contract",
							"type": "address"
						}
					],
					"name": "getAssetPrice",
					"outputs": [
						{
							"internalType": "uint256",
							"name": "",
							"type": "uint256"
						}
					],
					"stateMutability": "view",
					"type": "function"
				}
			],
			"devdoc": {
				"kind": "dev",
				"methods": {},
				"version": 1
			},
			"evm": {
				"assembly": "    /* \"contracts/PriceOracle.sol\":142:530  contract PriceOracle {... */\n  mstore(0x40, 0x80)\n  callvalue\n  dup1\n  iszero\n  tag_1\n  jumpi\n  0x00\n  dup1\n  revert\ntag_1:\n  pop\n  dataSize(sub_0)\n  dup1\n  dataOffset(sub_0)\n  0x00\n  codecopy\n  0x00\n  return\nstop\n\nsub_0: assembly {\n        /* \"contracts/PriceOracle.sol\":142:530  contract PriceOracle {... */\n      mstore(0x40, 0x80)\n      callvalue\n      dup1\n      iszero\n      tag_1\n      jumpi\n      0x00\n      dup1\n      revert\n    tag_1:\n      pop\n      jumpi(tag_2, lt(calldatasize, 0x04))\n      shr(0xe0, calldataload(0x00))\n      dup1\n      0xb3596f07\n      eq\n      tag_3\n      jumpi\n    tag_2:\n      0x00\n      dup1\n      revert\n        /* \"contracts/PriceOracle.sol\":172:525  function getAssetPrice(address _contract) public view returns(uint256) {... */\n    tag_3:\n      tag_4\n      0x04\n      dup1\n      calldatasize\n      sub\n      dup2\n      add\n      swap1\n      tag_5\n      swap2\n      swap1\n      tag_6\n      jump\t// in\n    tag_5:\n      tag_7\n      jump\t// in\n    tag_4:\n      mload(0x40)\n      tag_8\n      swap2\n      swap1\n      tag_9\n      jump\t// in\n    tag_8:\n      mload(0x40)\n      dup1\n      swap2\n      sub\n      swap1\n      return\n    tag_7:\n        /* \"contracts/PriceOracle.sol\":234:241  uint256 */\n      0x00\n        /* \"contracts/PriceOracle.sol\":254:281  AggregatorV3Interface asset */\n      dup1\n        /* \"contracts/PriceOracle.sol\":306:315  _contract */\n      dup3\n        /* \"contracts/PriceOracle.sol\":254:316  AggregatorV3Interface asset = AggregatorV3Interface(_contract) */\n      swap1\n      pop\n        /* \"contracts/PriceOracle.sol\":329:338  int price */\n      0x00\n        /* \"contracts/PriceOracle.sol\":345:350  asset */\n      dup2\n        /* \"contracts/PriceOracle.sol\":345:366  asset.latestRoundData */\n      0xffffffffffffffffffffffffffffffffffffffff\n      and\n      0xfeaf968c\n        /* \"contracts/PriceOracle.sol\":345:368  asset.latestRoundData() */\n      mload(0x40)\n      dup2\n      0xffffffff\n      and\n      0xe0\n      shl\n      dup2\n      mstore\n      0x04\n      add\n      0xa0\n      mload(0x40)\n      dup1\n      dup4\n      sub\n      dup2\n      dup7\n      gas\n      staticcall\n      iszero\n      dup1\n      iszero\n      tag_12\n      jumpi\n      returndatasize\n      0x00\n      dup1\n      returndatacopy\n      revert(0x00, returndatasize)\n    tag_12:\n      pop\n      pop\n      pop\n      pop\n      mload(0x40)\n      returndatasize\n      not(0x1f)\n      0x1f\n      dup3\n      add\n      and\n      dup3\n      add\n      dup1\n      0x40\n      mstore\n      pop\n      dup2\n      add\n      swap1\n      tag_13\n      swap2\n      swap1\n      tag_14\n      jump\t// in\n    tag_13:\n        /* \"contracts/PriceOracle.sol\":327:368  (,int price,,,) = asset.latestRoundData() */\n      pop\n      pop\n      pop\n      swap2\n      pop\n      pop\n        /* \"contracts/PriceOracle.sol\":379:393  uint8 decimals */\n      0x00\n        /* \"contracts/PriceOracle.sol\":396:401  asset */\n      dup3\n        /* \"contracts/PriceOracle.sol\":396:410  asset.decimals */\n      0xffffffffffffffffffffffffffffffffffffffff\n      and\n      0x313ce567\n        /* \"contracts/PriceOracle.sol\":396:412  asset.decimals() */\n      mload(0x40)\n      dup2\n      0xffffffff\n      and\n      0xe0\n      shl\n      dup2\n      mstore\n      0x04\n      add\n      0x20\n      mload(0x40)\n      dup1\n      dup4\n      sub\n      dup2\n      dup7\n      gas\n      staticcall\n      iszero\n      dup1\n      iszero\n      tag_16\n      jumpi\n      returndatasize\n      0x00\n      dup1\n      returndatacopy\n      revert(0x00, returndatasize)\n    tag_16:\n      pop\n      pop\n      pop\n      pop\n      mload(0x40)\n      returndatasize\n      not(0x1f)\n      0x1f\n      dup3\n      add\n      and\n      dup3\n      add\n      dup1\n      0x40\n      mstore\n      pop\n      dup2\n      add\n      swap1\n      tag_17\n      swap2\n      swap1\n      tag_18\n      jump\t// in\n    tag_17:\n        /* \"contracts/PriceOracle.sol\":379:412  uint8 decimals = asset.decimals() */\n      swap1\n      pop\n        /* \"contracts/PriceOracle.sol\":423:448  uint256 priceWithDecimals */\n      0x00\n        /* \"contracts/PriceOracle.sol\":473:481  decimals */\n      dup2\n        /* \"contracts/PriceOracle.sol\":468:470  10 */\n      0x0a\n        /* \"contracts/PriceOracle.sol\":468:482  10**(decimals) */\n      tag_19\n      swap2\n      swap1\n      tag_20\n      jump\t// in\n    tag_19:\n        /* \"contracts/PriceOracle.sol\":459:464  price */\n      dup4\n        /* \"contracts/PriceOracle.sol\":451:482  uint256(price) / 10**(decimals) */\n      tag_21\n      swap2\n      swap1\n      tag_22\n      jump\t// in\n    tag_21:\n        /* \"contracts/PriceOracle.sol\":423:482  uint256 priceWithDecimals = uint256(price) / 10**(decimals) */\n      swap1\n      pop\n        /* \"contracts/PriceOracle.sol\":500:517  priceWithDecimals */\n      dup1\n        /* \"contracts/PriceOracle.sol\":493:517  return priceWithDecimals */\n      swap5\n      pop\n      pop\n      pop\n      pop\n      pop\n        /* \"contracts/PriceOracle.sol\":172:525  function getAssetPrice(address _contract) public view returns(uint256) {... */\n      swap2\n      swap1\n      pop\n      jump\t// out\n        /* \"#utility.yul\":88:205   */\n    tag_24:\n        /* \"#utility.yul\":197:198   */\n      0x00\n        /* \"#utility.yul\":194:195   */\n      dup1\n        /* \"#utility.yul\":187:199   */\n      revert\n        /* \"#utility.yul\":334:460   */\n    tag_26:\n        /* \"#utility.yul\":371:378   */\n      0x00\n        /* \"#utility.yul\":411:453   */\n      0xffffffffffffffffffffffffffffffffffffffff\n        /* \"#utility.yul\":404:409   */\n      dup3\n        /* \"#utility.yul\":400:454   */\n      and\n        /* \"#utility.yul\":389:454   */\n      swap1\n      pop\n        /* \"#utility.yul\":334:460   */\n      swap2\n      swap1\n      pop\n      jump\t// out\n        /* \"#utility.yul\":466:562   */\n    tag_27:\n        /* \"#utility.yul\":503:510   */\n      0x00\n        /* \"#utility.yul\":532:556   */\n      tag_54\n        /* \"#utility.yul\":550:555   */\n      dup3\n        /* \"#utility.yul\":532:556   */\n      tag_26\n      jump\t// in\n    tag_54:\n        /* \"#utility.yul\":521:556   */\n      swap1\n      pop\n        /* \"#utility.yul\":466:562   */\n      swap2\n      swap1\n      pop\n      jump\t// out\n        /* \"#utility.yul\":568:690   */\n    tag_28:\n        /* \"#utility.yul\":641:665   */\n      tag_56\n        /* \"#utility.yul\":659:664   */\n      dup2\n        /* \"#utility.yul\":641:665   */\n      tag_27\n      jump\t// in\n    tag_56:\n        /* \"#utility.yul\":634:639   */\n      dup2\n        /* \"#utility.yul\":631:666   */\n      eq\n        /* \"#utility.yul\":621:684   */\n      tag_57\n      jumpi\n        /* \"#utility.yul\":680:681   */\n      0x00\n        /* \"#utility.yul\":677:678   */\n      dup1\n        /* \"#utility.yul\":670:682   */\n      revert\n        /* \"#utility.yul\":621:684   */\n    tag_57:\n        /* \"#utility.yul\":568:690   */\n      pop\n      jump\t// out\n        /* \"#utility.yul\":696:835   */\n    tag_29:\n        /* \"#utility.yul\":742:747   */\n      0x00\n        /* \"#utility.yul\":780:786   */\n      dup2\n        /* \"#utility.yul\":767:787   */\n      calldataload\n        /* \"#utility.yul\":758:787   */\n      swap1\n      pop\n        /* \"#utility.yul\":796:829   */\n      tag_59\n        /* \"#utility.yul\":823:828   */\n      dup2\n        /* \"#utility.yul\":796:829   */\n      tag_28\n      jump\t// in\n    tag_59:\n        /* \"#utility.yul\":696:835   */\n      swap3\n      swap2\n      pop\n      pop\n      jump\t// out\n        /* \"#utility.yul\":841:1170   */\n    tag_6:\n        /* \"#utility.yul\":900:906   */\n      0x00\n        /* \"#utility.yul\":949:951   */\n      0x20\n        /* \"#utility.yul\":937:946   */\n      dup3\n        /* \"#utility.yul\":928:935   */\n      dup5\n        /* \"#utility.yul\":924:947   */\n      sub\n        /* \"#utility.yul\":920:952   */\n      slt\n        /* \"#utility.yul\":917:1036   */\n      iszero\n      tag_61\n      jumpi\n        /* \"#utility.yul\":955:1034   */\n      tag_62\n      tag_24\n      jump\t// in\n    tag_62:\n        /* \"#utility.yul\":917:1036   */\n    tag_61:\n        /* \"#utility.yul\":1075:1076   */\n      0x00\n        /* \"#utility.yul\":1100:1153   */\n      tag_63\n        /* \"#utility.yul\":1145:1152   */\n      dup5\n        /* \"#utility.yul\":1136:1142   */\n      dup3\n        /* \"#utility.yul\":1125:1134   */\n      dup6\n        /* \"#utility.yul\":1121:1143   */\n      add\n        /* \"#utility.yul\":1100:1153   */\n      tag_29\n      jump\t// in\n    tag_63:\n        /* \"#utility.yul\":1090:1153   */\n      swap2\n      pop\n        /* \"#utility.yul\":1046:1163   */\n      pop\n        /* \"#utility.yul\":841:1170   */\n      swap3\n      swap2\n      pop\n      pop\n      jump\t// out\n        /* \"#utility.yul\":1176:1253   */\n    tag_30:\n        /* \"#utility.yul\":1213:1220   */\n      0x00\n        /* \"#utility.yul\":1242:1247   */\n      dup2\n        /* \"#utility.yul\":1231:1247   */\n      swap1\n      pop\n        /* \"#utility.yul\":1176:1253   */\n      swap2\n      swap1\n      pop\n      jump\t// out\n        /* \"#utility.yul\":1259:1377   */\n    tag_31:\n        /* \"#utility.yul\":1346:1370   */\n      tag_66\n        /* \"#utility.yul\":1364:1369   */\n      dup2\n        /* \"#utility.yul\":1346:1370   */\n      tag_30\n      jump\t// in\n    tag_66:\n        /* \"#utility.yul\":1341:1344   */\n      dup3\n        /* \"#utility.yul\":1334:1371   */\n      mstore\n        /* \"#utility.yul\":1259:1377   */\n      pop\n      pop\n      jump\t// out\n        /* \"#utility.yul\":1383:1605   */\n    tag_9:\n        /* \"#utility.yul\":1476:1480   */\n      0x00\n        /* \"#utility.yul\":1514:1516   */\n      0x20\n        /* \"#utility.yul\":1503:1512   */\n      dup3\n        /* \"#utility.yul\":1499:1517   */\n      add\n        /* \"#utility.yul\":1491:1517   */\n      swap1\n      pop\n        /* \"#utility.yul\":1527:1598   */\n      tag_68\n        /* \"#utility.yul\":1595:1596   */\n      0x00\n        /* \"#utility.yul\":1584:1593   */\n      dup4\n        /* \"#utility.yul\":1580:1597   */\n      add\n        /* \"#utility.yul\":1571:1577   */\n      dup5\n        /* \"#utility.yul\":1527:1598   */\n      tag_31\n      jump\t// in\n    tag_68:\n        /* \"#utility.yul\":1383:1605   */\n      swap3\n      swap2\n      pop\n      pop\n      jump\t// out\n        /* \"#utility.yul\":1611:1716   */\n    tag_32:\n        /* \"#utility.yul\":1647:1654   */\n      0x00\n        /* \"#utility.yul\":1687:1709   */\n      0xffffffffffffffffffff\n        /* \"#utility.yul\":1680:1685   */\n      dup3\n        /* \"#utility.yul\":1676:1710   */\n      and\n        /* \"#utility.yul\":1665:1710   */\n      swap1\n      pop\n        /* \"#utility.yul\":1611:1716   */\n      swap2\n      swap1\n      pop\n      jump\t// out\n        /* \"#utility.yul\":1722:1842   */\n    tag_33:\n        /* \"#utility.yul\":1794:1817   */\n      tag_71\n        /* \"#utility.yul\":1811:1816   */\n      dup2\n        /* \"#utility.yul\":1794:1817   */\n      tag_32\n      jump\t// in\n    tag_71:\n        /* \"#utility.yul\":1787:1792   */\n      dup2\n        /* \"#utility.yul\":1784:1818   */\n      eq\n        /* \"#utility.yul\":1774:1836   */\n      tag_72\n      jumpi\n        /* \"#utility.yul\":1832:1833   */\n      0x00\n        /* \"#utility.yul\":1829:1830   */\n      dup1\n        /* \"#utility.yul\":1822:1834   */\n      revert\n        /* \"#utility.yul\":1774:1836   */\n    tag_72:\n        /* \"#utility.yul\":1722:1842   */\n      pop\n      jump\t// out\n        /* \"#utility.yul\":1848:1989   */\n    tag_34:\n        /* \"#utility.yul\":1904:1909   */\n      0x00\n        /* \"#utility.yul\":1935:1941   */\n      dup2\n        /* \"#utility.yul\":1929:1942   */\n      mload\n        /* \"#utility.yul\":1920:1942   */\n      swap1\n      pop\n        /* \"#utility.yul\":1951:1983   */\n      tag_74\n        /* \"#utility.yul\":1977:1982   */\n      dup2\n        /* \"#utility.yul\":1951:1983   */\n      tag_33\n      jump\t// in\n    tag_74:\n        /* \"#utility.yul\":1848:1989   */\n      swap3\n      swap2\n      pop\n      pop\n      jump\t// out\n        /* \"#utility.yul\":1995:2071   */\n    tag_35:\n        /* \"#utility.yul\":2031:2038   */\n      0x00\n        /* \"#utility.yul\":2060:2065   */\n      dup2\n        /* \"#utility.yul\":2049:2065   */\n      swap1\n      pop\n        /* \"#utility.yul\":1995:2071   */\n      swap2\n      swap1\n      pop\n      jump\t// out\n        /* \"#utility.yul\":2077:2197   */\n    tag_36:\n        /* \"#utility.yul\":2149:2172   */\n      tag_77\n        /* \"#utility.yul\":2166:2171   */\n      dup2\n        /* \"#utility.yul\":2149:2172   */\n      tag_35\n      jump\t// in\n    tag_77:\n        /* \"#utility.yul\":2142:2147   */\n      dup2\n        /* \"#utility.yul\":2139:2173   */\n      eq\n        /* \"#utility.yul\":2129:2191   */\n      tag_78\n      jumpi\n        /* \"#utility.yul\":2187:2188   */\n      0x00\n        /* \"#utility.yul\":2184:2185   */\n      dup1\n        /* \"#utility.yul\":2177:2189   */\n      revert\n        /* \"#utility.yul\":2129:2191   */\n    tag_78:\n        /* \"#utility.yul\":2077:2197   */\n      pop\n      jump\t// out\n        /* \"#utility.yul\":2203:2344   */\n    tag_37:\n        /* \"#utility.yul\":2259:2264   */\n      0x00\n        /* \"#utility.yul\":2290:2296   */\n      dup2\n        /* \"#utility.yul\":2284:2297   */\n      mload\n        /* \"#utility.yul\":2275:2297   */\n      swap1\n      pop\n        /* \"#utility.yul\":2306:2338   */\n      tag_80\n        /* \"#utility.yul\":2332:2337   */\n      dup2\n        /* \"#utility.yul\":2306:2338   */\n      tag_36\n      jump\t// in\n    tag_80:\n        /* \"#utility.yul\":2203:2344   */\n      swap3\n      swap2\n      pop\n      pop\n      jump\t// out\n        /* \"#utility.yul\":2350:2472   */\n    tag_38:\n        /* \"#utility.yul\":2423:2447   */\n      tag_82\n        /* \"#utility.yul\":2441:2446   */\n      dup2\n        /* \"#utility.yul\":2423:2447   */\n      tag_30\n      jump\t// in\n    tag_82:\n        /* \"#utility.yul\":2416:2421   */\n      dup2\n        /* \"#utility.yul\":2413:2448   */\n      eq\n        /* \"#utility.yul\":2403:2466   */\n      tag_83\n      jumpi\n        /* \"#utility.yul\":2462:2463   */\n      0x00\n        /* \"#utility.yul\":2459:2460   */\n      dup1\n        /* \"#utility.yul\":2452:2464   */\n      revert\n        /* \"#utility.yul\":2403:2466   */\n    tag_83:\n        /* \"#utility.yul\":2350:2472   */\n      pop\n      jump\t// out\n        /* \"#utility.yul\":2478:2621   */\n    tag_39:\n        /* \"#utility.yul\":2535:2540   */\n      0x00\n        /* \"#utility.yul\":2566:2572   */\n      dup2\n        /* \"#utility.yul\":2560:2573   */\n      mload\n        /* \"#utility.yul\":2551:2573   */\n      swap1\n      pop\n        /* \"#utility.yul\":2582:2615   */\n      tag_85\n        /* \"#utility.yul\":2609:2614   */\n      dup2\n        /* \"#utility.yul\":2582:2615   */\n      tag_38\n      jump\t// in\n    tag_85:\n        /* \"#utility.yul\":2478:2621   */\n      swap3\n      swap2\n      pop\n      pop\n      jump\t// out\n        /* \"#utility.yul\":2627:3598   */\n    tag_14:\n        /* \"#utility.yul\":2730:2736   */\n      0x00\n        /* \"#utility.yul\":2738:2744   */\n      dup1\n        /* \"#utility.yul\":2746:2752   */\n      0x00\n        /* \"#utility.yul\":2754:2760   */\n      dup1\n        /* \"#utility.yul\":2762:2768   */\n      0x00\n        /* \"#utility.yul\":2811:2814   */\n      0xa0\n        /* \"#utility.yul\":2799:2808   */\n      dup7\n        /* \"#utility.yul\":2790:2797   */\n      dup9\n        /* \"#utility.yul\":2786:2809   */\n      sub\n        /* \"#utility.yul\":2782:2815   */\n      slt\n        /* \"#utility.yul\":2779:2899   */\n      iszero\n      tag_87\n      jumpi\n        /* \"#utility.yul\":2818:2897   */\n      tag_88\n      tag_24\n      jump\t// in\n    tag_88:\n        /* \"#utility.yul\":2779:2899   */\n    tag_87:\n        /* \"#utility.yul\":2938:2939   */\n      0x00\n        /* \"#utility.yul\":2963:3026   */\n      tag_89\n        /* \"#utility.yul\":3018:3025   */\n      dup9\n        /* \"#utility.yul\":3009:3015   */\n      dup3\n        /* \"#utility.yul\":2998:3007   */\n      dup10\n        /* \"#utility.yul\":2994:3016   */\n      add\n        /* \"#utility.yul\":2963:3026   */\n      tag_34\n      jump\t// in\n    tag_89:\n        /* \"#utility.yul\":2953:3026   */\n      swap6\n      pop\n        /* \"#utility.yul\":2909:3036   */\n      pop\n        /* \"#utility.yul\":3075:3077   */\n      0x20\n        /* \"#utility.yul\":3101:3164   */\n      tag_90\n        /* \"#utility.yul\":3156:3163   */\n      dup9\n        /* \"#utility.yul\":3147:3153   */\n      dup3\n        /* \"#utility.yul\":3136:3145   */\n      dup10\n        /* \"#utility.yul\":3132:3154   */\n      add\n        /* \"#utility.yul\":3101:3164   */\n      tag_37\n      jump\t// in\n    tag_90:\n        /* \"#utility.yul\":3091:3164   */\n      swap5\n      pop\n        /* \"#utility.yul\":3046:3174   */\n      pop\n        /* \"#utility.yul\":3213:3215   */\n      0x40\n        /* \"#utility.yul\":3239:3303   */\n      tag_91\n        /* \"#utility.yul\":3295:3302   */\n      dup9\n        /* \"#utility.yul\":3286:3292   */\n      dup3\n        /* \"#utility.yul\":3275:3284   */\n      dup10\n        /* \"#utility.yul\":3271:3293   */\n      add\n        /* \"#utility.yul\":3239:3303   */\n      tag_39\n      jump\t// in\n    tag_91:\n        /* \"#utility.yul\":3229:3303   */\n      swap4\n      pop\n        /* \"#utility.yul\":3184:3313   */\n      pop\n        /* \"#utility.yul\":3352:3354   */\n      0x60\n        /* \"#utility.yul\":3378:3442   */\n      tag_92\n        /* \"#utility.yul\":3434:3441   */\n      dup9\n        /* \"#utility.yul\":3425:3431   */\n      dup3\n        /* \"#utility.yul\":3414:3423   */\n      dup10\n        /* \"#utility.yul\":3410:3432   */\n      add\n        /* \"#utility.yul\":3378:3442   */\n      tag_39\n      jump\t// in\n    tag_92:\n        /* \"#utility.yul\":3368:3442   */\n      swap3\n      pop\n        /* \"#utility.yul\":3323:3452   */\n      pop\n        /* \"#utility.yul\":3491:3494   */\n      0x80\n        /* \"#utility.yul\":3518:3581   */\n      tag_93\n        /* \"#utility.yul\":3573:3580   */\n      dup9\n        /* \"#utility.yul\":3564:3570   */\n      dup3\n        /* \"#utility.yul\":3553:3562   */\n      dup10\n        /* \"#utility.yul\":3549:3571   */\n      add\n        /* \"#utility.yul\":3518:3581   */\n      tag_34\n      jump\t// in\n    tag_93:\n        /* \"#utility.yul\":3508:3581   */\n      swap2\n      pop\n        /* \"#utility.yul\":3462:3591   */\n      pop\n        /* \"#utility.yul\":2627:3598   */\n      swap3\n      swap6\n      pop\n      swap3\n      swap6\n      swap1\n      swap4\n      pop\n      jump\t// out\n        /* \"#utility.yul\":3604:3690   */\n    tag_40:\n        /* \"#utility.yul\":3639:3646   */\n      0x00\n        /* \"#utility.yul\":3679:3683   */\n      0xff\n        /* \"#utility.yul\":3672:3677   */\n      dup3\n        /* \"#utility.yul\":3668:3684   */\n      and\n        /* \"#utility.yul\":3657:3684   */\n      swap1\n      pop\n        /* \"#utility.yul\":3604:3690   */\n      swap2\n      swap1\n      pop\n      jump\t// out\n        /* \"#utility.yul\":3696:3814   */\n    tag_41:\n        /* \"#utility.yul\":3767:3789   */\n      tag_96\n        /* \"#utility.yul\":3783:3788   */\n      dup2\n        /* \"#utility.yul\":3767:3789   */\n      tag_40\n      jump\t// in\n    tag_96:\n        /* \"#utility.yul\":3760:3765   */\n      dup2\n        /* \"#utility.yul\":3757:3790   */\n      eq\n        /* \"#utility.yul\":3747:3808   */\n      tag_97\n      jumpi\n        /* \"#utility.yul\":3804:3805   */\n      0x00\n        /* \"#utility.yul\":3801:3802   */\n      dup1\n        /* \"#utility.yul\":3794:3806   */\n      revert\n        /* \"#utility.yul\":3747:3808   */\n    tag_97:\n        /* \"#utility.yul\":3696:3814   */\n      pop\n      jump\t// out\n        /* \"#utility.yul\":3820:3959   */\n    tag_42:\n        /* \"#utility.yul\":3875:3880   */\n      0x00\n        /* \"#utility.yul\":3906:3912   */\n      dup2\n        /* \"#utility.yul\":3900:3913   */\n      mload\n        /* \"#utility.yul\":3891:3913   */\n      swap1\n      pop\n        /* \"#utility.yul\":3922:3953   */\n      tag_99\n        /* \"#utility.yul\":3947:3952   */\n      dup2\n        /* \"#utility.yul\":3922:3953   */\n      tag_41\n      jump\t// in\n    tag_99:\n        /* \"#utility.yul\":3820:3959   */\n      swap3\n      swap2\n      pop\n      pop\n      jump\t// out\n        /* \"#utility.yul\":3965:4312   */\n    tag_18:\n        /* \"#utility.yul\":4033:4039   */\n      0x00\n        /* \"#utility.yul\":4082:4084   */\n      0x20\n        /* \"#utility.yul\":4070:4079   */\n      dup3\n        /* \"#utility.yul\":4061:4068   */\n      dup5\n        /* \"#utility.yul\":4057:4080   */\n      sub\n        /* \"#utility.yul\":4053:4085   */\n      slt\n        /* \"#utility.yul\":4050:4169   */\n      iszero\n      tag_101\n      jumpi\n        /* \"#utility.yul\":4088:4167   */\n      tag_102\n      tag_24\n      jump\t// in\n    tag_102:\n        /* \"#utility.yul\":4050:4169   */\n    tag_101:\n        /* \"#utility.yul\":4208:4209   */\n      0x00\n        /* \"#utility.yul\":4233:4295   */\n      tag_103\n        /* \"#utility.yul\":4287:4294   */\n      dup5\n        /* \"#utility.yul\":4278:4284   */\n      dup3\n        /* \"#utility.yul\":4267:4276   */\n      dup6\n        /* \"#utility.yul\":4263:4285   */\n      add\n        /* \"#utility.yul\":4233:4295   */\n      tag_42\n      jump\t// in\n    tag_103:\n        /* \"#utility.yul\":4223:4295   */\n      swap2\n      pop\n        /* \"#utility.yul\":4179:4305   */\n      pop\n        /* \"#utility.yul\":3965:4312   */\n      swap3\n      swap2\n      pop\n      pop\n      jump\t// out\n        /* \"#utility.yul\":4318:4498   */\n    tag_43:\n        /* \"#utility.yul\":4366:4443   */\n      0x4e487b7100000000000000000000000000000000000000000000000000000000\n        /* \"#utility.yul\":4363:4364   */\n      0x00\n        /* \"#utility.yul\":4356:4444   */\n      mstore\n        /* \"#utility.yul\":4463:4467   */\n      0x11\n        /* \"#utility.yul\":4460:4461   */\n      0x04\n        /* \"#utility.yul\":4453:4468   */\n      mstore\n        /* \"#utility.yul\":4487:4491   */\n      0x24\n        /* \"#utility.yul\":4484:4485   */\n      0x00\n        /* \"#utility.yul\":4477:4492   */\n      revert\n        /* \"#utility.yul\":4504:4606   */\n    tag_44:\n        /* \"#utility.yul\":4546:4554   */\n      0x00\n        /* \"#utility.yul\":4593:4598   */\n      dup2\n        /* \"#utility.yul\":4590:4591   */\n      0x01\n        /* \"#utility.yul\":4586:4599   */\n      shr\n        /* \"#utility.yul\":4565:4599   */\n      swap1\n      pop\n        /* \"#utility.yul\":4504:4606   */\n      swap2\n      swap1\n      pop\n      jump\t// out\n        /* \"#utility.yul\":4612:5460   */\n    tag_45:\n        /* \"#utility.yul\":4673:4678   */\n      0x00\n        /* \"#utility.yul\":4680:4684   */\n      dup1\n        /* \"#utility.yul\":4704:4710   */\n      dup3\n        /* \"#utility.yul\":4695:4710   */\n      swap2\n      pop\n        /* \"#utility.yul\":4728:4733   */\n      dup4\n        /* \"#utility.yul\":4719:4733   */\n      swap1\n      pop\n        /* \"#utility.yul\":4742:5454   */\n    tag_107:\n        /* \"#utility.yul\":4763:4764   */\n      0x01\n        /* \"#utility.yul\":4753:4761   */\n      dup6\n        /* \"#utility.yul\":4750:4765   */\n      gt\n        /* \"#utility.yul\":4742:5454   */\n      iszero\n      tag_109\n      jumpi\n        /* \"#utility.yul\":4858:4862   */\n      dup1\n        /* \"#utility.yul\":4853:4856   */\n      dup7\n        /* \"#utility.yul\":4849:4863   */\n      div\n        /* \"#utility.yul\":4843:4847   */\n      dup2\n        /* \"#utility.yul\":4840:4864   */\n      gt\n        /* \"#utility.yul\":4837:4887   */\n      iszero\n      tag_110\n      jumpi\n        /* \"#utility.yul\":4867:4885   */\n      tag_111\n      tag_43\n      jump\t// in\n    tag_111:\n        /* \"#utility.yul\":4837:4887   */\n    tag_110:\n        /* \"#utility.yul\":4917:4918   */\n      0x01\n        /* \"#utility.yul\":4907:4915   */\n      dup6\n        /* \"#utility.yul\":4903:4919   */\n      and\n        /* \"#utility.yul\":4900:5351   */\n      iszero\n      tag_112\n      jumpi\n        /* \"#utility.yul\":5332:5336   */\n      dup1\n        /* \"#utility.yul\":5325:5330   */\n      dup3\n        /* \"#utility.yul\":5321:5337   */\n      mul\n        /* \"#utility.yul\":5312:5337   */\n      swap2\n      pop\n        /* \"#utility.yul\":4900:5351   */\n    tag_112:\n        /* \"#utility.yul\":5382:5386   */\n      dup1\n        /* \"#utility.yul\":5376:5380   */\n      dup2\n        /* \"#utility.yul\":5372:5387   */\n      mul\n        /* \"#utility.yul\":5364:5387   */\n      swap1\n      pop\n        /* \"#utility.yul\":5412:5444   */\n      tag_113\n        /* \"#utility.yul\":5435:5443   */\n      dup6\n        /* \"#utility.yul\":5412:5444   */\n      tag_44\n      jump\t// in\n    tag_113:\n        /* \"#utility.yul\":5400:5444   */\n      swap5\n      pop\n        /* \"#utility.yul\":4742:5454   */\n      jump(tag_107)\n    tag_109:\n        /* \"#utility.yul\":4612:5460   */\n      swap5\n      pop\n      swap5\n      swap3\n      pop\n      pop\n      pop\n      jump\t// out\n        /* \"#utility.yul\":5466:6539   */\n    tag_46:\n        /* \"#utility.yul\":5520:5525   */\n      0x00\n        /* \"#utility.yul\":5711:5719   */\n      dup3\n        /* \"#utility.yul\":5701:5741   */\n      tag_115\n      jumpi\n        /* \"#utility.yul\":5732:5733   */\n      0x01\n        /* \"#utility.yul\":5723:5733   */\n      swap1\n      pop\n        /* \"#utility.yul\":5734:5739   */\n      jump(tag_114)\n        /* \"#utility.yul\":5701:5741   */\n    tag_115:\n        /* \"#utility.yul\":5760:5764   */\n      dup2\n        /* \"#utility.yul\":5750:5786   */\n      tag_116\n      jumpi\n        /* \"#utility.yul\":5777:5778   */\n      0x00\n        /* \"#utility.yul\":5768:5778   */\n      swap1\n      pop\n        /* \"#utility.yul\":5779:5784   */\n      jump(tag_114)\n        /* \"#utility.yul\":5750:5786   */\n    tag_116:\n        /* \"#utility.yul\":5846:5850   */\n      dup2\n        /* \"#utility.yul\":5894:5895   */\n      0x01\n        /* \"#utility.yul\":5889:5916   */\n      dup2\n      eq\n      tag_118\n      jumpi\n        /* \"#utility.yul\":5930:5931   */\n      0x02\n        /* \"#utility.yul\":5925:6116   */\n      dup2\n      eq\n      tag_119\n      jumpi\n        /* \"#utility.yul\":5839:6116   */\n      jump(tag_117)\n        /* \"#utility.yul\":5889:5916   */\n    tag_118:\n        /* \"#utility.yul\":5907:5908   */\n      0x01\n        /* \"#utility.yul\":5898:5908   */\n      swap2\n      pop\n        /* \"#utility.yul\":5909:5914   */\n      pop\n      jump(tag_114)\n        /* \"#utility.yul\":5925:6116   */\n    tag_119:\n        /* \"#utility.yul\":5970:5973   */\n      0xff\n        /* \"#utility.yul\":5960:5968   */\n      dup5\n        /* \"#utility.yul\":5957:5974   */\n      gt\n        /* \"#utility.yul\":5954:5997   */\n      iszero\n      tag_120\n      jumpi\n        /* \"#utility.yul\":5977:5995   */\n      tag_121\n      tag_43\n      jump\t// in\n    tag_121:\n        /* \"#utility.yul\":5954:5997   */\n    tag_120:\n        /* \"#utility.yul\":6026:6034   */\n      dup4\n        /* \"#utility.yul\":6023:6024   */\n      0x02\n        /* \"#utility.yul\":6019:6035   */\n      exp\n        /* \"#utility.yul\":6010:6035   */\n      swap2\n      pop\n        /* \"#utility.yul\":6061:6064   */\n      dup5\n        /* \"#utility.yul\":6054:6059   */\n      dup3\n        /* \"#utility.yul\":6051:6065   */\n      gt\n        /* \"#utility.yul\":6048:6088   */\n      iszero\n      tag_122\n      jumpi\n        /* \"#utility.yul\":6068:6086   */\n      tag_123\n      tag_43\n      jump\t// in\n    tag_123:\n        /* \"#utility.yul\":6048:6088   */\n    tag_122:\n        /* \"#utility.yul\":6101:6106   */\n      pop\n      jump(tag_114)\n        /* \"#utility.yul\":5839:6116   */\n    tag_117:\n      pop\n        /* \"#utility.yul\":6225:6227   */\n      0x20\n        /* \"#utility.yul\":6215:6223   */\n      dup4\n        /* \"#utility.yul\":6212:6228   */\n      lt\n        /* \"#utility.yul\":6206:6209   */\n      0x0133\n        /* \"#utility.yul\":6200:6204   */\n      dup4\n        /* \"#utility.yul\":6197:6210   */\n      lt\n        /* \"#utility.yul\":6193:6229   */\n      and\n        /* \"#utility.yul\":6175:6177   */\n      0x4e\n        /* \"#utility.yul\":6165:6173   */\n      dup5\n        /* \"#utility.yul\":6162:6178   */\n      lt\n        /* \"#utility.yul\":6157:6159   */\n      0x0b\n        /* \"#utility.yul\":6151:6155   */\n      dup5\n        /* \"#utility.yul\":6148:6160   */\n      lt\n        /* \"#utility.yul\":6144:6179   */\n      and\n        /* \"#utility.yul\":6128:6239   */\n      or\n        /* \"#utility.yul\":6125:6371   */\n      iszero\n      tag_124\n      jumpi\n        /* \"#utility.yul\":6281:6289   */\n      dup3\n        /* \"#utility.yul\":6275:6279   */\n      dup3\n        /* \"#utility.yul\":6271:6290   */\n      exp\n        /* \"#utility.yul\":6262:6290   */\n      swap1\n      pop\n        /* \"#utility.yul\":6316:6319   */\n      dup4\n        /* \"#utility.yul\":6309:6314   */\n      dup2\n        /* \"#utility.yul\":6306:6320   */\n      gt\n        /* \"#utility.yul\":6303:6343   */\n      iszero\n      tag_125\n      jumpi\n        /* \"#utility.yul\":6323:6341   */\n      tag_126\n      tag_43\n      jump\t// in\n    tag_126:\n        /* \"#utility.yul\":6303:6343   */\n    tag_125:\n        /* \"#utility.yul\":6356:6361   */\n      jump(tag_114)\n        /* \"#utility.yul\":6125:6371   */\n    tag_124:\n        /* \"#utility.yul\":6396:6438   */\n      tag_127\n        /* \"#utility.yul\":6434:6437   */\n      dup5\n        /* \"#utility.yul\":6424:6432   */\n      dup5\n        /* \"#utility.yul\":6418:6422   */\n      dup5\n        /* \"#utility.yul\":6415:6416   */\n      0x01\n        /* \"#utility.yul\":6396:6438   */\n      tag_45\n      jump\t// in\n    tag_127:\n        /* \"#utility.yul\":6381:6438   */\n      swap3\n      pop\n      swap1\n      pop\n        /* \"#utility.yul\":6470:6474   */\n      dup2\n        /* \"#utility.yul\":6465:6468   */\n      dup5\n        /* \"#utility.yul\":6461:6475   */\n      div\n        /* \"#utility.yul\":6454:6459   */\n      dup2\n        /* \"#utility.yul\":6451:6476   */\n      gt\n        /* \"#utility.yul\":6448:6499   */\n      iszero\n      tag_128\n      jumpi\n        /* \"#utility.yul\":6479:6497   */\n      tag_129\n      tag_43\n      jump\t// in\n    tag_129:\n        /* \"#utility.yul\":6448:6499   */\n    tag_128:\n        /* \"#utility.yul\":6528:6532   */\n      dup2\n        /* \"#utility.yul\":6521:6526   */\n      dup2\n        /* \"#utility.yul\":6517:6533   */\n      mul\n        /* \"#utility.yul\":6508:6533   */\n      swap1\n      pop\n        /* \"#utility.yul\":5466:6539   */\n    tag_114:\n      swap4\n      swap3\n      pop\n      pop\n      pop\n      jump\t// out\n        /* \"#utility.yul\":6545:6826   */\n    tag_20:\n        /* \"#utility.yul\":6603:6608   */\n      0x00\n        /* \"#utility.yul\":6627:6650   */\n      tag_131\n        /* \"#utility.yul\":6645:6649   */\n      dup3\n        /* \"#utility.yul\":6627:6650   */\n      tag_30\n      jump\t// in\n    tag_131:\n        /* \"#utility.yul\":6619:6650   */\n      swap2\n      pop\n        /* \"#utility.yul\":6671:6696   */\n      tag_132\n        /* \"#utility.yul\":6687:6695   */\n      dup4\n        /* \"#utility.yul\":6671:6696   */\n      tag_40\n      jump\t// in\n    tag_132:\n        /* \"#utility.yul\":6659:6696   */\n      swap3\n      pop\n        /* \"#utility.yul\":6715:6819   */\n      tag_133\n        /* \"#utility.yul\":6752:6818   */\n      0xffffffffffffffffffffffffffffffffffffffffffffffffffffffffffffffff\n        /* \"#utility.yul\":6742:6750   */\n      dup5\n        /* \"#utility.yul\":6736:6740   */\n      dup5\n        /* \"#utility.yul\":6715:6819   */\n      tag_46\n      jump\t// in\n    tag_133:\n        /* \"#utility.yul\":6706:6819   */\n      swap1\n      pop\n        /* \"#utility.yul\":6545:6826   */\n      swap3\n      swap2\n      pop\n      pop\n      jump\t// out\n        /* \"#utility.yul\":6832:7012   */\n    tag_47:\n        /* \"#utility.yul\":6880:6957   */\n      0x4e487b7100000000000000000000000000000000000000000000000000000000\n        /* \"#utility.yul\":6877:6878   */\n      0x00\n        /* \"#utility.yul\":6870:6958   */\n      mstore\n        /* \"#utility.yul\":6977:6981   */\n      0x12\n        /* \"#utility.yul\":6974:6975   */\n      0x04\n        /* \"#utility.yul\":6967:6982   */\n      mstore\n        /* \"#utility.yul\":7001:7005   */\n      0x24\n        /* \"#utility.yul\":6998:6999   */\n      0x00\n        /* \"#utility.yul\":6991:7006   */\n      revert\n        /* \"#utility.yul\":7018:7203   */\n    tag_22:\n        /* \"#utility.yul\":7058:7059   */\n      0x00\n        /* \"#utility.yul\":7075:7095   */\n      tag_136\n        /* \"#utility.yul\":7093:7094   */\n      dup3\n        /* \"#utility.yul\":7075:7095   */\n      tag_30\n      jump\t// in\n    tag_136:\n        /* \"#utility.yul\":7070:7095   */\n      swap2\n      pop\n        /* \"#utility.yul\":7109:7129   */\n      tag_137\n        /* \"#utility.yul\":7127:7128   */\n      dup4\n        /* \"#utility.yul\":7109:7129   */\n      tag_30\n      jump\t// in\n    tag_137:\n        /* \"#utility.yul\":7104:7129   */\n      swap3\n      pop\n        /* \"#utility.yul\":7148:7149   */\n      dup3\n        /* \"#utility.yul\":7138:7173   */\n      tag_138\n      jumpi\n        /* \"#utility.yul\":7153:7171   */\n      tag_139\n      tag_47\n      jump\t// in\n    tag_139:\n        /* \"#utility.yul\":7138:7173   */\n    tag_138:\n        /* \"#utility.yul\":7195:7196   */\n      dup3\n        /* \"#utility.yul\":7192:7193   */\n      dup3\n        /* \"#utility.yul\":7188:7197   */\n      div\n        /* \"#utility.yul\":7183:7197   */\n      swap1\n      pop\n        /* \"#utility.yul\":7018:7203   */\n      swap3\n      swap2\n      pop\n      pop\n      jump\t// out\n\n    auxdata: 0xa26469706673582212202769ad524d1f35136c61f4ef2aee39908bd5d0042b72cfed29a1d6f9de9b25fe64736f6c63430008150033\n}\n",
				"bytecode": {
					"linkReferences": {},
					"object": "608060405234801561000f575f80fd5b506105d48061001d5f395ff3fe608060405234801561000f575f80fd5b5060043610610029575f3560e01c8063b3596f071461002d575b5f80fd5b610047600480360381019061004291906101cb565b61005d565b604051610054919061020e565b60405180910390f35b5f808290505f8173ffffffffffffffffffffffffffffffffffffffff1663feaf968c6040518163ffffffff1660e01b815260040160a060405180830381865afa1580156100ac573d5f803e3d5ffd5b505050506040513d601f19601f820116820180604052508101906100d091906102c3565b5050509150505f8273ffffffffffffffffffffffffffffffffffffffff1663313ce5676040518163ffffffff1660e01b8152600401602060405180830381865afa158015610120573d5f803e3d5ffd5b505050506040513d601f19601f820116820180604052508101906101449190610370565b90505f81600a61015491906104f7565b8361015f919061056e565b905080945050505050919050565b5f80fd5b5f73ffffffffffffffffffffffffffffffffffffffff82169050919050565b5f61019a82610171565b9050919050565b6101aa81610190565b81146101b4575f80fd5b50565b5f813590506101c5816101a1565b92915050565b5f602082840312156101e0576101df61016d565b5b5f6101ed848285016101b7565b91505092915050565b5f819050919050565b610208816101f6565b82525050565b5f6020820190506102215f8301846101ff565b92915050565b5f69ffffffffffffffffffff82169050919050565b61024581610227565b811461024f575f80fd5b50565b5f815190506102608161023c565b92915050565b5f819050919050565b61027881610266565b8114610282575f80fd5b50565b5f815190506102938161026f565b92915050565b6102a2816101f6565b81146102ac575f80fd5b50565b5f815190506102bd81610299565b92915050565b5f805f805f60a086880312156102dc576102db61016d565b5b5f6102e988828901610252565b95505060206102fa88828901610285565b945050604061030b888289016102af565b935050606061031c888289016102af565b925050608061032d88828901610252565b9150509295509295909350565b5f60ff82169050919050565b61034f8161033a565b8114610359575f80fd5b50565b5f8151905061036a81610346565b92915050565b5f602082840312156103855761038461016d565b5b5f6103928482850161035c565b91505092915050565b7f4e487b71000000000000000000000000000000000000000000000000000000005f52601160045260245ffd5b5f8160011c9050919050565b5f808291508390505b600185111561041d578086048111156103f9576103f861039b565b5b60018516156104085780820291505b8081029050610416856103c8565b94506103dd565b94509492505050565b5f8261043557600190506104f0565b81610442575f90506104f0565b8160018114610458576002811461046257610491565b60019150506104f0565b60ff8411156104745761047361039b565b5b8360020a91508482111561048b5761048a61039b565b5b506104f0565b5060208310610133831016604e8410600b84101617156104c65782820a9050838111156104c1576104c061039b565b5b6104f0565b6104d384848460016103d4565b925090508184048111156104ea576104e961039b565b5b81810290505b9392505050565b5f610501826101f6565b915061050c8361033a565b92506105397fffffffffffffffffffffffffffffffffffffffffffffffffffffffffffffffff8484610426565b905092915050565b7f4e487b71000000000000000000000000000000000000000000000000000000005f52601260045260245ffd5b5f610578826101f6565b9150610583836101f6565b92508261059357610592610541565b5b82820490509291505056fea26469706673582212202769ad524d1f35136c61f4ef2aee39908bd5d0042b72cfed29a1d6f9de9b25fe64736f6c63430008150033",
					"opcodes": "PUSH1 0x80 PUSH1 0x40 MSTORE CALLVALUE DUP1 ISZERO PUSH2 0xF JUMPI PUSH0 DUP1 REVERT JUMPDEST POP PUSH2 0x5D4 DUP1 PUSH2 0x1D PUSH0 CODECOPY PUSH0 RETURN INVALID PUSH1 0x80 PUSH1 0x40 MSTORE CALLVALUE DUP1 ISZERO PUSH2 0xF JUMPI PUSH0 DUP1 REVERT JUMPDEST POP PUSH1 0x4 CALLDATASIZE LT PUSH2 0x29 JUMPI PUSH0 CALLDATALOAD PUSH1 0xE0 SHR DUP1 PUSH4 0xB3596F07 EQ PUSH2 0x2D JUMPI JUMPDEST PUSH0 DUP1 REVERT JUMPDEST PUSH2 0x47 PUSH1 0x4 DUP1 CALLDATASIZE SUB DUP2 ADD SWAP1 PUSH2 0x42 SWAP2 SWAP1 PUSH2 0x1CB JUMP JUMPDEST PUSH2 0x5D JUMP JUMPDEST PUSH1 0x40 MLOAD PUSH2 0x54 SWAP2 SWAP1 PUSH2 0x20E JUMP JUMPDEST PUSH1 0x40 MLOAD DUP1 SWAP2 SUB SWAP1 RETURN JUMPDEST PUSH0 DUP1 DUP3 SWAP1 POP PUSH0 DUP2 PUSH20 0xFFFFFFFFFFFFFFFFFFFFFFFFFFFFFFFFFFFFFFFF AND PUSH4 0xFEAF968C PUSH1 0x40 MLOAD DUP2 PUSH4 0xFFFFFFFF AND PUSH1 0xE0 SHL DUP2 MSTORE PUSH1 0x4 ADD PUSH1 0xA0 PUSH1 0x40 MLOAD DUP1 DUP4 SUB DUP2 DUP7 GAS STATICCALL ISZERO DUP1 ISZERO PUSH2 0xAC JUMPI RETURNDATASIZE PUSH0 DUP1 RETURNDATACOPY RETURNDATASIZE PUSH0 REVERT JUMPDEST POP POP POP POP PUSH1 0x40 MLOAD RETURNDATASIZE PUSH1 0x1F NOT PUSH1 0x1F DUP3 ADD AND DUP3 ADD DUP1 PUSH1 0x40 MSTORE POP DUP2 ADD SWAP1 PUSH2 0xD0 SWAP2 SWAP1 PUSH2 0x2C3 JUMP JUMPDEST POP POP POP SWAP2 POP POP PUSH0 DUP3 PUSH20 0xFFFFFFFFFFFFFFFFFFFFFFFFFFFFFFFFFFFFFFFF AND PUSH4 0x313CE567 PUSH1 0x40 MLOAD DUP2 PUSH4 0xFFFFFFFF AND PUSH1 0xE0 SHL DUP2 MSTORE PUSH1 0x4 ADD PUSH1 0x20 PUSH1 0x40 MLOAD DUP1 DUP4 SUB DUP2 DUP7 GAS STATICCALL ISZERO DUP1 ISZERO PUSH2 0x120 JUMPI RETURNDATASIZE PUSH0 DUP1 RETURNDATACOPY RETURNDATASIZE PUSH0 REVERT JUMPDEST POP POP POP POP PUSH1 0x40 MLOAD RETURNDATASIZE PUSH1 0x1F NOT PUSH1 0x1F DUP3 ADD AND DUP3 ADD DUP1 PUSH1 0x40 MSTORE POP DUP2 ADD SWAP1 PUSH2 0x144 SWAP2 SWAP1 PUSH2 0x370 JUMP JUMPDEST SWAP1 POP PUSH0 DUP2 PUSH1 0xA PUSH2 0x154 SWAP2 SWAP1 PUSH2 0x4F7 JUMP JUMPDEST DUP4 PUSH2 0x15F SWAP2 SWAP1 PUSH2 0x56E JUMP JUMPDEST SWAP1 POP DUP1 SWAP5 POP POP POP POP POP SWAP2 SWAP1 POP JUMP JUMPDEST PUSH0 DUP1 REVERT JUMPDEST PUSH0 PUSH20 0xFFFFFFFFFFFFFFFFFFFFFFFFFFFFFFFFFFFFFFFF DUP3 AND SWAP1 POP SWAP2 SWAP1 POP JUMP JUMPDEST PUSH0 PUSH2 0x19A DUP3 PUSH2 0x171 JUMP JUMPDEST SWAP1 POP SWAP2 SWAP1 POP JUMP JUMPDEST PUSH2 0x1AA DUP2 PUSH2 0x190 JUMP JUMPDEST DUP2 EQ PUSH2 0x1B4 JUMPI PUSH0 DUP1 REVERT JUMPDEST POP JUMP JUMPDEST PUSH0 DUP2 CALLDATALOAD SWAP1 POP PUSH2 0x1C5 DUP2 PUSH2 0x1A1 JUMP JUMPDEST SWAP3 SWAP2 POP POP JUMP JUMPDEST PUSH0 PUSH1 0x20 DUP3 DUP5 SUB SLT ISZERO PUSH2 0x1E0 JUMPI PUSH2 0x1DF PUSH2 0x16D JUMP JUMPDEST JUMPDEST PUSH0 PUSH2 0x1ED DUP5 DUP3 DUP6 ADD PUSH2 0x1B7 JUMP JUMPDEST SWAP2 POP POP SWAP3 SWAP2 POP POP JUMP JUMPDEST PUSH0 DUP2 SWAP1 POP SWAP2 SWAP1 POP JUMP JUMPDEST PUSH2 0x208 DUP2 PUSH2 0x1F6 JUMP JUMPDEST DUP3 MSTORE POP POP JUMP JUMPDEST PUSH0 PUSH1 0x20 DUP3 ADD SWAP1 POP PUSH2 0x221 PUSH0 DUP4 ADD DUP5 PUSH2 0x1FF JUMP JUMPDEST SWAP3 SWAP2 POP POP JUMP JUMPDEST PUSH0 PUSH10 0xFFFFFFFFFFFFFFFFFFFF DUP3 AND SWAP1 POP SWAP2 SWAP1 POP JUMP JUMPDEST PUSH2 0x245 DUP2 PUSH2 0x227 JUMP JUMPDEST DUP2 EQ PUSH2 0x24F JUMPI PUSH0 DUP1 REVERT JUMPDEST POP JUMP JUMPDEST PUSH0 DUP2 MLOAD SWAP1 POP PUSH2 0x260 DUP2 PUSH2 0x23C JUMP JUMPDEST SWAP3 SWAP2 POP POP JUMP JUMPDEST PUSH0 DUP2 SWAP1 POP SWAP2 SWAP1 POP JUMP JUMPDEST PUSH2 0x278 DUP2 PUSH2 0x266 JUMP JUMPDEST DUP2 EQ PUSH2 0x282 JUMPI PUSH0 DUP1 REVERT JUMPDEST POP JUMP JUMPDEST PUSH0 DUP2 MLOAD SWAP1 POP PUSH2 0x293 DUP2 PUSH2 0x26F JUMP JUMPDEST SWAP3 SWAP2 POP POP JUMP JUMPDEST PUSH2 0x2A2 DUP2 PUSH2 0x1F6 JUMP JUMPDEST DUP2 EQ PUSH2 0x2AC JUMPI PUSH0 DUP1 REVERT JUMPDEST POP JUMP JUMPDEST PUSH0 DUP2 MLOAD SWAP1 POP PUSH2 0x2BD DUP2 PUSH2 0x299 JUMP JUMPDEST SWAP3 SWAP2 POP POP JUMP JUMPDEST PUSH0 DUP1 PUSH0 DUP1 PUSH0 PUSH1 0xA0 DUP7 DUP9 SUB SLT ISZERO PUSH2 0x2DC JUMPI PUSH2 0x2DB PUSH2 0x16D JUMP JUMPDEST JUMPDEST PUSH0 PUSH2 0x2E9 DUP9 DUP3 DUP10 ADD PUSH2 0x252 JUMP JUMPDEST SWAP6 POP POP PUSH1 0x20 PUSH2 0x2FA DUP9 DUP3 DUP10 ADD PUSH2 0x285 JUMP JUMPDEST SWAP5 POP POP PUSH1 0x40 PUSH2 0x30B DUP9 DUP3 DUP10 ADD PUSH2 0x2AF JUMP JUMPDEST SWAP4 POP POP PUSH1 0x60 PUSH2 0x31C DUP9 DUP3 DUP10 ADD PUSH2 0x2AF JUMP JUMPDEST SWAP3 POP POP PUSH1 0x80 PUSH2 0x32D DUP9 DUP3 DUP10 ADD PUSH2 0x252 JUMP JUMPDEST SWAP2 POP POP SWAP3 SWAP6 POP SWAP3 SWAP6 SWAP1 SWAP4 POP JUMP JUMPDEST PUSH0 PUSH1 0xFF DUP3 AND SWAP1 POP SWAP2 SWAP1 POP JUMP JUMPDEST PUSH2 0x34F DUP2 PUSH2 0x33A JUMP JUMPDEST DUP2 EQ PUSH2 0x359 JUMPI PUSH0 DUP1 REVERT JUMPDEST POP JUMP JUMPDEST PUSH0 DUP2 MLOAD SWAP1 POP PUSH2 0x36A DUP2 PUSH2 0x346 JUMP JUMPDEST SWAP3 SWAP2 POP POP JUMP JUMPDEST PUSH0 PUSH1 0x20 DUP3 DUP5 SUB SLT ISZERO PUSH2 0x385 JUMPI PUSH2 0x384 PUSH2 0x16D JUMP JUMPDEST JUMPDEST PUSH0 PUSH2 0x392 DUP5 DUP3 DUP6 ADD PUSH2 0x35C JUMP JUMPDEST SWAP2 POP POP SWAP3 SWAP2 POP POP JUMP JUMPDEST PUSH32 0x4E487B7100000000000000000000000000000000000000000000000000000000 PUSH0 MSTORE PUSH1 0x11 PUSH1 0x4 MSTORE PUSH1 0x24 PUSH0 REVERT JUMPDEST PUSH0 DUP2 PUSH1 0x1 SHR SWAP1 POP SWAP2 SWAP1 POP JUMP JUMPDEST PUSH0 DUP1 DUP3 SWAP2 POP DUP4 SWAP1 POP JUMPDEST PUSH1 0x1 DUP6 GT ISZERO PUSH2 0x41D JUMPI DUP1 DUP7 DIV DUP2 GT ISZERO PUSH2 0x3F9 JUMPI PUSH2 0x3F8 PUSH2 0x39B JUMP JUMPDEST JUMPDEST PUSH1 0x1 DUP6 AND ISZERO PUSH2 0x408 JUMPI DUP1 DUP3 MUL SWAP2 POP JUMPDEST DUP1 DUP2 MUL SWAP1 POP PUSH2 0x416 DUP6 PUSH2 0x3C8 JUMP JUMPDEST SWAP5 POP PUSH2 0x3DD JUMP JUMPDEST SWAP5 POP SWAP5 SWAP3 POP POP POP JUMP JUMPDEST PUSH0 DUP3 PUSH2 0x435 JUMPI PUSH1 0x1 SWAP1 POP PUSH2 0x4F0 JUMP JUMPDEST DUP2 PUSH2 0x442 JUMPI PUSH0 SWAP1 POP PUSH2 0x4F0 JUMP JUMPDEST DUP2 PUSH1 0x1 DUP2 EQ PUSH2 0x458 JUMPI PUSH1 0x2 DUP2 EQ PUSH2 0x462 JUMPI PUSH2 0x491 JUMP JUMPDEST PUSH1 0x1 SWAP2 POP POP PUSH2 0x4F0 JUMP JUMPDEST PUSH1 0xFF DUP5 GT ISZERO PUSH2 0x474 JUMPI PUSH2 0x473 PUSH2 0x39B JUMP JUMPDEST JUMPDEST DUP4 PUSH1 0x2 EXP SWAP2 POP DUP5 DUP3 GT ISZERO PUSH2 0x48B JUMPI PUSH2 0x48A PUSH2 0x39B JUMP JUMPDEST JUMPDEST POP PUSH2 0x4F0 JUMP JUMPDEST POP PUSH1 0x20 DUP4 LT PUSH2 0x133 DUP4 LT AND PUSH1 0x4E DUP5 LT PUSH1 0xB DUP5 LT AND OR ISZERO PUSH2 0x4C6 JUMPI DUP3 DUP3 EXP SWAP1 POP DUP4 DUP2 GT ISZERO PUSH2 0x4C1 JUMPI PUSH2 0x4C0 PUSH2 0x39B JUMP JUMPDEST JUMPDEST PUSH2 0x4F0 JUMP JUMPDEST PUSH2 0x4D3 DUP5 DUP5 DUP5 PUSH1 0x1 PUSH2 0x3D4 JUMP JUMPDEST SWAP3 POP SWAP1 POP DUP2 DUP5 DIV DUP2 GT ISZERO PUSH2 0x4EA JUMPI PUSH2 0x4E9 PUSH2 0x39B JUMP JUMPDEST JUMPDEST DUP2 DUP2 MUL SWAP1 POP JUMPDEST SWAP4 SWAP3 POP POP POP JUMP JUMPDEST PUSH0 PUSH2 0x501 DUP3 PUSH2 0x1F6 JUMP JUMPDEST SWAP2 POP PUSH2 0x50C DUP4 PUSH2 0x33A JUMP JUMPDEST SWAP3 POP PUSH2 0x539 PUSH32 0xFFFFFFFFFFFFFFFFFFFFFFFFFFFFFFFFFFFFFFFFFFFFFFFFFFFFFFFFFFFFFFFF DUP5 DUP5 PUSH2 0x426 JUMP JUMPDEST SWAP1 POP SWAP3 SWAP2 POP POP JUMP JUMPDEST PUSH32 0x4E487B7100000000000000000000000000000000000000000000000000000000 PUSH0 MSTORE PUSH1 0x12 PUSH1 0x4 MSTORE PUSH1 0x24 PUSH0 REVERT JUMPDEST PUSH0 PUSH2 0x578 DUP3 PUSH2 0x1F6 JUMP JUMPDEST SWAP2 POP PUSH2 0x583 DUP4 PUSH2 0x1F6 JUMP JUMPDEST SWAP3 POP DUP3 PUSH2 0x593 JUMPI PUSH2 0x592 PUSH2 0x541 JUMP JUMPDEST JUMPDEST DUP3 DUP3 DIV SWAP1 POP SWAP3 SWAP2 POP POP JUMP INVALID LOG2 PUSH5 0x6970667358 0x22 SLT KECCAK256 0x27 PUSH10 0xAD524D1F35136C61F4EF 0x2A 0xEE CODECOPY SWAP1 DUP12 0xD5 0xD0 DIV 0x2B PUSH19 0xCFED29A1D6F9DE9B25FE64736F6C6343000815 STOP CALLER "
				},
				"gasEstimates": {
					"creation": {
						"codeDepositCost": "298400",
						"executionCost": "335",
						"totalCost": "298735"
					},
					"external": {
						"getAssetPrice(address)": "infinite"
					}
				},
				"methodIdentifiers": {
					"getAssetPrice(address)": "b3596f07"
				}
			},
			"storageLayout": {
				"storage": [],
				"types": null
			},
			"userdoc": {
				"kind": "user",
				"methods": {},
				"version": 1
			}
		}
	}
}