{
	"contracts/TokenSale.sol": {
		"TokenSale": {
			"abi": [
				{
					"inputs": [],
					"stateMutability": "nonpayable",
					"type": "constructor"
				},
				{
					"inputs": [],
					"name": "notOwner",
					"type": "error"
				},
				{
					"inputs": [
						{
							"internalType": "address",
							"name": "",
							"type": "address"
						}
					],
					"name": "balances",
					"outputs": [
						{
							"internalType": "uint256",
							"name": "",
							"type": "uint256"
						}
					],
					"stateMutability": "view",
					"type": "function"
				},
				{
					"inputs": [],
					"name": "buyTokens",
					"outputs": [],
					"stateMutability": "payable",
					"type": "function"
				},
				{
					"inputs": [],
					"name": "getTokenBalance",
					"outputs": [
						{
							"internalType": "uint256",
							"name": "",
							"type": "uint256"
						}
					],
					"stateMutability": "view",
					"type": "function"
				},
				{
					"inputs": [
						{
							"internalType": "uint256",
							"name": "_amount",
							"type": "uint256"
						}
					],
					"name": "sellTokens",
					"outputs": [],
					"stateMutability": "payable",
					"type": "function"
				},
				{
					"inputs": [],
					"name": "withdrawEth",
					"outputs": [],
					"stateMutability": "payable",
					"type": "function"
				}
			],
			"devdoc": {
				"kind": "dev",
				"methods": {},
				"version": 1
			},
			"evm": {
				"assembly": "    /* \"contracts/TokenSale.sol\":83:1457  contract TokenSale {... */\n  mstore(0x40, 0xa0)\n    /* \"contracts/TokenSale.sol\":174:181  1000000 */\n  0x0f4240\n    /* \"contracts/TokenSale.sol\":151:181  uint256 tokenBalance = 1000000 */\n  0x00\n  sstore\n    /* \"contracts/TokenSale.sol\":272:325  constructor() {... */\n  callvalue\n  dup1\n  iszero\n  tag_1\n  jumpi\n  0x00\n  dup1\n  revert\ntag_1:\n  pop\n    /* \"contracts/TokenSale.sol\":307:317  msg.sender */\n  caller\n    /* \"contracts/TokenSale.sol\":297:317  i_owner = msg.sender */\n  0xffffffffffffffffffffffffffffffffffffffff\n  and\n  0x80\n  dup2\n  0xffffffffffffffffffffffffffffffffffffffff\n  and\n  dup2\n  mstore\n  pop\n  pop\n    /* \"contracts/TokenSale.sol\":83:1457  contract TokenSale {... */\n  mload(0x80)\n  codecopy(0x00, dataOffset(sub_0), dataSize(sub_0))\n  0x00\n  assignImmutable(\"0x1d3be50b2bb17407dd170f1d5da128d1def30c6b1598d6a629e79b4775265526\")\n  return(0x00, dataSize(sub_0))\nstop\n\nsub_0: assembly {\n        /* \"contracts/TokenSale.sol\":83:1457  contract TokenSale {... */\n      mstore(0x40, 0x80)\n      jumpi(tag_1, lt(calldatasize, 0x04))\n      shr(0xe0, calldataload(0x00))\n      dup1\n      0x27e235e3\n      eq\n      tag_2\n      jumpi\n      dup1\n      0x6c11bcd3\n      eq\n      tag_3\n      jumpi\n      dup1\n      0x82b2e257\n      eq\n      tag_4\n      jumpi\n      dup1\n      0xa0ef91df\n      eq\n      tag_5\n      jumpi\n      dup1\n      0xd0febe4c\n      eq\n      tag_6\n      jumpi\n    tag_1:\n      0x00\n      dup1\n      revert\n        /* \"contracts/TokenSale.sol\":188:231  mapping(address => uint256) public balances */\n    tag_2:\n      callvalue\n      dup1\n      iszero\n      tag_7\n      jumpi\n      0x00\n      dup1\n      revert\n    tag_7:\n      pop\n      tag_8\n      0x04\n      dup1\n      calldatasize\n      sub\n      dup2\n      add\n      swap1\n      tag_9\n      swap2\n      swap1\n      tag_10\n      jump\t// in\n    tag_9:\n      tag_11\n      jump\t// in\n    tag_8:\n      mload(0x40)\n      tag_12\n      swap2\n      swap1\n      tag_13\n      jump\t// in\n    tag_12:\n      mload(0x40)\n      dup1\n      swap2\n      sub\n      swap1\n      return\n        /* \"contracts/TokenSale.sol\":607:991  function sellTokens(uint256 _amount) public payable {... */\n    tag_3:\n      tag_14\n      0x04\n      dup1\n      calldatasize\n      sub\n      dup2\n      add\n      swap1\n      tag_15\n      swap2\n      swap1\n      tag_16\n      jump\t// in\n    tag_15:\n      tag_17\n      jump\t// in\n    tag_14:\n      stop\n        /* \"contracts/TokenSale.sol\":999:1102  function getTokenBalance() public view returns (uint256) {... */\n    tag_4:\n      callvalue\n      dup1\n      iszero\n      tag_18\n      jumpi\n      0x00\n      dup1\n      revert\n    tag_18:\n      pop\n      tag_19\n      tag_20\n      jump\t// in\n    tag_19:\n      mload(0x40)\n      tag_21\n      swap2\n      swap1\n      tag_13\n      jump\t// in\n    tag_21:\n      mload(0x40)\n      dup1\n      swap2\n      sub\n      swap1\n      return\n        /* \"contracts/TokenSale.sol\":1110:1348  function withdrawEth() public payable onlyOwner {... */\n    tag_5:\n      tag_22\n      tag_23\n      jump\t// in\n    tag_22:\n      stop\n        /* \"contracts/TokenSale.sol\":332:599  function buyTokens() public payable {... */\n    tag_6:\n      tag_24\n      tag_25\n      jump\t// in\n    tag_24:\n      stop\n        /* \"contracts/TokenSale.sol\":188:231  mapping(address => uint256) public balances */\n    tag_11:\n      mstore(0x20, 0x01)\n      dup1\n      0x00\n      mstore\n      keccak256(0x00, 0x40)\n      0x00\n      swap2\n      pop\n      swap1\n      pop\n      sload\n      dup2\n      jump\t// out\n        /* \"contracts/TokenSale.sol\":607:991  function sellTokens(uint256 _amount) public payable {... */\n    tag_17:\n        /* \"contracts/TokenSale.sol\":690:698  balances */\n      0x01\n        /* \"contracts/TokenSale.sol\":690:710  balances[msg.sender] */\n      0x00\n        /* \"contracts/TokenSale.sol\":699:709  msg.sender */\n      caller\n        /* \"contracts/TokenSale.sol\":690:710  balances[msg.sender] */\n      0xffffffffffffffffffffffffffffffffffffffff\n      and\n      0xffffffffffffffffffffffffffffffffffffffff\n      and\n      dup2\n      mstore\n      0x20\n      add\n      swap1\n      dup2\n      mstore\n      0x20\n      add\n      0x00\n      keccak256\n      sload\n        /* \"contracts/TokenSale.sol\":679:686  _amount */\n      dup2\n        /* \"contracts/TokenSale.sol\":679:710  _amount <= balances[msg.sender] */\n      gt\n      iszero\n        /* \"contracts/TokenSale.sol\":670:711  require (_amount <= balances[msg.sender]) */\n      tag_27\n      jumpi\n      0x00\n      dup1\n      revert\n    tag_27:\n        /* \"contracts/TokenSale.sol\":752:773  address(this).balance */\n      selfbalance\n        /* \"contracts/TokenSale.sol\":139:144  30000 */\n      0x7530\n        /* \"contracts/TokenSale.sol\":731:738  _amount */\n      dup3\n        /* \"contracts/TokenSale.sol\":731:749  _amount*tokenPrice */\n      tag_28\n      swap2\n      swap1\n      tag_29\n      jump\t// in\n    tag_28:\n        /* \"contracts/TokenSale.sol\":731:773  _amount*tokenPrice < address(this).balance */\n      lt\n        /* \"contracts/TokenSale.sol\":722:774  require (_amount*tokenPrice < address(this).balance) */\n      tag_30\n      jumpi\n      0x00\n      dup1\n      revert\n    tag_30:\n        /* \"contracts/TokenSale.sol\":801:808  _amount */\n      dup1\n        /* \"contracts/TokenSale.sol\":785:797  tokenBalance */\n      0x00\n      dup1\n        /* \"contracts/TokenSale.sol\":785:808  tokenBalance += _amount */\n      dup3\n      dup3\n      sload\n      tag_31\n      swap2\n      swap1\n      tag_32\n      jump\t// in\n    tag_31:\n      swap3\n      pop\n      pop\n      dup2\n      swap1\n      sstore\n      pop\n        /* \"contracts/TokenSale.sol\":843:850  _amount */\n      dup1\n        /* \"contracts/TokenSale.sol\":819:827  balances */\n      0x01\n        /* \"contracts/TokenSale.sol\":819:839  balances[msg.sender] */\n      0x00\n        /* \"contracts/TokenSale.sol\":828:838  msg.sender */\n      caller\n        /* \"contracts/TokenSale.sol\":819:839  balances[msg.sender] */\n      0xffffffffffffffffffffffffffffffffffffffff\n      and\n      0xffffffffffffffffffffffffffffffffffffffff\n      and\n      dup2\n      mstore\n      0x20\n      add\n      swap1\n      dup2\n      mstore\n      0x20\n      add\n      0x00\n      keccak256\n      0x00\n        /* \"contracts/TokenSale.sol\":819:850  balances[msg.sender] -= _amount */\n      dup3\n      dup3\n      sload\n      tag_33\n      swap2\n      swap1\n      tag_34\n      jump\t// in\n    tag_33:\n      swap3\n      pop\n      pop\n      dup2\n      swap1\n      sstore\n      pop\n        /* \"contracts/TokenSale.sol\":862:878  bool callSuccess */\n      0x00\n        /* \"contracts/TokenSale.sol\":891:901  msg.sender */\n      caller\n        /* \"contracts/TokenSale.sol\":883:907  payable(msg.sender).call */\n      0xffffffffffffffffffffffffffffffffffffffff\n      and\n        /* \"contracts/TokenSale.sol\":139:144  30000 */\n      0x7530\n        /* \"contracts/TokenSale.sol\":914:921  _amount */\n      dup4\n        /* \"contracts/TokenSale.sol\":914:932  _amount*tokenPrice */\n      tag_35\n      swap2\n      swap1\n      tag_29\n      jump\t// in\n    tag_35:\n        /* \"contracts/TokenSale.sol\":883:937  payable(msg.sender).call{value:_amount*tokenPrice}(\"\") */\n      mload(0x40)\n      tag_36\n      swap1\n      tag_37\n      jump\t// in\n    tag_36:\n      0x00\n      mload(0x40)\n      dup1\n      dup4\n      sub\n      dup2\n      dup6\n      dup8\n      gas\n      call\n      swap3\n      pop\n      pop\n      pop\n      returndatasize\n      dup1\n      0x00\n      dup2\n      eq\n      tag_40\n      jumpi\n      mload(0x40)\n      swap2\n      pop\n      and(add(returndatasize, 0x3f), not(0x1f))\n      dup3\n      add\n      0x40\n      mstore\n      returndatasize\n      dup3\n      mstore\n      returndatasize\n      0x00\n      0x20\n      dup5\n      add\n      returndatacopy\n      jump(tag_39)\n    tag_40:\n      0x60\n      swap2\n      pop\n    tag_39:\n      pop\n        /* \"contracts/TokenSale.sol\":861:937  (bool callSuccess,) = payable(msg.sender).call{value:_amount*tokenPrice}(\"\") */\n      pop\n      swap1\n      pop\n        /* \"contracts/TokenSale.sol\":956:967  callSuccess */\n      dup1\n        /* \"contracts/TokenSale.sol\":948:983  require(callSuccess, \"Call failed\") */\n      tag_41\n      jumpi\n      mload(0x40)\n      0x08c379a000000000000000000000000000000000000000000000000000000000\n      dup2\n      mstore\n      0x04\n      add\n      tag_42\n      swap1\n      tag_43\n      jump\t// in\n    tag_42:\n      mload(0x40)\n      dup1\n      swap2\n      sub\n      swap1\n      revert\n    tag_41:\n        /* \"contracts/TokenSale.sol\":659:991  {... */\n      pop\n        /* \"contracts/TokenSale.sol\":607:991  function sellTokens(uint256 _amount) public payable {... */\n      pop\n      jump\t// out\n        /* \"contracts/TokenSale.sol\":999:1102  function getTokenBalance() public view returns (uint256) {... */\n    tag_20:\n        /* \"contracts/TokenSale.sol\":1047:1054  uint256 */\n      0x00\n        /* \"contracts/TokenSale.sol\":1074:1082  balances */\n      0x01\n        /* \"contracts/TokenSale.sol\":1074:1094  balances[msg.sender] */\n      0x00\n        /* \"contracts/TokenSale.sol\":1083:1093  msg.sender */\n      caller\n        /* \"contracts/TokenSale.sol\":1074:1094  balances[msg.sender] */\n      0xffffffffffffffffffffffffffffffffffffffff\n      and\n      0xffffffffffffffffffffffffffffffffffffffff\n      and\n      dup2\n      mstore\n      0x20\n      add\n      swap1\n      dup2\n      mstore\n      0x20\n      add\n      0x00\n      keccak256\n      sload\n        /* \"contracts/TokenSale.sol\":1067:1094  return balances[msg.sender] */\n      swap1\n      pop\n        /* \"contracts/TokenSale.sol\":999:1102  function getTokenBalance() public view returns (uint256) {... */\n      swap1\n      jump\t// out\n        /* \"contracts/TokenSale.sol\":1110:1348  function withdrawEth() public payable onlyOwner {... */\n    tag_23:\n        /* \"contracts/TokenSale.sol\":1404:1411  i_owner */\n      immutable(\"0x1d3be50b2bb17407dd170f1d5da128d1def30c6b1598d6a629e79b4775265526\")\n        /* \"contracts/TokenSale.sol\":1390:1411  msg.sender != i_owner */\n      0xffffffffffffffffffffffffffffffffffffffff\n      and\n        /* \"contracts/TokenSale.sol\":1390:1400  msg.sender */\n      caller\n        /* \"contracts/TokenSale.sol\":1390:1411  msg.sender != i_owner */\n      0xffffffffffffffffffffffffffffffffffffffff\n      and\n      eq\n        /* \"contracts/TokenSale.sol\":1386:1433  if (msg.sender != i_owner) {revert notOwner();} */\n      tag_46\n      jumpi\n        /* \"contracts/TokenSale.sol\":1421:1431  notOwner() */\n      mload(0x40)\n      0x251c9d6300000000000000000000000000000000000000000000000000000000\n      dup2\n      mstore\n      0x04\n      add\n      mload(0x40)\n      dup1\n      swap2\n      sub\n      swap1\n      revert\n        /* \"contracts/TokenSale.sol\":1386:1433  if (msg.sender != i_owner) {revert notOwner();} */\n    tag_46:\n        /* \"contracts/TokenSale.sol\":1202:1203  0 */\n      0x00\n        /* \"contracts/TokenSale.sol\":1178:1199  address(this).balance */\n      selfbalance\n        /* \"contracts/TokenSale.sol\":1178:1203  address(this).balance > 0 */\n      gt\n        /* \"contracts/TokenSale.sol\":1169:1204  require (address(this).balance > 0) */\n      tag_48\n      jumpi\n      0x00\n      dup1\n      revert\n    tag_48:\n        /* \"contracts/TokenSale.sol\":1216:1232  bool callSuccess */\n      0x00\n        /* \"contracts/TokenSale.sol\":1245:1255  msg.sender */\n      caller\n        /* \"contracts/TokenSale.sol\":1237:1261  payable(msg.sender).call */\n      0xffffffffffffffffffffffffffffffffffffffff\n      and\n        /* \"contracts/TokenSale.sol\":1268:1289  address(this).balance */\n      selfbalance\n        /* \"contracts/TokenSale.sol\":1237:1294  payable(msg.sender).call{value:address(this).balance}(\"\") */\n      mload(0x40)\n      tag_49\n      swap1\n      tag_37\n      jump\t// in\n    tag_49:\n      0x00\n      mload(0x40)\n      dup1\n      dup4\n      sub\n      dup2\n      dup6\n      dup8\n      gas\n      call\n      swap3\n      pop\n      pop\n      pop\n      returndatasize\n      dup1\n      0x00\n      dup2\n      eq\n      tag_52\n      jumpi\n      mload(0x40)\n      swap2\n      pop\n      and(add(returndatasize, 0x3f), not(0x1f))\n      dup3\n      add\n      0x40\n      mstore\n      returndatasize\n      dup3\n      mstore\n      returndatasize\n      0x00\n      0x20\n      dup5\n      add\n      returndatacopy\n      jump(tag_51)\n    tag_52:\n      0x60\n      swap2\n      pop\n    tag_51:\n      pop\n        /* \"contracts/TokenSale.sol\":1215:1294  (bool callSuccess,) = payable(msg.sender).call{value:address(this).balance}(\"\") */\n      pop\n      swap1\n      pop\n        /* \"contracts/TokenSale.sol\":1313:1324  callSuccess */\n      dup1\n        /* \"contracts/TokenSale.sol\":1305:1340  require(callSuccess, \"Call failed\") */\n      tag_53\n      jumpi\n      mload(0x40)\n      0x08c379a000000000000000000000000000000000000000000000000000000000\n      dup2\n      mstore\n      0x04\n      add\n      tag_54\n      swap1\n      tag_43\n      jump\t// in\n    tag_54:\n      mload(0x40)\n      dup1\n      swap2\n      sub\n      swap1\n      revert\n    tag_53:\n        /* \"contracts/TokenSale.sol\":1158:1348  {... */\n      pop\n        /* \"contracts/TokenSale.sol\":1110:1348  function withdrawEth() public payable onlyOwner {... */\n      jump\t// out\n        /* \"contracts/TokenSale.sol\":332:599  function buyTokens() public payable {... */\n    tag_25:\n        /* \"contracts/TokenSale.sol\":379:399  uint256 boughtTokens */\n      0x00\n        /* \"contracts/TokenSale.sol\":139:144  30000 */\n      0x7530\n        /* \"contracts/TokenSale.sol\":403:412  msg.value */\n      callvalue\n        /* \"contracts/TokenSale.sol\":402:426  (msg.value) / tokenPrice */\n      tag_56\n      swap2\n      swap1\n      tag_57\n      jump\t// in\n    tag_56:\n        /* \"contracts/TokenSale.sol\":379:426  uint256 boughtTokens = (msg.value) / tokenPrice */\n      swap1\n      pop\n        /* \"contracts/TokenSale.sol\":461:473  tokenBalance */\n      sload(0x00)\n        /* \"contracts/TokenSale.sol\":445:457  boughtTokens */\n      dup2\n        /* \"contracts/TokenSale.sol\":445:473  boughtTokens <= tokenBalance */\n      gt\n      iszero\n        /* \"contracts/TokenSale.sol\":437:505  require(boughtTokens <= tokenBalance, \"Not enough tokens available\") */\n      tag_58\n      jumpi\n      mload(0x40)\n      0x08c379a000000000000000000000000000000000000000000000000000000000\n      dup2\n      mstore\n      0x04\n      add\n      tag_59\n      swap1\n      tag_60\n      jump\t// in\n    tag_59:\n      mload(0x40)\n      dup1\n      swap2\n      sub\n      swap1\n      revert\n    tag_58:\n        /* \"contracts/TokenSale.sol\":532:544  boughtTokens */\n      dup1\n        /* \"contracts/TokenSale.sol\":516:528  tokenBalance */\n      0x00\n      dup1\n        /* \"contracts/TokenSale.sol\":516:544  tokenBalance -= boughtTokens */\n      dup3\n      dup3\n      sload\n      tag_61\n      swap2\n      swap1\n      tag_34\n      jump\t// in\n    tag_61:\n      swap3\n      pop\n      pop\n      dup2\n      swap1\n      sstore\n      pop\n        /* \"contracts/TokenSale.sol\":579:591  boughtTokens */\n      dup1\n        /* \"contracts/TokenSale.sol\":555:563  balances */\n      0x01\n        /* \"contracts/TokenSale.sol\":555:575  balances[msg.sender] */\n      0x00\n        /* \"contracts/TokenSale.sol\":564:574  msg.sender */\n      caller\n        /* \"contracts/TokenSale.sol\":555:575  balances[msg.sender] */\n      0xffffffffffffffffffffffffffffffffffffffff\n      and\n      0xffffffffffffffffffffffffffffffffffffffff\n      and\n      dup2\n      mstore\n      0x20\n      add\n      swap1\n      dup2\n      mstore\n      0x20\n      add\n      0x00\n      keccak256\n      0x00\n        /* \"contracts/TokenSale.sol\":555:591  balances[msg.sender] += boughtTokens */\n      dup3\n      dup3\n      sload\n      tag_62\n      swap2\n      swap1\n      tag_32\n      jump\t// in\n    tag_62:\n      swap3\n      pop\n      pop\n      dup2\n      swap1\n      sstore\n      pop\n        /* \"contracts/TokenSale.sol\":368:599  {... */\n      pop\n        /* \"contracts/TokenSale.sol\":332:599  function buyTokens() public payable {... */\n      jump\t// out\n        /* \"#utility.yul\":88:205   */\n    tag_64:\n        /* \"#utility.yul\":197:198   */\n      0x00\n        /* \"#utility.yul\":194:195   */\n      dup1\n        /* \"#utility.yul\":187:199   */\n      revert\n        /* \"#utility.yul\":334:460   */\n    tag_66:\n        /* \"#utility.yul\":371:378   */\n      0x00\n        /* \"#utility.yul\":411:453   */\n      0xffffffffffffffffffffffffffffffffffffffff\n        /* \"#utility.yul\":404:409   */\n      dup3\n        /* \"#utility.yul\":400:454   */\n      and\n        /* \"#utility.yul\":389:454   */\n      swap1\n      pop\n        /* \"#utility.yul\":334:460   */\n      swap2\n      swap1\n      pop\n      jump\t// out\n        /* \"#utility.yul\":466:562   */\n    tag_67:\n        /* \"#utility.yul\":503:510   */\n      0x00\n        /* \"#utility.yul\":532:556   */\n      tag_90\n        /* \"#utility.yul\":550:555   */\n      dup3\n        /* \"#utility.yul\":532:556   */\n      tag_66\n      jump\t// in\n    tag_90:\n        /* \"#utility.yul\":521:556   */\n      swap1\n      pop\n        /* \"#utility.yul\":466:562   */\n      swap2\n      swap1\n      pop\n      jump\t// out\n        /* \"#utility.yul\":568:690   */\n    tag_68:\n        /* \"#utility.yul\":641:665   */\n      tag_92\n        /* \"#utility.yul\":659:664   */\n      dup2\n        /* \"#utility.yul\":641:665   */\n      tag_67\n      jump\t// in\n    tag_92:\n        /* \"#utility.yul\":634:639   */\n      dup2\n        /* \"#utility.yul\":631:666   */\n      eq\n        /* \"#utility.yul\":621:684   */\n      tag_93\n      jumpi\n        /* \"#utility.yul\":680:681   */\n      0x00\n        /* \"#utility.yul\":677:678   */\n      dup1\n        /* \"#utility.yul\":670:682   */\n      revert\n        /* \"#utility.yul\":621:684   */\n    tag_93:\n        /* \"#utility.yul\":568:690   */\n      pop\n      jump\t// out\n        /* \"#utility.yul\":696:835   */\n    tag_69:\n        /* \"#utility.yul\":742:747   */\n      0x00\n        /* \"#utility.yul\":780:786   */\n      dup2\n        /* \"#utility.yul\":767:787   */\n      calldataload\n        /* \"#utility.yul\":758:787   */\n      swap1\n      pop\n        /* \"#utility.yul\":796:829   */\n      tag_95\n        /* \"#utility.yul\":823:828   */\n      dup2\n        /* \"#utility.yul\":796:829   */\n      tag_68\n      jump\t// in\n    tag_95:\n        /* \"#utility.yul\":696:835   */\n      swap3\n      swap2\n      pop\n      pop\n      jump\t// out\n        /* \"#utility.yul\":841:1170   */\n    tag_10:\n        /* \"#utility.yul\":900:906   */\n      0x00\n        /* \"#utility.yul\":949:951   */\n      0x20\n        /* \"#utility.yul\":937:946   */\n      dup3\n        /* \"#utility.yul\":928:935   */\n      dup5\n        /* \"#utility.yul\":924:947   */\n      sub\n        /* \"#utility.yul\":920:952   */\n      slt\n        /* \"#utility.yul\":917:1036   */\n      iszero\n      tag_97\n      jumpi\n        /* \"#utility.yul\":955:1034   */\n      tag_98\n      tag_64\n      jump\t// in\n    tag_98:\n        /* \"#utility.yul\":917:1036   */\n    tag_97:\n        /* \"#utility.yul\":1075:1076   */\n      0x00\n        /* \"#utility.yul\":1100:1153   */\n      tag_99\n        /* \"#utility.yul\":1145:1152   */\n      dup5\n        /* \"#utility.yul\":1136:1142   */\n      dup3\n        /* \"#utility.yul\":1125:1134   */\n      dup6\n        /* \"#utility.yul\":1121:1143   */\n      add\n        /* \"#utility.yul\":1100:1153   */\n      tag_69\n      jump\t// in\n    tag_99:\n        /* \"#utility.yul\":1090:1153   */\n      swap2\n      pop\n        /* \"#utility.yul\":1046:1163   */\n      pop\n        /* \"#utility.yul\":841:1170   */\n      swap3\n      swap2\n      pop\n      pop\n      jump\t// out\n        /* \"#utility.yul\":1176:1253   */\n    tag_70:\n        /* \"#utility.yul\":1213:1220   */\n      0x00\n        /* \"#utility.yul\":1242:1247   */\n      dup2\n        /* \"#utility.yul\":1231:1247   */\n      swap1\n      pop\n        /* \"#utility.yul\":1176:1253   */\n      swap2\n      swap1\n      pop\n      jump\t// out\n        /* \"#utility.yul\":1259:1377   */\n    tag_71:\n        /* \"#utility.yul\":1346:1370   */\n      tag_102\n        /* \"#utility.yul\":1364:1369   */\n      dup2\n        /* \"#utility.yul\":1346:1370   */\n      tag_70\n      jump\t// in\n    tag_102:\n        /* \"#utility.yul\":1341:1344   */\n      dup3\n        /* \"#utility.yul\":1334:1371   */\n      mstore\n        /* \"#utility.yul\":1259:1377   */\n      pop\n      pop\n      jump\t// out\n        /* \"#utility.yul\":1383:1605   */\n    tag_13:\n        /* \"#utility.yul\":1476:1480   */\n      0x00\n        /* \"#utility.yul\":1514:1516   */\n      0x20\n        /* \"#utility.yul\":1503:1512   */\n      dup3\n        /* \"#utility.yul\":1499:1517   */\n      add\n        /* \"#utility.yul\":1491:1517   */\n      swap1\n      pop\n        /* \"#utility.yul\":1527:1598   */\n      tag_104\n        /* \"#utility.yul\":1595:1596   */\n      0x00\n        /* \"#utility.yul\":1584:1593   */\n      dup4\n        /* \"#utility.yul\":1580:1597   */\n      add\n        /* \"#utility.yul\":1571:1577   */\n      dup5\n        /* \"#utility.yul\":1527:1598   */\n      tag_71\n      jump\t// in\n    tag_104:\n        /* \"#utility.yul\":1383:1605   */\n      swap3\n      swap2\n      pop\n      pop\n      jump\t// out\n        /* \"#utility.yul\":1611:1733   */\n    tag_72:\n        /* \"#utility.yul\":1684:1708   */\n      tag_106\n        /* \"#utility.yul\":1702:1707   */\n      dup2\n        /* \"#utility.yul\":1684:1708   */\n      tag_70\n      jump\t// in\n    tag_106:\n        /* \"#utility.yul\":1677:1682   */\n      dup2\n        /* \"#utility.yul\":1674:1709   */\n      eq\n        /* \"#utility.yul\":1664:1727   */\n      tag_107\n      jumpi\n        /* \"#utility.yul\":1723:1724   */\n      0x00\n        /* \"#utility.yul\":1720:1721   */\n      dup1\n        /* \"#utility.yul\":1713:1725   */\n      revert\n        /* \"#utility.yul\":1664:1727   */\n    tag_107:\n        /* \"#utility.yul\":1611:1733   */\n      pop\n      jump\t// out\n        /* \"#utility.yul\":1739:1878   */\n    tag_73:\n        /* \"#utility.yul\":1785:1790   */\n      0x00\n        /* \"#utility.yul\":1823:1829   */\n      dup2\n        /* \"#utility.yul\":1810:1830   */\n      calldataload\n        /* \"#utility.yul\":1801:1830   */\n      swap1\n      pop\n        /* \"#utility.yul\":1839:1872   */\n      tag_109\n        /* \"#utility.yul\":1866:1871   */\n      dup2\n        /* \"#utility.yul\":1839:1872   */\n      tag_72\n      jump\t// in\n    tag_109:\n        /* \"#utility.yul\":1739:1878   */\n      swap3\n      swap2\n      pop\n      pop\n      jump\t// out\n        /* \"#utility.yul\":1884:2213   */\n    tag_16:\n        /* \"#utility.yul\":1943:1949   */\n      0x00\n        /* \"#utility.yul\":1992:1994   */\n      0x20\n        /* \"#utility.yul\":1980:1989   */\n      dup3\n        /* \"#utility.yul\":1971:1978   */\n      dup5\n        /* \"#utility.yul\":1967:1990   */\n      sub\n        /* \"#utility.yul\":1963:1995   */\n      slt\n        /* \"#utility.yul\":1960:2079   */\n      iszero\n      tag_111\n      jumpi\n        /* \"#utility.yul\":1998:2077   */\n      tag_112\n      tag_64\n      jump\t// in\n    tag_112:\n        /* \"#utility.yul\":1960:2079   */\n    tag_111:\n        /* \"#utility.yul\":2118:2119   */\n      0x00\n        /* \"#utility.yul\":2143:2196   */\n      tag_113\n        /* \"#utility.yul\":2188:2195   */\n      dup5\n        /* \"#utility.yul\":2179:2185   */\n      dup3\n        /* \"#utility.yul\":2168:2177   */\n      dup6\n        /* \"#utility.yul\":2164:2186   */\n      add\n        /* \"#utility.yul\":2143:2196   */\n      tag_73\n      jump\t// in\n    tag_113:\n        /* \"#utility.yul\":2133:2196   */\n      swap2\n      pop\n        /* \"#utility.yul\":2089:2206   */\n      pop\n        /* \"#utility.yul\":1884:2213   */\n      swap3\n      swap2\n      pop\n      pop\n      jump\t// out\n        /* \"#utility.yul\":2219:2399   */\n    tag_74:\n        /* \"#utility.yul\":2267:2344   */\n      0x4e487b7100000000000000000000000000000000000000000000000000000000\n        /* \"#utility.yul\":2264:2265   */\n      0x00\n        /* \"#utility.yul\":2257:2345   */\n      mstore\n        /* \"#utility.yul\":2364:2368   */\n      0x11\n        /* \"#utility.yul\":2361:2362   */\n      0x04\n        /* \"#utility.yul\":2354:2369   */\n      mstore\n        /* \"#utility.yul\":2388:2392   */\n      0x24\n        /* \"#utility.yul\":2385:2386   */\n      0x00\n        /* \"#utility.yul\":2378:2393   */\n      revert\n        /* \"#utility.yul\":2405:2815   */\n    tag_29:\n        /* \"#utility.yul\":2445:2452   */\n      0x00\n        /* \"#utility.yul\":2468:2488   */\n      tag_116\n        /* \"#utility.yul\":2486:2487   */\n      dup3\n        /* \"#utility.yul\":2468:2488   */\n      tag_70\n      jump\t// in\n    tag_116:\n        /* \"#utility.yul\":2463:2488   */\n      swap2\n      pop\n        /* \"#utility.yul\":2502:2522   */\n      tag_117\n        /* \"#utility.yul\":2520:2521   */\n      dup4\n        /* \"#utility.yul\":2502:2522   */\n      tag_70\n      jump\t// in\n    tag_117:\n        /* \"#utility.yul\":2497:2522   */\n      swap3\n      pop\n        /* \"#utility.yul\":2557:2558   */\n      dup3\n        /* \"#utility.yul\":2554:2555   */\n      dup3\n        /* \"#utility.yul\":2550:2559   */\n      mul\n        /* \"#utility.yul\":2579:2609   */\n      tag_118\n        /* \"#utility.yul\":2597:2608   */\n      dup2\n        /* \"#utility.yul\":2579:2609   */\n      tag_70\n      jump\t// in\n    tag_118:\n        /* \"#utility.yul\":2568:2609   */\n      swap2\n      pop\n        /* \"#utility.yul\":2758:2759   */\n      dup3\n        /* \"#utility.yul\":2749:2756   */\n      dup3\n        /* \"#utility.yul\":2745:2760   */\n      div\n        /* \"#utility.yul\":2742:2743   */\n      dup5\n        /* \"#utility.yul\":2739:2761   */\n      eq\n        /* \"#utility.yul\":2719:2720   */\n      dup4\n        /* \"#utility.yul\":2712:2721   */\n      iszero\n        /* \"#utility.yul\":2692:2775   */\n      or\n        /* \"#utility.yul\":2669:2808   */\n      tag_119\n      jumpi\n        /* \"#utility.yul\":2788:2806   */\n      tag_120\n      tag_74\n      jump\t// in\n    tag_120:\n        /* \"#utility.yul\":2669:2808   */\n    tag_119:\n        /* \"#utility.yul\":2453:2815   */\n      pop\n        /* \"#utility.yul\":2405:2815   */\n      swap3\n      swap2\n      pop\n      pop\n      jump\t// out\n        /* \"#utility.yul\":2821:3012   */\n    tag_32:\n        /* \"#utility.yul\":2861:2864   */\n      0x00\n        /* \"#utility.yul\":2880:2900   */\n      tag_122\n        /* \"#utility.yul\":2898:2899   */\n      dup3\n        /* \"#utility.yul\":2880:2900   */\n      tag_70\n      jump\t// in\n    tag_122:\n        /* \"#utility.yul\":2875:2900   */\n      swap2\n      pop\n        /* \"#utility.yul\":2914:2934   */\n      tag_123\n        /* \"#utility.yul\":2932:2933   */\n      dup4\n        /* \"#utility.yul\":2914:2934   */\n      tag_70\n      jump\t// in\n    tag_123:\n        /* \"#utility.yul\":2909:2934   */\n      swap3\n      pop\n        /* \"#utility.yul\":2957:2958   */\n      dup3\n        /* \"#utility.yul\":2954:2955   */\n      dup3\n        /* \"#utility.yul\":2950:2959   */\n      add\n        /* \"#utility.yul\":2943:2959   */\n      swap1\n      pop\n        /* \"#utility.yul\":2978:2981   */\n      dup1\n        /* \"#utility.yul\":2975:2976   */\n      dup3\n        /* \"#utility.yul\":2972:2982   */\n      gt\n        /* \"#utility.yul\":2969:3005   */\n      iszero\n      tag_124\n      jumpi\n        /* \"#utility.yul\":2985:3003   */\n      tag_125\n      tag_74\n      jump\t// in\n    tag_125:\n        /* \"#utility.yul\":2969:3005   */\n    tag_124:\n        /* \"#utility.yul\":2821:3012   */\n      swap3\n      swap2\n      pop\n      pop\n      jump\t// out\n        /* \"#utility.yul\":3018:3212   */\n    tag_34:\n        /* \"#utility.yul\":3058:3062   */\n      0x00\n        /* \"#utility.yul\":3078:3098   */\n      tag_127\n        /* \"#utility.yul\":3096:3097   */\n      dup3\n        /* \"#utility.yul\":3078:3098   */\n      tag_70\n      jump\t// in\n    tag_127:\n        /* \"#utility.yul\":3073:3098   */\n      swap2\n      pop\n        /* \"#utility.yul\":3112:3132   */\n      tag_128\n        /* \"#utility.yul\":3130:3131   */\n      dup4\n        /* \"#utility.yul\":3112:3132   */\n      tag_70\n      jump\t// in\n    tag_128:\n        /* \"#utility.yul\":3107:3132   */\n      swap3\n      pop\n        /* \"#utility.yul\":3156:3157   */\n      dup3\n        /* \"#utility.yul\":3153:3154   */\n      dup3\n        /* \"#utility.yul\":3149:3158   */\n      sub\n        /* \"#utility.yul\":3141:3158   */\n      swap1\n      pop\n        /* \"#utility.yul\":3180:3181   */\n      dup2\n        /* \"#utility.yul\":3174:3178   */\n      dup2\n        /* \"#utility.yul\":3171:3182   */\n      gt\n        /* \"#utility.yul\":3168:3205   */\n      iszero\n      tag_129\n      jumpi\n        /* \"#utility.yul\":3185:3203   */\n      tag_130\n      tag_74\n      jump\t// in\n    tag_130:\n        /* \"#utility.yul\":3168:3205   */\n    tag_129:\n        /* \"#utility.yul\":3018:3212   */\n      swap3\n      swap2\n      pop\n      pop\n      jump\t// out\n        /* \"#utility.yul\":3218:3365   */\n    tag_75:\n        /* \"#utility.yul\":3319:3330   */\n      0x00\n        /* \"#utility.yul\":3356:3359   */\n      dup2\n        /* \"#utility.yul\":3341:3359   */\n      swap1\n      pop\n        /* \"#utility.yul\":3218:3365   */\n      swap3\n      swap2\n      pop\n      pop\n      jump\t// out\n        /* \"#utility.yul\":3371:3485   */\n    tag_76:\n      pop\n      jump\t// out\n        /* \"#utility.yul\":3491:3889   */\n    tag_77:\n        /* \"#utility.yul\":3650:3653   */\n      0x00\n        /* \"#utility.yul\":3671:3754   */\n      tag_134\n        /* \"#utility.yul\":3752:3753   */\n      0x00\n        /* \"#utility.yul\":3747:3750   */\n      dup4\n        /* \"#utility.yul\":3671:3754   */\n      tag_75\n      jump\t// in\n    tag_134:\n        /* \"#utility.yul\":3664:3754   */\n      swap2\n      pop\n        /* \"#utility.yul\":3763:3856   */\n      tag_135\n        /* \"#utility.yul\":3852:3855   */\n      dup3\n        /* \"#utility.yul\":3763:3856   */\n      tag_76\n      jump\t// in\n    tag_135:\n        /* \"#utility.yul\":3881:3882   */\n      0x00\n        /* \"#utility.yul\":3876:3879   */\n      dup3\n        /* \"#utility.yul\":3872:3883   */\n      add\n        /* \"#utility.yul\":3865:3883   */\n      swap1\n      pop\n        /* \"#utility.yul\":3491:3889   */\n      swap2\n      swap1\n      pop\n      jump\t// out\n        /* \"#utility.yul\":3895:4274   */\n    tag_37:\n        /* \"#utility.yul\":4079:4082   */\n      0x00\n        /* \"#utility.yul\":4101:4248   */\n      tag_137\n        /* \"#utility.yul\":4244:4247   */\n      dup3\n        /* \"#utility.yul\":4101:4248   */\n      tag_77\n      jump\t// in\n    tag_137:\n        /* \"#utility.yul\":4094:4248   */\n      swap2\n      pop\n        /* \"#utility.yul\":4265:4268   */\n      dup2\n        /* \"#utility.yul\":4258:4268   */\n      swap1\n      pop\n        /* \"#utility.yul\":3895:4274   */\n      swap2\n      swap1\n      pop\n      jump\t// out\n        /* \"#utility.yul\":4280:4449   */\n    tag_78:\n        /* \"#utility.yul\":4364:4375   */\n      0x00\n        /* \"#utility.yul\":4398:4404   */\n      dup3\n        /* \"#utility.yul\":4393:4396   */\n      dup3\n        /* \"#utility.yul\":4386:4405   */\n      mstore\n        /* \"#utility.yul\":4438:4442   */\n      0x20\n        /* \"#utility.yul\":4433:4436   */\n      dup3\n        /* \"#utility.yul\":4429:4443   */\n      add\n        /* \"#utility.yul\":4414:4443   */\n      swap1\n      pop\n        /* \"#utility.yul\":4280:4449   */\n      swap3\n      swap2\n      pop\n      pop\n      jump\t// out\n        /* \"#utility.yul\":4455:4616   */\n    tag_79:\n        /* \"#utility.yul\":4595:4608   */\n      0x43616c6c206661696c6564000000000000000000000000000000000000000000\n        /* \"#utility.yul\":4591:4592   */\n      0x00\n        /* \"#utility.yul\":4583:4589   */\n      dup3\n        /* \"#utility.yul\":4579:4593   */\n      add\n        /* \"#utility.yul\":4572:4609   */\n      mstore\n        /* \"#utility.yul\":4455:4616   */\n      pop\n      jump\t// out\n        /* \"#utility.yul\":4622:4988   */\n    tag_80:\n        /* \"#utility.yul\":4764:4767   */\n      0x00\n        /* \"#utility.yul\":4785:4852   */\n      tag_141\n        /* \"#utility.yul\":4849:4851   */\n      0x0b\n        /* \"#utility.yul\":4844:4847   */\n      dup4\n        /* \"#utility.yul\":4785:4852   */\n      tag_78\n      jump\t// in\n    tag_141:\n        /* \"#utility.yul\":4778:4852   */\n      swap2\n      pop\n        /* \"#utility.yul\":4861:4954   */\n      tag_142\n        /* \"#utility.yul\":4950:4953   */\n      dup3\n        /* \"#utility.yul\":4861:4954   */\n      tag_79\n      jump\t// in\n    tag_142:\n        /* \"#utility.yul\":4979:4981   */\n      0x20\n        /* \"#utility.yul\":4974:4977   */\n      dup3\n        /* \"#utility.yul\":4970:4982   */\n      add\n        /* \"#utility.yul\":4963:4982   */\n      swap1\n      pop\n        /* \"#utility.yul\":4622:4988   */\n      swap2\n      swap1\n      pop\n      jump\t// out\n        /* \"#utility.yul\":4994:5413   */\n    tag_43:\n        /* \"#utility.yul\":5160:5164   */\n      0x00\n        /* \"#utility.yul\":5198:5200   */\n      0x20\n        /* \"#utility.yul\":5187:5196   */\n      dup3\n        /* \"#utility.yul\":5183:5201   */\n      add\n        /* \"#utility.yul\":5175:5201   */\n      swap1\n      pop\n        /* \"#utility.yul\":5247:5256   */\n      dup2\n        /* \"#utility.yul\":5241:5245   */\n      dup2\n        /* \"#utility.yul\":5237:5257   */\n      sub\n        /* \"#utility.yul\":5233:5234   */\n      0x00\n        /* \"#utility.yul\":5222:5231   */\n      dup4\n        /* \"#utility.yul\":5218:5235   */\n      add\n        /* \"#utility.yul\":5211:5258   */\n      mstore\n        /* \"#utility.yul\":5275:5406   */\n      tag_144\n        /* \"#utility.yul\":5401:5405   */\n      dup2\n        /* \"#utility.yul\":5275:5406   */\n      tag_80\n      jump\t// in\n    tag_144:\n        /* \"#utility.yul\":5267:5406   */\n      swap1\n      pop\n        /* \"#utility.yul\":4994:5413   */\n      swap2\n      swap1\n      pop\n      jump\t// out\n        /* \"#utility.yul\":5419:5599   */\n    tag_81:\n        /* \"#utility.yul\":5467:5544   */\n      0x4e487b7100000000000000000000000000000000000000000000000000000000\n        /* \"#utility.yul\":5464:5465   */\n      0x00\n        /* \"#utility.yul\":5457:5545   */\n      mstore\n        /* \"#utility.yul\":5564:5568   */\n      0x12\n        /* \"#utility.yul\":5561:5562   */\n      0x04\n        /* \"#utility.yul\":5554:5569   */\n      mstore\n        /* \"#utility.yul\":5588:5592   */\n      0x24\n        /* \"#utility.yul\":5585:5586   */\n      0x00\n        /* \"#utility.yul\":5578:5593   */\n      revert\n        /* \"#utility.yul\":5605:5790   */\n    tag_57:\n        /* \"#utility.yul\":5645:5646   */\n      0x00\n        /* \"#utility.yul\":5662:5682   */\n      tag_147\n        /* \"#utility.yul\":5680:5681   */\n      dup3\n        /* \"#utility.yul\":5662:5682   */\n      tag_70\n      jump\t// in\n    tag_147:\n        /* \"#utility.yul\":5657:5682   */\n      swap2\n      pop\n        /* \"#utility.yul\":5696:5716   */\n      tag_148\n        /* \"#utility.yul\":5714:5715   */\n      dup4\n        /* \"#utility.yul\":5696:5716   */\n      tag_70\n      jump\t// in\n    tag_148:\n        /* \"#utility.yul\":5691:5716   */\n      swap3\n      pop\n        /* \"#utility.yul\":5735:5736   */\n      dup3\n        /* \"#utility.yul\":5725:5760   */\n      tag_149\n      jumpi\n        /* \"#utility.yul\":5740:5758   */\n      tag_150\n      tag_81\n      jump\t// in\n    tag_150:\n        /* \"#utility.yul\":5725:5760   */\n    tag_149:\n        /* \"#utility.yul\":5782:5783   */\n      dup3\n        /* \"#utility.yul\":5779:5780   */\n      dup3\n        /* \"#utility.yul\":5775:5784   */\n      div\n        /* \"#utility.yul\":5770:5784   */\n      swap1\n      pop\n        /* \"#utility.yul\":5605:5790   */\n      swap3\n      swap2\n      pop\n      pop\n      jump\t// out\n        /* \"#utility.yul\":5796:5973   */\n    tag_82:\n        /* \"#utility.yul\":5936:5965   */\n      0x4e6f7420656e6f75676820746f6b656e7320617661696c61626c650000000000\n        /* \"#utility.yul\":5932:5933   */\n      0x00\n        /* \"#utility.yul\":5924:5930   */\n      dup3\n        /* \"#utility.yul\":5920:5934   */\n      add\n        /* \"#utility.yul\":5913:5966   */\n      mstore\n        /* \"#utility.yul\":5796:5973   */\n      pop\n      jump\t// out\n        /* \"#utility.yul\":5979:6345   */\n    tag_83:\n        /* \"#utility.yul\":6121:6124   */\n      0x00\n        /* \"#utility.yul\":6142:6209   */\n      tag_153\n        /* \"#utility.yul\":6206:6208   */\n      0x1b\n        /* \"#utility.yul\":6201:6204   */\n      dup4\n        /* \"#utility.yul\":6142:6209   */\n      tag_78\n      jump\t// in\n    tag_153:\n        /* \"#utility.yul\":6135:6209   */\n      swap2\n      pop\n        /* \"#utility.yul\":6218:6311   */\n      tag_154\n        /* \"#utility.yul\":6307:6310   */\n      dup3\n        /* \"#utility.yul\":6218:6311   */\n      tag_82\n      jump\t// in\n    tag_154:\n        /* \"#utility.yul\":6336:6338   */\n      0x20\n        /* \"#utility.yul\":6331:6334   */\n      dup3\n        /* \"#utility.yul\":6327:6339   */\n      add\n        /* \"#utility.yul\":6320:6339   */\n      swap1\n      pop\n        /* \"#utility.yul\":5979:6345   */\n      swap2\n      swap1\n      pop\n      jump\t// out\n        /* \"#utility.yul\":6351:6770   */\n    tag_60:\n        /* \"#utility.yul\":6517:6521   */\n      0x00\n        /* \"#utility.yul\":6555:6557   */\n      0x20\n        /* \"#utility.yul\":6544:6553   */\n      dup3\n        /* \"#utility.yul\":6540:6558   */\n      add\n        /* \"#utility.yul\":6532:6558   */\n      swap1\n      pop\n        /* \"#utility.yul\":6604:6613   */\n      dup2\n        /* \"#utility.yul\":6598:6602   */\n      dup2\n        /* \"#utility.yul\":6594:6614   */\n      sub\n        /* \"#utility.yul\":6590:6591   */\n      0x00\n        /* \"#utility.yul\":6579:6588   */\n      dup4\n        /* \"#utility.yul\":6575:6592   */\n      add\n        /* \"#utility.yul\":6568:6615   */\n      mstore\n        /* \"#utility.yul\":6632:6763   */\n      tag_156\n        /* \"#utility.yul\":6758:6762   */\n      dup2\n        /* \"#utility.yul\":6632:6763   */\n      tag_83\n      jump\t// in\n    tag_156:\n        /* \"#utility.yul\":6624:6763   */\n      swap1\n      pop\n        /* \"#utility.yul\":6351:6770   */\n      swap2\n      swap1\n      pop\n      jump\t// out\n\n    auxdata: 0xa2646970667358221220c038708dc043774d9b42a42599b7c83e6ee4ab8c2c2e918e6d0def0d115c266564736f6c63430008150033\n}\n",
				"bytecode": {
					"linkReferences": {},
					"object": "60a0604052620f42405f55348015610015575f80fd5b503373ffffffffffffffffffffffffffffffffffffffff1660808173ffffffffffffffffffffffffffffffffffffffff16815250506080516108546100625f395f6102c201526108545ff3fe608060405260043610610049575f3560e01c806327e235e31461004d5780636c11bcd31461008957806382b2e257146100a5578063a0ef91df146100cf578063d0febe4c146100d9575b5f80fd5b348015610058575f80fd5b50610073600480360381019061006e919061051b565b6100e3565b604051610080919061055e565b60405180910390f35b6100a3600480360381019061009e91906105a1565b6100f8565b005b3480156100b0575f80fd5b506100b961027c565b6040516100c6919061055e565b60405180910390f35b6100d76102c0565b005b6100e16103fb565b005b6001602052805f5260405f205f915090505481565b60015f3373ffffffffffffffffffffffffffffffffffffffff1673ffffffffffffffffffffffffffffffffffffffff1681526020019081526020015f2054811115610141575f80fd5b476175308261015091906105f9565b10610159575f80fd5b805f80828254610169919061063a565b925050819055508060015f3373ffffffffffffffffffffffffffffffffffffffff1673ffffffffffffffffffffffffffffffffffffffff1681526020019081526020015f205f8282546101bc919061066d565b925050819055505f3373ffffffffffffffffffffffffffffffffffffffff16617530836101e991906105f9565b6040516101f5906106cd565b5f6040518083038185875af1925050503d805f811461022f576040519150601f19603f3d011682016040523d82523d5f602084013e610234565b606091505b5050905080610278576040517f08c379a000000000000000000000000000000000000000000000000000000000815260040161026f9061073b565b60405180910390fd5b5050565b5f60015f3373ffffffffffffffffffffffffffffffffffffffff1673ffffffffffffffffffffffffffffffffffffffff1681526020019081526020015f2054905090565b7f000000000000000000000000000000000000000000000000000000000000000073ffffffffffffffffffffffffffffffffffffffff163373ffffffffffffffffffffffffffffffffffffffff1614610345576040517f251c9d6300000000000000000000000000000000000000000000000000000000815260040160405180910390fd5b5f4711610350575f80fd5b5f3373ffffffffffffffffffffffffffffffffffffffff1647604051610375906106cd565b5f6040518083038185875af1925050503d805f81146103af576040519150601f19603f3d011682016040523d82523d5f602084013e6103b4565b606091505b50509050806103f8576040517f08c379a00000000000000000000000000000000000000000000000000000000081526004016103ef9061073b565b60405180910390fd5b50565b5f6175303461040a9190610786565b90505f54811115610450576040517f08c379a000000000000000000000000000000000000000000000000000000000815260040161044790610800565b60405180910390fd5b805f80828254610460919061066d565b925050819055508060015f3373ffffffffffffffffffffffffffffffffffffffff1673ffffffffffffffffffffffffffffffffffffffff1681526020019081526020015f205f8282546104b3919061063a565b9250508190555050565b5f80fd5b5f73ffffffffffffffffffffffffffffffffffffffff82169050919050565b5f6104ea826104c1565b9050919050565b6104fa816104e0565b8114610504575f80fd5b50565b5f81359050610515816104f1565b92915050565b5f602082840312156105305761052f6104bd565b5b5f61053d84828501610507565b91505092915050565b5f819050919050565b61055881610546565b82525050565b5f6020820190506105715f83018461054f565b92915050565b61058081610546565b811461058a575f80fd5b50565b5f8135905061059b81610577565b92915050565b5f602082840312156105b6576105b56104bd565b5b5f6105c38482850161058d565b91505092915050565b7f4e487b71000000000000000000000000000000000000000000000000000000005f52601160045260245ffd5b5f61060382610546565b915061060e83610546565b925082820261061c81610546565b91508282048414831517610633576106326105cc565b5b5092915050565b5f61064482610546565b915061064f83610546565b9250828201905080821115610667576106666105cc565b5b92915050565b5f61067782610546565b915061068283610546565b925082820390508181111561069a576106996105cc565b5b92915050565b5f81905092915050565b50565b5f6106b85f836106a0565b91506106c3826106aa565b5f82019050919050565b5f6106d7826106ad565b9150819050919050565b5f82825260208201905092915050565b7f43616c6c206661696c65640000000000000000000000000000000000000000005f82015250565b5f610725600b836106e1565b9150610730826106f1565b602082019050919050565b5f6020820190508181035f83015261075281610719565b9050919050565b7f4e487b71000000000000000000000000000000000000000000000000000000005f52601260045260245ffd5b5f61079082610546565b915061079b83610546565b9250826107ab576107aa610759565b5b828204905092915050565b7f4e6f7420656e6f75676820746f6b656e7320617661696c61626c6500000000005f82015250565b5f6107ea601b836106e1565b91506107f5826107b6565b602082019050919050565b5f6020820190508181035f830152610817816107de565b905091905056fea2646970667358221220c038708dc043774d9b42a42599b7c83e6ee4ab8c2c2e918e6d0def0d115c266564736f6c63430008150033",
					"opcodes": "PUSH1 0xA0 PUSH1 0x40 MSTORE PUSH3 0xF4240 PUSH0 SSTORE CALLVALUE DUP1 ISZERO PUSH2 0x15 JUMPI PUSH0 DUP1 REVERT JUMPDEST POP CALLER PUSH20 0xFFFFFFFFFFFFFFFFFFFFFFFFFFFFFFFFFFFFFFFF AND PUSH1 0x80 DUP2 PUSH20 0xFFFFFFFFFFFFFFFFFFFFFFFFFFFFFFFFFFFFFFFF AND DUP2 MSTORE POP POP PUSH1 0x80 MLOAD PUSH2 0x854 PUSH2 0x62 PUSH0 CODECOPY PUSH0 PUSH2 0x2C2 ADD MSTORE PUSH2 0x854 PUSH0 RETURN INVALID PUSH1 0x80 PUSH1 0x40 MSTORE PUSH1 0x4 CALLDATASIZE LT PUSH2 0x49 JUMPI PUSH0 CALLDATALOAD PUSH1 0xE0 SHR DUP1 PUSH4 0x27E235E3 EQ PUSH2 0x4D JUMPI DUP1 PUSH4 0x6C11BCD3 EQ PUSH2 0x89 JUMPI DUP1 PUSH4 0x82B2E257 EQ PUSH2 0xA5 JUMPI DUP1 PUSH4 0xA0EF91DF EQ PUSH2 0xCF JUMPI DUP1 PUSH4 0xD0FEBE4C EQ PUSH2 0xD9 JUMPI JUMPDEST PUSH0 DUP1 REVERT JUMPDEST CALLVALUE DUP1 ISZERO PUSH2 0x58 JUMPI PUSH0 DUP1 REVERT JUMPDEST POP PUSH2 0x73 PUSH1 0x4 DUP1 CALLDATASIZE SUB DUP2 ADD SWAP1 PUSH2 0x6E SWAP2 SWAP1 PUSH2 0x51B JUMP JUMPDEST PUSH2 0xE3 JUMP JUMPDEST PUSH1 0x40 MLOAD PUSH2 0x80 SWAP2 SWAP1 PUSH2 0x55E JUMP JUMPDEST PUSH1 0x40 MLOAD DUP1 SWAP2 SUB SWAP1 RETURN JUMPDEST PUSH2 0xA3 PUSH1 0x4 DUP1 CALLDATASIZE SUB DUP2 ADD SWAP1 PUSH2 0x9E SWAP2 SWAP1 PUSH2 0x5A1 JUMP JUMPDEST PUSH2 0xF8 JUMP JUMPDEST STOP JUMPDEST CALLVALUE DUP1 ISZERO PUSH2 0xB0 JUMPI PUSH0 DUP1 REVERT JUMPDEST POP PUSH2 0xB9 PUSH2 0x27C JUMP JUMPDEST PUSH1 0x40 MLOAD PUSH2 0xC6 SWAP2 SWAP1 PUSH2 0x55E JUMP JUMPDEST PUSH1 0x40 MLOAD DUP1 SWAP2 SUB SWAP1 RETURN JUMPDEST PUSH2 0xD7 PUSH2 0x2C0 JUMP JUMPDEST STOP JUMPDEST PUSH2 0xE1 PUSH2 0x3FB JUMP JUMPDEST STOP JUMPDEST PUSH1 0x1 PUSH1 0x20 MSTORE DUP1 PUSH0 MSTORE PUSH1 0x40 PUSH0 KECCAK256 PUSH0 SWAP2 POP SWAP1 POP SLOAD DUP2 JUMP JUMPDEST PUSH1 0x1 PUSH0 CALLER PUSH20 0xFFFFFFFFFFFFFFFFFFFFFFFFFFFFFFFFFFFFFFFF AND PUSH20 0xFFFFFFFFFFFFFFFFFFFFFFFFFFFFFFFFFFFFFFFF AND DUP2 MSTORE PUSH1 0x20 ADD SWAP1 DUP2 MSTORE PUSH1 0x20 ADD PUSH0 KECCAK256 SLOAD DUP2 GT ISZERO PUSH2 0x141 JUMPI PUSH0 DUP1 REVERT JUMPDEST SELFBALANCE PUSH2 0x7530 DUP3 PUSH2 0x150 SWAP2 SWAP1 PUSH2 0x5F9 JUMP JUMPDEST LT PUSH2 0x159 JUMPI PUSH0 DUP1 REVERT JUMPDEST DUP1 PUSH0 DUP1 DUP3 DUP3 SLOAD PUSH2 0x169 SWAP2 SWAP1 PUSH2 0x63A JUMP JUMPDEST SWAP3 POP POP DUP2 SWAP1 SSTORE POP DUP1 PUSH1 0x1 PUSH0 CALLER PUSH20 0xFFFFFFFFFFFFFFFFFFFFFFFFFFFFFFFFFFFFFFFF AND PUSH20 0xFFFFFFFFFFFFFFFFFFFFFFFFFFFFFFFFFFFFFFFF AND DUP2 MSTORE PUSH1 0x20 ADD SWAP1 DUP2 MSTORE PUSH1 0x20 ADD PUSH0 KECCAK256 PUSH0 DUP3 DUP3 SLOAD PUSH2 0x1BC SWAP2 SWAP1 PUSH2 0x66D JUMP JUMPDEST SWAP3 POP POP DUP2 SWAP1 SSTORE POP PUSH0 CALLER PUSH20 0xFFFFFFFFFFFFFFFFFFFFFFFFFFFFFFFFFFFFFFFF AND PUSH2 0x7530 DUP4 PUSH2 0x1E9 SWAP2 SWAP1 PUSH2 0x5F9 JUMP JUMPDEST PUSH1 0x40 MLOAD PUSH2 0x1F5 SWAP1 PUSH2 0x6CD JUMP JUMPDEST PUSH0 PUSH1 0x40 MLOAD DUP1 DUP4 SUB DUP2 DUP6 DUP8 GAS CALL SWAP3 POP POP POP RETURNDATASIZE DUP1 PUSH0 DUP2 EQ PUSH2 0x22F JUMPI PUSH1 0x40 MLOAD SWAP2 POP PUSH1 0x1F NOT PUSH1 0x3F RETURNDATASIZE ADD AND DUP3 ADD PUSH1 0x40 MSTORE RETURNDATASIZE DUP3 MSTORE RETURNDATASIZE PUSH0 PUSH1 0x20 DUP5 ADD RETURNDATACOPY PUSH2 0x234 JUMP JUMPDEST PUSH1 0x60 SWAP2 POP JUMPDEST POP POP SWAP1 POP DUP1 PUSH2 0x278 JUMPI PUSH1 0x40 MLOAD PUSH32 0x8C379A000000000000000000000000000000000000000000000000000000000 DUP2 MSTORE PUSH1 0x4 ADD PUSH2 0x26F SWAP1 PUSH2 0x73B JUMP JUMPDEST PUSH1 0x40 MLOAD DUP1 SWAP2 SUB SWAP1 REVERT JUMPDEST POP POP JUMP JUMPDEST PUSH0 PUSH1 0x1 PUSH0 CALLER PUSH20 0xFFFFFFFFFFFFFFFFFFFFFFFFFFFFFFFFFFFFFFFF AND PUSH20 0xFFFFFFFFFFFFFFFFFFFFFFFFFFFFFFFFFFFFFFFF AND DUP2 MSTORE PUSH1 0x20 ADD SWAP1 DUP2 MSTORE PUSH1 0x20 ADD PUSH0 KECCAK256 SLOAD SWAP1 POP SWAP1 JUMP JUMPDEST PUSH32 0x0 PUSH20 0xFFFFFFFFFFFFFFFFFFFFFFFFFFFFFFFFFFFFFFFF AND CALLER PUSH20 0xFFFFFFFFFFFFFFFFFFFFFFFFFFFFFFFFFFFFFFFF AND EQ PUSH2 0x345 JUMPI PUSH1 0x40 MLOAD PUSH32 0x251C9D6300000000000000000000000000000000000000000000000000000000 DUP2 MSTORE PUSH1 0x4 ADD PUSH1 0x40 MLOAD DUP1 SWAP2 SUB SWAP1 REVERT JUMPDEST PUSH0 SELFBALANCE GT PUSH2 0x350 JUMPI PUSH0 DUP1 REVERT JUMPDEST PUSH0 CALLER PUSH20 0xFFFFFFFFFFFFFFFFFFFFFFFFFFFFFFFFFFFFFFFF AND SELFBALANCE PUSH1 0x40 MLOAD PUSH2 0x375 SWAP1 PUSH2 0x6CD JUMP JUMPDEST PUSH0 PUSH1 0x40 MLOAD DUP1 DUP4 SUB DUP2 DUP6 DUP8 GAS CALL SWAP3 POP POP POP RETURNDATASIZE DUP1 PUSH0 DUP2 EQ PUSH2 0x3AF JUMPI PUSH1 0x40 MLOAD SWAP2 POP PUSH1 0x1F NOT PUSH1 0x3F RETURNDATASIZE ADD AND DUP3 ADD PUSH1 0x40 MSTORE RETURNDATASIZE DUP3 MSTORE RETURNDATASIZE PUSH0 PUSH1 0x20 DUP5 ADD RETURNDATACOPY PUSH2 0x3B4 JUMP JUMPDEST PUSH1 0x60 SWAP2 POP JUMPDEST POP POP SWAP1 POP DUP1 PUSH2 0x3F8 JUMPI PUSH1 0x40 MLOAD PUSH32 0x8C379A000000000000000000000000000000000000000000000000000000000 DUP2 MSTORE PUSH1 0x4 ADD PUSH2 0x3EF SWAP1 PUSH2 0x73B JUMP JUMPDEST PUSH1 0x40 MLOAD DUP1 SWAP2 SUB SWAP1 REVERT JUMPDEST POP JUMP JUMPDEST PUSH0 PUSH2 0x7530 CALLVALUE PUSH2 0x40A SWAP2 SWAP1 PUSH2 0x786 JUMP JUMPDEST SWAP1 POP PUSH0 SLOAD DUP2 GT ISZERO PUSH2 0x450 JUMPI PUSH1 0x40 MLOAD PUSH32 0x8C379A000000000000000000000000000000000000000000000000000000000 DUP2 MSTORE PUSH1 0x4 ADD PUSH2 0x447 SWAP1 PUSH2 0x800 JUMP JUMPDEST PUSH1 0x40 MLOAD DUP1 SWAP2 SUB SWAP1 REVERT JUMPDEST DUP1 PUSH0 DUP1 DUP3 DUP3 SLOAD PUSH2 0x460 SWAP2 SWAP1 PUSH2 0x66D JUMP JUMPDEST SWAP3 POP POP DUP2 SWAP1 SSTORE POP DUP1 PUSH1 0x1 PUSH0 CALLER PUSH20 0xFFFFFFFFFFFFFFFFFFFFFFFFFFFFFFFFFFFFFFFF AND PUSH20 0xFFFFFFFFFFFFFFFFFFFFFFFFFFFFFFFFFFFFFFFF AND DUP2 MSTORE PUSH1 0x20 ADD SWAP1 DUP2 MSTORE PUSH1 0x20 ADD PUSH0 KECCAK256 PUSH0 DUP3 DUP3 SLOAD PUSH2 0x4B3 SWAP2 SWAP1 PUSH2 0x63A JUMP JUMPDEST SWAP3 POP POP DUP2 SWAP1 SSTORE POP POP JUMP JUMPDEST PUSH0 DUP1 REVERT JUMPDEST PUSH0 PUSH20 0xFFFFFFFFFFFFFFFFFFFFFFFFFFFFFFFFFFFFFFFF DUP3 AND SWAP1 POP SWAP2 SWAP1 POP JUMP JUMPDEST PUSH0 PUSH2 0x4EA DUP3 PUSH2 0x4C1 JUMP JUMPDEST SWAP1 POP SWAP2 SWAP1 POP JUMP JUMPDEST PUSH2 0x4FA DUP2 PUSH2 0x4E0 JUMP JUMPDEST DUP2 EQ PUSH2 0x504 JUMPI PUSH0 DUP1 REVERT JUMPDEST POP JUMP JUMPDEST PUSH0 DUP2 CALLDATALOAD SWAP1 POP PUSH2 0x515 DUP2 PUSH2 0x4F1 JUMP JUMPDEST SWAP3 SWAP2 POP POP JUMP JUMPDEST PUSH0 PUSH1 0x20 DUP3 DUP5 SUB SLT ISZERO PUSH2 0x530 JUMPI PUSH2 0x52F PUSH2 0x4BD JUMP JUMPDEST JUMPDEST PUSH0 PUSH2 0x53D DUP5 DUP3 DUP6 ADD PUSH2 0x507 JUMP JUMPDEST SWAP2 POP POP SWAP3 SWAP2 POP POP JUMP JUMPDEST PUSH0 DUP2 SWAP1 POP SWAP2 SWAP1 POP JUMP JUMPDEST PUSH2 0x558 DUP2 PUSH2 0x546 JUMP JUMPDEST DUP3 MSTORE POP POP JUMP JUMPDEST PUSH0 PUSH1 0x20 DUP3 ADD SWAP1 POP PUSH2 0x571 PUSH0 DUP4 ADD DUP5 PUSH2 0x54F JUMP JUMPDEST SWAP3 SWAP2 POP POP JUMP JUMPDEST PUSH2 0x580 DUP2 PUSH2 0x546 JUMP JUMPDEST DUP2 EQ PUSH2 0x58A JUMPI PUSH0 DUP1 REVERT JUMPDEST POP JUMP JUMPDEST PUSH0 DUP2 CALLDATALOAD SWAP1 POP PUSH2 0x59B DUP2 PUSH2 0x577 JUMP JUMPDEST SWAP3 SWAP2 POP POP JUMP JUMPDEST PUSH0 PUSH1 0x20 DUP3 DUP5 SUB SLT ISZERO PUSH2 0x5B6 JUMPI PUSH2 0x5B5 PUSH2 0x4BD JUMP JUMPDEST JUMPDEST PUSH0 PUSH2 0x5C3 DUP5 DUP3 DUP6 ADD PUSH2 0x58D JUMP JUMPDEST SWAP2 POP POP SWAP3 SWAP2 POP POP JUMP JUMPDEST PUSH32 0x4E487B7100000000000000000000000000000000000000000000000000000000 PUSH0 MSTORE PUSH1 0x11 PUSH1 0x4 MSTORE PUSH1 0x24 PUSH0 REVERT JUMPDEST PUSH0 PUSH2 0x603 DUP3 PUSH2 0x546 JUMP JUMPDEST SWAP2 POP PUSH2 0x60E DUP4 PUSH2 0x546 JUMP JUMPDEST SWAP3 POP DUP3 DUP3 MUL PUSH2 0x61C DUP2 PUSH2 0x546 JUMP JUMPDEST SWAP2 POP DUP3 DUP3 DIV DUP5 EQ DUP4 ISZERO OR PUSH2 0x633 JUMPI PUSH2 0x632 PUSH2 0x5CC JUMP JUMPDEST JUMPDEST POP SWAP3 SWAP2 POP POP JUMP JUMPDEST PUSH0 PUSH2 0x644 DUP3 PUSH2 0x546 JUMP JUMPDEST SWAP2 POP PUSH2 0x64F DUP4 PUSH2 0x546 JUMP JUMPDEST SWAP3 POP DUP3 DUP3 ADD SWAP1 POP DUP1 DUP3 GT ISZERO PUSH2 0x667 JUMPI PUSH2 0x666 PUSH2 0x5CC JUMP JUMPDEST JUMPDEST SWAP3 SWAP2 POP POP JUMP JUMPDEST PUSH0 PUSH2 0x677 DUP3 PUSH2 0x546 JUMP JUMPDEST SWAP2 POP PUSH2 0x682 DUP4 PUSH2 0x546 JUMP JUMPDEST SWAP3 POP DUP3 DUP3 SUB SWAP1 POP DUP2 DUP2 GT ISZERO PUSH2 0x69A JUMPI PUSH2 0x699 PUSH2 0x5CC JUMP JUMPDEST JUMPDEST SWAP3 SWAP2 POP POP JUMP JUMPDEST PUSH0 DUP2 SWAP1 POP SWAP3 SWAP2 POP POP JUMP JUMPDEST POP JUMP JUMPDEST PUSH0 PUSH2 0x6B8 PUSH0 DUP4 PUSH2 0x6A0 JUMP JUMPDEST SWAP2 POP PUSH2 0x6C3 DUP3 PUSH2 0x6AA JUMP JUMPDEST PUSH0 DUP3 ADD SWAP1 POP SWAP2 SWAP1 POP JUMP JUMPDEST PUSH0 PUSH2 0x6D7 DUP3 PUSH2 0x6AD JUMP JUMPDEST SWAP2 POP DUP2 SWAP1 POP SWAP2 SWAP1 POP JUMP JUMPDEST PUSH0 DUP3 DUP3 MSTORE PUSH1 0x20 DUP3 ADD SWAP1 POP SWAP3 SWAP2 POP POP JUMP JUMPDEST PUSH32 0x43616C6C206661696C6564000000000000000000000000000000000000000000 PUSH0 DUP3 ADD MSTORE POP JUMP JUMPDEST PUSH0 PUSH2 0x725 PUSH1 0xB DUP4 PUSH2 0x6E1 JUMP JUMPDEST SWAP2 POP PUSH2 0x730 DUP3 PUSH2 0x6F1 JUMP JUMPDEST PUSH1 0x20 DUP3 ADD SWAP1 POP SWAP2 SWAP1 POP JUMP JUMPDEST PUSH0 PUSH1 0x20 DUP3 ADD SWAP1 POP DUP2 DUP2 SUB PUSH0 DUP4 ADD MSTORE PUSH2 0x752 DUP2 PUSH2 0x719 JUMP JUMPDEST SWAP1 POP SWAP2 SWAP1 POP JUMP JUMPDEST PUSH32 0x4E487B7100000000000000000000000000000000000000000000000000000000 PUSH0 MSTORE PUSH1 0x12 PUSH1 0x4 MSTORE PUSH1 0x24 PUSH0 REVERT JUMPDEST PUSH0 PUSH2 0x790 DUP3 PUSH2 0x546 JUMP JUMPDEST SWAP2 POP PUSH2 0x79B DUP4 PUSH2 0x546 JUMP JUMPDEST SWAP3 POP DUP3 PUSH2 0x7AB JUMPI PUSH2 0x7AA PUSH2 0x759 JUMP JUMPDEST JUMPDEST DUP3 DUP3 DIV SWAP1 POP SWAP3 SWAP2 POP POP JUMP JUMPDEST PUSH32 0x4E6F7420656E6F75676820746F6B656E7320617661696C61626C650000000000 PUSH0 DUP3 ADD MSTORE POP JUMP JUMPDEST PUSH0 PUSH2 0x7EA PUSH1 0x1B DUP4 PUSH2 0x6E1 JUMP JUMPDEST SWAP2 POP PUSH2 0x7F5 DUP3 PUSH2 0x7B6 JUMP JUMPDEST PUSH1 0x20 DUP3 ADD SWAP1 POP SWAP2 SWAP1 POP JUMP JUMPDEST PUSH0 PUSH1 0x20 DUP3 ADD SWAP1 POP DUP2 DUP2 SUB PUSH0 DUP4 ADD MSTORE PUSH2 0x817 DUP2 PUSH2 0x7DE JUMP JUMPDEST SWAP1 POP SWAP2 SWAP1 POP JUMP INVALID LOG2 PUSH5 0x6970667358 0x22 SLT KECCAK256 0xC0 CODESIZE PUSH17 0x8DC043774D9B42A42599B7C83E6EE4AB8C 0x2C 0x2E SWAP2 DUP15 PUSH14 0xDEF0D115C266564736F6C634300 ADDMOD ISZERO STOP CALLER "
				},
				"gasEstimates": {
					"creation": {
						"codeDepositCost": "426400",
						"executionCost": "infinite",
						"totalCost": "infinite"
					},
					"external": {
						"balances(address)": "2780",
						"buyTokens()": "infinite",
						"getTokenBalance()": "2541",
						"sellTokens(uint256)": "infinite",
						"withdrawEth()": "infinite"
					}
				},
				"methodIdentifiers": {
					"balances(address)": "27e235e3",
					"buyTokens()": "d0febe4c",
					"getTokenBalance()": "82b2e257",
					"sellTokens(uint256)": "6c11bcd3",
					"withdrawEth()": "a0ef91df"
				}
			},
			"storageLayout": {
				"storage": [
					{
						"astId": 9,
						"contract": "contracts/TokenSale.sol:TokenSale",
						"label": "tokenBalance",
						"offset": 0,
						"slot": "0",
						"type": "t_uint256"
					},
					{
						"astId": 13,
						"contract": "contracts/TokenSale.sol:TokenSale",
						"label": "balances",
						"offset": 0,
						"slot": "1",
						"type": "t_mapping(t_address,t_uint256)"
					}
				],
				"types": {
					"t_address": {
						"encoding": "inplace",
						"label": "address",
						"numberOfBytes": "20"
					},
					"t_mapping(t_address,t_uint256)": {
						"encoding": "mapping",
						"key": "t_address",
						"label": "mapping(address => uint256)",
						"numberOfBytes": "32",
						"value": "t_uint256"
					},
					"t_uint256": {
						"encoding": "inplace",
						"label": "uint256",
						"numberOfBytes": "32"
					}
				}
			},
			"userdoc": {
				"kind": "user",
				"methods": {},
				"version": 1
			}
		}
	}
}