{
	"contracts/Lottery.sol": {
		"Lottery": {
			"abi": [
				{
					"inputs": [],
					"stateMutability": "nonpayable",
					"type": "constructor"
				},
				{
					"inputs": [],
					"name": "notOwner",
					"type": "error"
				},
				{
					"inputs": [],
					"name": "determineWinner",
					"outputs": [],
					"stateMutability": "nonpayable",
					"type": "function"
				},
				{
					"inputs": [],
					"name": "joinLottery",
					"outputs": [],
					"stateMutability": "payable",
					"type": "function"
				},
				{
					"inputs": [
						{
							"internalType": "address",
							"name": "_winner",
							"type": "address"
						}
					],
					"name": "payPrize",
					"outputs": [],
					"stateMutability": "payable",
					"type": "function"
				},
				{
					"inputs": [],
					"name": "withdraw",
					"outputs": [],
					"stateMutability": "payable",
					"type": "function"
				}
			],
			"devdoc": {
				"kind": "dev",
				"methods": {},
				"version": 1
			},
			"evm": {
				"assembly": "    /* \"contracts/Lottery.sol\":83:1445  contract Lottery {... */\n  mstore(0x40, 0xa0)\n    /* \"contracts/Lottery.sol\":261:314  constructor() {... */\n  callvalue\n  dup1\n  iszero\n  tag_1\n  jumpi\n  0x00\n  dup1\n  revert\ntag_1:\n  pop\n    /* \"contracts/Lottery.sol\":296:306  msg.sender */\n  caller\n    /* \"contracts/Lottery.sol\":286:306  i_owner = msg.sender */\n  0xffffffffffffffffffffffffffffffffffffffff\n  and\n  0x80\n  dup2\n  0xffffffffffffffffffffffffffffffffffffffff\n  and\n  dup2\n  mstore\n  pop\n  pop\n    /* \"contracts/Lottery.sol\":83:1445  contract Lottery {... */\n  mload(0x80)\n  codecopy(0x00, dataOffset(sub_0), dataSize(sub_0))\n  0x00\n  assignImmutable(\"0x1d3be50b2bb17407dd170f1d5da128d1def30c6b1598d6a629e79b4775265526\")\n  return(0x00, dataSize(sub_0))\nstop\n\nsub_0: assembly {\n        /* \"contracts/Lottery.sol\":83:1445  contract Lottery {... */\n      mstore(0x40, 0x80)\n      jumpi(tag_1, lt(calldatasize, 0x04))\n      shr(0xe0, calldataload(0x00))\n      dup1\n      0x33b16d93\n      eq\n      tag_2\n      jumpi\n      dup1\n      0x3ccfd60b\n      eq\n      tag_3\n      jumpi\n      dup1\n      0x6c77f989\n      eq\n      tag_4\n      jumpi\n      dup1\n      0xaaca875b\n      eq\n      tag_5\n      jumpi\n    tag_1:\n      0x00\n      dup1\n      revert\n        /* \"contracts/Lottery.sol\":536:929  function determineWinner() public checkOwner {... */\n    tag_2:\n      callvalue\n      dup1\n      iszero\n      tag_6\n      jumpi\n      0x00\n      dup1\n      revert\n    tag_6:\n      pop\n      tag_7\n      tag_8\n      jump\t// in\n    tag_7:\n      stop\n        /* \"contracts/Lottery.sol\":1147:1337  function withdraw() public payable checkOwner {... */\n    tag_3:\n      tag_9\n      tag_10\n      jump\t// in\n    tag_9:\n      stop\n        /* \"contracts/Lottery.sol\":322:528  function joinLottery() public payable {... */\n    tag_4:\n      tag_11\n      tag_12\n      jump\t// in\n    tag_11:\n      stop\n        /* \"contracts/Lottery.sol\":937:1139  function payPrize(address _winner) public payable checkOwner {... */\n    tag_5:\n      tag_13\n      0x04\n      dup1\n      calldatasize\n      sub\n      dup2\n      add\n      swap1\n      tag_14\n      swap2\n      swap1\n      tag_15\n      jump\t// in\n    tag_14:\n      tag_16\n      jump\t// in\n    tag_13:\n      stop\n        /* \"contracts/Lottery.sol\":536:929  function determineWinner() public checkOwner {... */\n    tag_8:\n        /* \"contracts/Lottery.sol\":1394:1401  i_owner */\n      immutable(\"0x1d3be50b2bb17407dd170f1d5da128d1def30c6b1598d6a629e79b4775265526\")\n        /* \"contracts/Lottery.sol\":1380:1401  msg.sender != i_owner */\n      0xffffffffffffffffffffffffffffffffffffffff\n      and\n        /* \"contracts/Lottery.sol\":1380:1390  msg.sender */\n      caller\n        /* \"contracts/Lottery.sol\":1380:1401  msg.sender != i_owner */\n      0xffffffffffffffffffffffffffffffffffffffff\n      and\n      eq\n        /* \"contracts/Lottery.sol\":1376:1423  if (msg.sender != i_owner) {revert notOwner();} */\n      tag_18\n      jumpi\n        /* \"contracts/Lottery.sol\":1411:1421  notOwner() */\n      mload(0x40)\n      0x251c9d6300000000000000000000000000000000000000000000000000000000\n      dup2\n      mstore\n      0x04\n      add\n      mload(0x40)\n      dup1\n      swap2\n      sub\n      swap1\n      revert\n        /* \"contracts/Lottery.sol\":1376:1423  if (msg.sender != i_owner) {revert notOwner();} */\n    tag_18:\n        /* \"contracts/Lottery.sol\":622:623  0 */\n      0x00\n        /* \"contracts/Lottery.sol\":600:612  participants */\n      0x01\n        /* \"contracts/Lottery.sol\":600:619  participants.length */\n      dup1\n      sload\n      swap1\n      pop\n        /* \"contracts/Lottery.sol\":600:623  participants.length > 0 */\n      gt\n        /* \"contracts/Lottery.sol\":592:658  require(participants.length > 0, \"No participants in the lottery\") */\n      tag_20\n      jumpi\n      mload(0x40)\n      0x08c379a000000000000000000000000000000000000000000000000000000000\n      dup2\n      mstore\n      0x04\n      add\n      tag_21\n      swap1\n      tag_22\n      jump\t// in\n    tag_21:\n      mload(0x40)\n      dup1\n      swap2\n      sub\n      swap1\n      revert\n    tag_20:\n        /* \"contracts/Lottery.sol\":669:689  uint256 randomNumber */\n      0x00\n        /* \"contracts/Lottery.sol\":752:753  1 */\n      0x01\n        /* \"contracts/Lottery.sol\":737:749  block.number */\n      number\n        /* \"contracts/Lottery.sol\":737:753  block.number - 1 */\n      tag_23\n      swap2\n      swap1\n      tag_24\n      jump\t// in\n    tag_23:\n        /* \"contracts/Lottery.sol\":727:754  blockhash(block.number - 1) */\n      blockhash\n        /* \"contracts/Lottery.sol\":756:771  block.timestamp */\n      timestamp\n        /* \"contracts/Lottery.sol\":710:772  abi.encodePacked(blockhash(block.number - 1), block.timestamp) */\n      add(0x20, mload(0x40))\n      tag_25\n      swap3\n      swap2\n      swap1\n      tag_26\n      jump\t// in\n    tag_25:\n      mload(0x40)\n      0x20\n      dup2\n      dup4\n      sub\n      sub\n      dup2\n      mstore\n      swap1\n      0x40\n      mstore\n        /* \"contracts/Lottery.sol\":700:773  keccak256(abi.encodePacked(blockhash(block.number - 1), block.timestamp)) */\n      dup1\n      mload\n      swap1\n      0x20\n      add\n      keccak256\n        /* \"contracts/Lottery.sol\":692:774  uint256(keccak256(abi.encodePacked(blockhash(block.number - 1), block.timestamp))) */\n      0x00\n      shr\n        /* \"contracts/Lottery.sol\":669:774  uint256 randomNumber = uint256(keccak256(abi.encodePacked(blockhash(block.number - 1), block.timestamp))) */\n      swap1\n      pop\n        /* \"contracts/Lottery.sol\":785:804  uint256 winnerIndex */\n      0x00\n        /* \"contracts/Lottery.sol\":822:834  participants */\n      0x01\n        /* \"contracts/Lottery.sol\":822:841  participants.length */\n      dup1\n      sload\n      swap1\n      pop\n        /* \"contracts/Lottery.sol\":807:819  randomNumber */\n      dup3\n        /* \"contracts/Lottery.sol\":807:841  randomNumber % participants.length */\n      tag_27\n      swap2\n      swap1\n      tag_28\n      jump\t// in\n    tag_27:\n        /* \"contracts/Lottery.sol\":785:841  uint256 winnerIndex = randomNumber % participants.length */\n      swap1\n      pop\n        /* \"contracts/Lottery.sol\":852:866  address winner */\n      0x00\n        /* \"contracts/Lottery.sol\":869:881  participants */\n      0x01\n        /* \"contracts/Lottery.sol\":882:893  winnerIndex */\n      dup3\n        /* \"contracts/Lottery.sol\":869:894  participants[winnerIndex] */\n      dup2\n      sload\n      dup2\n      lt\n      tag_29\n      jumpi\n      tag_30\n      tag_31\n      jump\t// in\n    tag_30:\n    tag_29:\n      swap1\n      0x00\n      mstore\n      keccak256(0x00, 0x20)\n      add\n      0x00\n      swap1\n      sload\n      swap1\n      0x0100\n      exp\n      swap1\n      div\n      0xffffffffffffffffffffffffffffffffffffffff\n      and\n        /* \"contracts/Lottery.sol\":852:894  address winner = participants[winnerIndex] */\n      swap1\n      pop\n        /* \"contracts/Lottery.sol\":905:921  payPrize(winner) */\n      tag_33\n        /* \"contracts/Lottery.sol\":914:920  winner */\n      dup2\n        /* \"contracts/Lottery.sol\":905:913  payPrize */\n      tag_16\n        /* \"contracts/Lottery.sol\":905:921  payPrize(winner) */\n      jump\t// in\n    tag_33:\n        /* \"contracts/Lottery.sol\":581:929  {... */\n      pop\n      pop\n      pop\n        /* \"contracts/Lottery.sol\":536:929  function determineWinner() public checkOwner {... */\n      jump\t// out\n        /* \"contracts/Lottery.sol\":1147:1337  function withdraw() public payable checkOwner {... */\n    tag_10:\n        /* \"contracts/Lottery.sol\":1394:1401  i_owner */\n      immutable(\"0x1d3be50b2bb17407dd170f1d5da128d1def30c6b1598d6a629e79b4775265526\")\n        /* \"contracts/Lottery.sol\":1380:1401  msg.sender != i_owner */\n      0xffffffffffffffffffffffffffffffffffffffff\n      and\n        /* \"contracts/Lottery.sol\":1380:1390  msg.sender */\n      caller\n        /* \"contracts/Lottery.sol\":1380:1401  msg.sender != i_owner */\n      0xffffffffffffffffffffffffffffffffffffffff\n      and\n      eq\n        /* \"contracts/Lottery.sol\":1376:1423  if (msg.sender != i_owner) {revert notOwner();} */\n      tag_35\n      jumpi\n        /* \"contracts/Lottery.sol\":1411:1421  notOwner() */\n      mload(0x40)\n      0x251c9d6300000000000000000000000000000000000000000000000000000000\n      dup2\n      mstore\n      0x04\n      add\n      mload(0x40)\n      dup1\n      swap2\n      sub\n      swap1\n      revert\n        /* \"contracts/Lottery.sol\":1376:1423  if (msg.sender != i_owner) {revert notOwner();} */\n    tag_35:\n        /* \"contracts/Lottery.sol\":1205:1221  bool callSuccess */\n      0x00\n        /* \"contracts/Lottery.sol\":1234:1244  msg.sender */\n      caller\n        /* \"contracts/Lottery.sol\":1226:1250  payable(msg.sender).call */\n      0xffffffffffffffffffffffffffffffffffffffff\n      and\n        /* \"contracts/Lottery.sol\":1257:1278  address(this).balance */\n      selfbalance\n        /* \"contracts/Lottery.sol\":1226:1283  payable(msg.sender).call{value:address(this).balance}(\"\") */\n      mload(0x40)\n      tag_37\n      swap1\n      tag_38\n      jump\t// in\n    tag_37:\n      0x00\n      mload(0x40)\n      dup1\n      dup4\n      sub\n      dup2\n      dup6\n      dup8\n      gas\n      call\n      swap3\n      pop\n      pop\n      pop\n      returndatasize\n      dup1\n      0x00\n      dup2\n      eq\n      tag_41\n      jumpi\n      mload(0x40)\n      swap2\n      pop\n      and(add(returndatasize, 0x3f), not(0x1f))\n      dup3\n      add\n      0x40\n      mstore\n      returndatasize\n      dup3\n      mstore\n      returndatasize\n      0x00\n      0x20\n      dup5\n      add\n      returndatacopy\n      jump(tag_40)\n    tag_41:\n      0x60\n      swap2\n      pop\n    tag_40:\n      pop\n        /* \"contracts/Lottery.sol\":1204:1283  (bool callSuccess,) = payable(msg.sender).call{value:address(this).balance}(\"\") */\n      pop\n      swap1\n      pop\n        /* \"contracts/Lottery.sol\":1302:1313  callSuccess */\n      dup1\n        /* \"contracts/Lottery.sol\":1294:1329  require(callSuccess, \"Call failed\") */\n      tag_42\n      jumpi\n      mload(0x40)\n      0x08c379a000000000000000000000000000000000000000000000000000000000\n      dup2\n      mstore\n      0x04\n      add\n      tag_43\n      swap1\n      tag_44\n      jump\t// in\n    tag_43:\n      mload(0x40)\n      dup1\n      swap2\n      sub\n      swap1\n      revert\n    tag_42:\n        /* \"contracts/Lottery.sol\":1193:1337  {... */\n      pop\n        /* \"contracts/Lottery.sol\":1147:1337  function withdraw() public payable checkOwner {... */\n      jump\t// out\n        /* \"contracts/Lottery.sol\":322:528  function joinLottery() public payable {... */\n    tag_12:\n        /* \"contracts/Lottery.sol\":138:143  30000 */\n      0x7530\n        /* \"contracts/Lottery.sol\":379:388  msg.value */\n      callvalue\n        /* \"contracts/Lottery.sol\":379:402  msg.value > MINIMUM_ETH */\n      gt\n        /* \"contracts/Lottery.sol\":371:431  require(msg.value > MINIMUM_ETH, \"Not enough Ethereum sent\") */\n      tag_46\n      jumpi\n      mload(0x40)\n      0x08c379a000000000000000000000000000000000000000000000000000000000\n      dup2\n      mstore\n      0x04\n      add\n      tag_47\n      swap1\n      tag_48\n      jump\t// in\n    tag_47:\n      mload(0x40)\n      dup1\n      swap2\n      sub\n      swap1\n      revert\n    tag_46:\n        /* \"contracts/Lottery.sol\":471:480  msg.value */\n      callvalue\n        /* \"contracts/Lottery.sol\":442:455  contributions */\n      0x00\n        /* \"contracts/Lottery.sol\":442:467  contributions[msg.sender] */\n      dup1\n        /* \"contracts/Lottery.sol\":456:466  msg.sender */\n      caller\n        /* \"contracts/Lottery.sol\":442:467  contributions[msg.sender] */\n      0xffffffffffffffffffffffffffffffffffffffff\n      and\n      0xffffffffffffffffffffffffffffffffffffffff\n      and\n      dup2\n      mstore\n      0x20\n      add\n      swap1\n      dup2\n      mstore\n      0x20\n      add\n      0x00\n      keccak256\n      0x00\n        /* \"contracts/Lottery.sol\":442:480  contributions[msg.sender] += msg.value */\n      dup3\n      dup3\n      sload\n      tag_49\n      swap2\n      swap1\n      tag_50\n      jump\t// in\n    tag_49:\n      swap3\n      pop\n      pop\n      dup2\n      swap1\n      sstore\n      pop\n        /* \"contracts/Lottery.sol\":491:503  participants */\n      0x01\n        /* \"contracts/Lottery.sol\":509:519  msg.sender */\n      caller\n        /* \"contracts/Lottery.sol\":491:520  participants.push(msg.sender) */\n      swap1\n      dup1\n      0x01\n      dup2\n      sload\n      add\n      dup1\n      dup3\n      sstore\n      dup1\n      swap2\n      pop\n      pop\n      0x01\n      swap1\n      sub\n      swap1\n      0x00\n      mstore\n      keccak256(0x00, 0x20)\n      add\n      0x00\n      swap1\n      swap2\n      swap1\n      swap2\n      swap1\n      swap2\n      0x0100\n      exp\n      dup2\n      sload\n      dup2\n      0xffffffffffffffffffffffffffffffffffffffff\n      mul\n      not\n      and\n      swap1\n      dup4\n      0xffffffffffffffffffffffffffffffffffffffff\n      and\n      mul\n      or\n      swap1\n      sstore\n      pop\n        /* \"contracts/Lottery.sol\":322:528  function joinLottery() public payable {... */\n      jump\t// out\n        /* \"contracts/Lottery.sol\":937:1139  function payPrize(address _winner) public payable checkOwner {... */\n    tag_16:\n        /* \"contracts/Lottery.sol\":1394:1401  i_owner */\n      immutable(\"0x1d3be50b2bb17407dd170f1d5da128d1def30c6b1598d6a629e79b4775265526\")\n        /* \"contracts/Lottery.sol\":1380:1401  msg.sender != i_owner */\n      0xffffffffffffffffffffffffffffffffffffffff\n      and\n        /* \"contracts/Lottery.sol\":1380:1390  msg.sender */\n      caller\n        /* \"contracts/Lottery.sol\":1380:1401  msg.sender != i_owner */\n      0xffffffffffffffffffffffffffffffffffffffff\n      and\n      eq\n        /* \"contracts/Lottery.sol\":1376:1423  if (msg.sender != i_owner) {revert notOwner();} */\n      tag_53\n      jumpi\n        /* \"contracts/Lottery.sol\":1411:1421  notOwner() */\n      mload(0x40)\n      0x251c9d6300000000000000000000000000000000000000000000000000000000\n      dup2\n      mstore\n      0x04\n      add\n      mload(0x40)\n      dup1\n      swap2\n      sub\n      swap1\n      revert\n        /* \"contracts/Lottery.sol\":1376:1423  if (msg.sender != i_owner) {revert notOwner();} */\n    tag_53:\n        /* \"contracts/Lottery.sol\":1010:1026  bool callSuccess */\n      0x00\n        /* \"contracts/Lottery.sol\":1039:1046  _winner */\n      dup2\n        /* \"contracts/Lottery.sol\":1031:1052  payable(_winner).call */\n      0xffffffffffffffffffffffffffffffffffffffff\n      and\n        /* \"contracts/Lottery.sol\":1059:1080  address(this).balance */\n      selfbalance\n        /* \"contracts/Lottery.sol\":1031:1085  payable(_winner).call{value:address(this).balance}(\"\") */\n      mload(0x40)\n      tag_55\n      swap1\n      tag_38\n      jump\t// in\n    tag_55:\n      0x00\n      mload(0x40)\n      dup1\n      dup4\n      sub\n      dup2\n      dup6\n      dup8\n      gas\n      call\n      swap3\n      pop\n      pop\n      pop\n      returndatasize\n      dup1\n      0x00\n      dup2\n      eq\n      tag_58\n      jumpi\n      mload(0x40)\n      swap2\n      pop\n      and(add(returndatasize, 0x3f), not(0x1f))\n      dup3\n      add\n      0x40\n      mstore\n      returndatasize\n      dup3\n      mstore\n      returndatasize\n      0x00\n      0x20\n      dup5\n      add\n      returndatacopy\n      jump(tag_57)\n    tag_58:\n      0x60\n      swap2\n      pop\n    tag_57:\n      pop\n        /* \"contracts/Lottery.sol\":1009:1085  (bool callSuccess,) = payable(_winner).call{value:address(this).balance}(\"\") */\n      pop\n      swap1\n      pop\n        /* \"contracts/Lottery.sol\":1104:1115  callSuccess */\n      dup1\n        /* \"contracts/Lottery.sol\":1096:1131  require(callSuccess, \"Call failed\") */\n      tag_59\n      jumpi\n      mload(0x40)\n      0x08c379a000000000000000000000000000000000000000000000000000000000\n      dup2\n      mstore\n      0x04\n      add\n      tag_60\n      swap1\n      tag_44\n      jump\t// in\n    tag_60:\n      mload(0x40)\n      dup1\n      swap2\n      sub\n      swap1\n      revert\n    tag_59:\n        /* \"contracts/Lottery.sol\":998:1139  {... */\n      pop\n        /* \"contracts/Lottery.sol\":937:1139  function payPrize(address _winner) public payable checkOwner {... */\n      pop\n      jump\t// out\n        /* \"#utility.yul\":88:205   */\n    tag_62:\n        /* \"#utility.yul\":197:198   */\n      0x00\n        /* \"#utility.yul\":194:195   */\n      dup1\n        /* \"#utility.yul\":187:199   */\n      revert\n        /* \"#utility.yul\":334:460   */\n    tag_64:\n        /* \"#utility.yul\":371:378   */\n      0x00\n        /* \"#utility.yul\":411:453   */\n      0xffffffffffffffffffffffffffffffffffffffff\n        /* \"#utility.yul\":404:409   */\n      dup3\n        /* \"#utility.yul\":400:454   */\n      and\n        /* \"#utility.yul\":389:454   */\n      swap1\n      pop\n        /* \"#utility.yul\":334:460   */\n      swap2\n      swap1\n      pop\n      jump\t// out\n        /* \"#utility.yul\":466:562   */\n    tag_65:\n        /* \"#utility.yul\":503:510   */\n      0x00\n        /* \"#utility.yul\":532:556   */\n      tag_92\n        /* \"#utility.yul\":550:555   */\n      dup3\n        /* \"#utility.yul\":532:556   */\n      tag_64\n      jump\t// in\n    tag_92:\n        /* \"#utility.yul\":521:556   */\n      swap1\n      pop\n        /* \"#utility.yul\":466:562   */\n      swap2\n      swap1\n      pop\n      jump\t// out\n        /* \"#utility.yul\":568:690   */\n    tag_66:\n        /* \"#utility.yul\":641:665   */\n      tag_94\n        /* \"#utility.yul\":659:664   */\n      dup2\n        /* \"#utility.yul\":641:665   */\n      tag_65\n      jump\t// in\n    tag_94:\n        /* \"#utility.yul\":634:639   */\n      dup2\n        /* \"#utility.yul\":631:666   */\n      eq\n        /* \"#utility.yul\":621:684   */\n      tag_95\n      jumpi\n        /* \"#utility.yul\":680:681   */\n      0x00\n        /* \"#utility.yul\":677:678   */\n      dup1\n        /* \"#utility.yul\":670:682   */\n      revert\n        /* \"#utility.yul\":621:684   */\n    tag_95:\n        /* \"#utility.yul\":568:690   */\n      pop\n      jump\t// out\n        /* \"#utility.yul\":696:835   */\n    tag_67:\n        /* \"#utility.yul\":742:747   */\n      0x00\n        /* \"#utility.yul\":780:786   */\n      dup2\n        /* \"#utility.yul\":767:787   */\n      calldataload\n        /* \"#utility.yul\":758:787   */\n      swap1\n      pop\n        /* \"#utility.yul\":796:829   */\n      tag_97\n        /* \"#utility.yul\":823:828   */\n      dup2\n        /* \"#utility.yul\":796:829   */\n      tag_66\n      jump\t// in\n    tag_97:\n        /* \"#utility.yul\":696:835   */\n      swap3\n      swap2\n      pop\n      pop\n      jump\t// out\n        /* \"#utility.yul\":841:1170   */\n    tag_15:\n        /* \"#utility.yul\":900:906   */\n      0x00\n        /* \"#utility.yul\":949:951   */\n      0x20\n        /* \"#utility.yul\":937:946   */\n      dup3\n        /* \"#utility.yul\":928:935   */\n      dup5\n        /* \"#utility.yul\":924:947   */\n      sub\n        /* \"#utility.yul\":920:952   */\n      slt\n        /* \"#utility.yul\":917:1036   */\n      iszero\n      tag_99\n      jumpi\n        /* \"#utility.yul\":955:1034   */\n      tag_100\n      tag_62\n      jump\t// in\n    tag_100:\n        /* \"#utility.yul\":917:1036   */\n    tag_99:\n        /* \"#utility.yul\":1075:1076   */\n      0x00\n        /* \"#utility.yul\":1100:1153   */\n      tag_101\n        /* \"#utility.yul\":1145:1152   */\n      dup5\n        /* \"#utility.yul\":1136:1142   */\n      dup3\n        /* \"#utility.yul\":1125:1134   */\n      dup6\n        /* \"#utility.yul\":1121:1143   */\n      add\n        /* \"#utility.yul\":1100:1153   */\n      tag_67\n      jump\t// in\n    tag_101:\n        /* \"#utility.yul\":1090:1153   */\n      swap2\n      pop\n        /* \"#utility.yul\":1046:1163   */\n      pop\n        /* \"#utility.yul\":841:1170   */\n      swap3\n      swap2\n      pop\n      pop\n      jump\t// out\n        /* \"#utility.yul\":1176:1345   */\n    tag_68:\n        /* \"#utility.yul\":1260:1271   */\n      0x00\n        /* \"#utility.yul\":1294:1300   */\n      dup3\n        /* \"#utility.yul\":1289:1292   */\n      dup3\n        /* \"#utility.yul\":1282:1301   */\n      mstore\n        /* \"#utility.yul\":1334:1338   */\n      0x20\n        /* \"#utility.yul\":1329:1332   */\n      dup3\n        /* \"#utility.yul\":1325:1339   */\n      add\n        /* \"#utility.yul\":1310:1339   */\n      swap1\n      pop\n        /* \"#utility.yul\":1176:1345   */\n      swap3\n      swap2\n      pop\n      pop\n      jump\t// out\n        /* \"#utility.yul\":1351:1531   */\n    tag_69:\n        /* \"#utility.yul\":1491:1523   */\n      0x4e6f207061727469636970616e747320696e20746865206c6f74746572790000\n        /* \"#utility.yul\":1487:1488   */\n      0x00\n        /* \"#utility.yul\":1479:1485   */\n      dup3\n        /* \"#utility.yul\":1475:1489   */\n      add\n        /* \"#utility.yul\":1468:1524   */\n      mstore\n        /* \"#utility.yul\":1351:1531   */\n      pop\n      jump\t// out\n        /* \"#utility.yul\":1537:1903   */\n    tag_70:\n        /* \"#utility.yul\":1679:1682   */\n      0x00\n        /* \"#utility.yul\":1700:1767   */\n      tag_105\n        /* \"#utility.yul\":1764:1766   */\n      0x1e\n        /* \"#utility.yul\":1759:1762   */\n      dup4\n        /* \"#utility.yul\":1700:1767   */\n      tag_68\n      jump\t// in\n    tag_105:\n        /* \"#utility.yul\":1693:1767   */\n      swap2\n      pop\n        /* \"#utility.yul\":1776:1869   */\n      tag_106\n        /* \"#utility.yul\":1865:1868   */\n      dup3\n        /* \"#utility.yul\":1776:1869   */\n      tag_69\n      jump\t// in\n    tag_106:\n        /* \"#utility.yul\":1894:1896   */\n      0x20\n        /* \"#utility.yul\":1889:1892   */\n      dup3\n        /* \"#utility.yul\":1885:1897   */\n      add\n        /* \"#utility.yul\":1878:1897   */\n      swap1\n      pop\n        /* \"#utility.yul\":1537:1903   */\n      swap2\n      swap1\n      pop\n      jump\t// out\n        /* \"#utility.yul\":1909:2328   */\n    tag_22:\n        /* \"#utility.yul\":2075:2079   */\n      0x00\n        /* \"#utility.yul\":2113:2115   */\n      0x20\n        /* \"#utility.yul\":2102:2111   */\n      dup3\n        /* \"#utility.yul\":2098:2116   */\n      add\n        /* \"#utility.yul\":2090:2116   */\n      swap1\n      pop\n        /* \"#utility.yul\":2162:2171   */\n      dup2\n        /* \"#utility.yul\":2156:2160   */\n      dup2\n        /* \"#utility.yul\":2152:2172   */\n      sub\n        /* \"#utility.yul\":2148:2149   */\n      0x00\n        /* \"#utility.yul\":2137:2146   */\n      dup4\n        /* \"#utility.yul\":2133:2150   */\n      add\n        /* \"#utility.yul\":2126:2173   */\n      mstore\n        /* \"#utility.yul\":2190:2321   */\n      tag_108\n        /* \"#utility.yul\":2316:2320   */\n      dup2\n        /* \"#utility.yul\":2190:2321   */\n      tag_70\n      jump\t// in\n    tag_108:\n        /* \"#utility.yul\":2182:2321   */\n      swap1\n      pop\n        /* \"#utility.yul\":1909:2328   */\n      swap2\n      swap1\n      pop\n      jump\t// out\n        /* \"#utility.yul\":2334:2411   */\n    tag_71:\n        /* \"#utility.yul\":2371:2378   */\n      0x00\n        /* \"#utility.yul\":2400:2405   */\n      dup2\n        /* \"#utility.yul\":2389:2405   */\n      swap1\n      pop\n        /* \"#utility.yul\":2334:2411   */\n      swap2\n      swap1\n      pop\n      jump\t// out\n        /* \"#utility.yul\":2417:2597   */\n    tag_72:\n        /* \"#utility.yul\":2465:2542   */\n      0x4e487b7100000000000000000000000000000000000000000000000000000000\n        /* \"#utility.yul\":2462:2463   */\n      0x00\n        /* \"#utility.yul\":2455:2543   */\n      mstore\n        /* \"#utility.yul\":2562:2566   */\n      0x11\n        /* \"#utility.yul\":2559:2560   */\n      0x04\n        /* \"#utility.yul\":2552:2567   */\n      mstore\n        /* \"#utility.yul\":2586:2590   */\n      0x24\n        /* \"#utility.yul\":2583:2584   */\n      0x00\n        /* \"#utility.yul\":2576:2591   */\n      revert\n        /* \"#utility.yul\":2603:2797   */\n    tag_24:\n        /* \"#utility.yul\":2643:2647   */\n      0x00\n        /* \"#utility.yul\":2663:2683   */\n      tag_112\n        /* \"#utility.yul\":2681:2682   */\n      dup3\n        /* \"#utility.yul\":2663:2683   */\n      tag_71\n      jump\t// in\n    tag_112:\n        /* \"#utility.yul\":2658:2683   */\n      swap2\n      pop\n        /* \"#utility.yul\":2697:2717   */\n      tag_113\n        /* \"#utility.yul\":2715:2716   */\n      dup4\n        /* \"#utility.yul\":2697:2717   */\n      tag_71\n      jump\t// in\n    tag_113:\n        /* \"#utility.yul\":2692:2717   */\n      swap3\n      pop\n        /* \"#utility.yul\":2741:2742   */\n      dup3\n        /* \"#utility.yul\":2738:2739   */\n      dup3\n        /* \"#utility.yul\":2734:2743   */\n      sub\n        /* \"#utility.yul\":2726:2743   */\n      swap1\n      pop\n        /* \"#utility.yul\":2765:2766   */\n      dup2\n        /* \"#utility.yul\":2759:2763   */\n      dup2\n        /* \"#utility.yul\":2756:2767   */\n      gt\n        /* \"#utility.yul\":2753:2790   */\n      iszero\n      tag_114\n      jumpi\n        /* \"#utility.yul\":2770:2788   */\n      tag_115\n      tag_72\n      jump\t// in\n    tag_115:\n        /* \"#utility.yul\":2753:2790   */\n    tag_114:\n        /* \"#utility.yul\":2603:2797   */\n      swap3\n      swap2\n      pop\n      pop\n      jump\t// out\n        /* \"#utility.yul\":2803:2880   */\n    tag_73:\n        /* \"#utility.yul\":2840:2847   */\n      0x00\n        /* \"#utility.yul\":2869:2874   */\n      dup2\n        /* \"#utility.yul\":2858:2874   */\n      swap1\n      pop\n        /* \"#utility.yul\":2803:2880   */\n      swap2\n      swap1\n      pop\n      jump\t// out\n        /* \"#utility.yul\":2886:2965   */\n    tag_74:\n        /* \"#utility.yul\":2925:2932   */\n      0x00\n        /* \"#utility.yul\":2954:2959   */\n      dup2\n        /* \"#utility.yul\":2943:2959   */\n      swap1\n      pop\n        /* \"#utility.yul\":2886:2965   */\n      swap2\n      swap1\n      pop\n      jump\t// out\n        /* \"#utility.yul\":2971:3128   */\n    tag_75:\n        /* \"#utility.yul\":3076:3121   */\n      tag_119\n        /* \"#utility.yul\":3096:3120   */\n      tag_120\n        /* \"#utility.yul\":3114:3119   */\n      dup3\n        /* \"#utility.yul\":3096:3120   */\n      tag_73\n      jump\t// in\n    tag_120:\n        /* \"#utility.yul\":3076:3121   */\n      tag_74\n      jump\t// in\n    tag_119:\n        /* \"#utility.yul\":3071:3074   */\n      dup3\n        /* \"#utility.yul\":3064:3122   */\n      mstore\n        /* \"#utility.yul\":2971:3128   */\n      pop\n      pop\n      jump\t// out\n        /* \"#utility.yul\":3134:3213   */\n    tag_76:\n        /* \"#utility.yul\":3173:3180   */\n      0x00\n        /* \"#utility.yul\":3202:3207   */\n      dup2\n        /* \"#utility.yul\":3191:3207   */\n      swap1\n      pop\n        /* \"#utility.yul\":3134:3213   */\n      swap2\n      swap1\n      pop\n      jump\t// out\n        /* \"#utility.yul\":3219:3376   */\n    tag_77:\n        /* \"#utility.yul\":3324:3369   */\n      tag_123\n        /* \"#utility.yul\":3344:3368   */\n      tag_124\n        /* \"#utility.yul\":3362:3367   */\n      dup3\n        /* \"#utility.yul\":3344:3368   */\n      tag_71\n      jump\t// in\n    tag_124:\n        /* \"#utility.yul\":3324:3369   */\n      tag_76\n      jump\t// in\n    tag_123:\n        /* \"#utility.yul\":3319:3322   */\n      dup3\n        /* \"#utility.yul\":3312:3370   */\n      mstore\n        /* \"#utility.yul\":3219:3376   */\n      pop\n      pop\n      jump\t// out\n        /* \"#utility.yul\":3382:3779   */\n    tag_26:\n        /* \"#utility.yul\":3522:3525   */\n      0x00\n        /* \"#utility.yul\":3537:3612   */\n      tag_126\n        /* \"#utility.yul\":3608:3611   */\n      dup3\n        /* \"#utility.yul\":3599:3605   */\n      dup6\n        /* \"#utility.yul\":3537:3612   */\n      tag_75\n      jump\t// in\n    tag_126:\n        /* \"#utility.yul\":3637:3639   */\n      0x20\n        /* \"#utility.yul\":3632:3635   */\n      dup3\n        /* \"#utility.yul\":3628:3640   */\n      add\n        /* \"#utility.yul\":3621:3640   */\n      swap2\n      pop\n        /* \"#utility.yul\":3650:3725   */\n      tag_127\n        /* \"#utility.yul\":3721:3724   */\n      dup3\n        /* \"#utility.yul\":3712:3718   */\n      dup5\n        /* \"#utility.yul\":3650:3725   */\n      tag_77\n      jump\t// in\n    tag_127:\n        /* \"#utility.yul\":3750:3752   */\n      0x20\n        /* \"#utility.yul\":3745:3748   */\n      dup3\n        /* \"#utility.yul\":3741:3753   */\n      add\n        /* \"#utility.yul\":3734:3753   */\n      swap2\n      pop\n        /* \"#utility.yul\":3770:3773   */\n      dup2\n        /* \"#utility.yul\":3763:3773   */\n      swap1\n      pop\n        /* \"#utility.yul\":3382:3779   */\n      swap4\n      swap3\n      pop\n      pop\n      pop\n      jump\t// out\n        /* \"#utility.yul\":3785:3965   */\n    tag_78:\n        /* \"#utility.yul\":3833:3910   */\n      0x4e487b7100000000000000000000000000000000000000000000000000000000\n        /* \"#utility.yul\":3830:3831   */\n      0x00\n        /* \"#utility.yul\":3823:3911   */\n      mstore\n        /* \"#utility.yul\":3930:3934   */\n      0x12\n        /* \"#utility.yul\":3927:3928   */\n      0x04\n        /* \"#utility.yul\":3920:3935   */\n      mstore\n        /* \"#utility.yul\":3954:3958   */\n      0x24\n        /* \"#utility.yul\":3951:3952   */\n      0x00\n        /* \"#utility.yul\":3944:3959   */\n      revert\n        /* \"#utility.yul\":3971:4147   */\n    tag_28:\n        /* \"#utility.yul\":4003:4004   */\n      0x00\n        /* \"#utility.yul\":4020:4040   */\n      tag_130\n        /* \"#utility.yul\":4038:4039   */\n      dup3\n        /* \"#utility.yul\":4020:4040   */\n      tag_71\n      jump\t// in\n    tag_130:\n        /* \"#utility.yul\":4015:4040   */\n      swap2\n      pop\n        /* \"#utility.yul\":4054:4074   */\n      tag_131\n        /* \"#utility.yul\":4072:4073   */\n      dup4\n        /* \"#utility.yul\":4054:4074   */\n      tag_71\n      jump\t// in\n    tag_131:\n        /* \"#utility.yul\":4049:4074   */\n      swap3\n      pop\n        /* \"#utility.yul\":4093:4094   */\n      dup3\n        /* \"#utility.yul\":4083:4118   */\n      tag_132\n      jumpi\n        /* \"#utility.yul\":4098:4116   */\n      tag_133\n      tag_78\n      jump\t// in\n    tag_133:\n        /* \"#utility.yul\":4083:4118   */\n    tag_132:\n        /* \"#utility.yul\":4139:4140   */\n      dup3\n        /* \"#utility.yul\":4136:4137   */\n      dup3\n        /* \"#utility.yul\":4132:4141   */\n      mod\n        /* \"#utility.yul\":4127:4141   */\n      swap1\n      pop\n        /* \"#utility.yul\":3971:4147   */\n      swap3\n      swap2\n      pop\n      pop\n      jump\t// out\n        /* \"#utility.yul\":4153:4333   */\n    tag_31:\n        /* \"#utility.yul\":4201:4278   */\n      0x4e487b7100000000000000000000000000000000000000000000000000000000\n        /* \"#utility.yul\":4198:4199   */\n      0x00\n        /* \"#utility.yul\":4191:4279   */\n      mstore\n        /* \"#utility.yul\":4298:4302   */\n      0x32\n        /* \"#utility.yul\":4295:4296   */\n      0x04\n        /* \"#utility.yul\":4288:4303   */\n      mstore\n        /* \"#utility.yul\":4322:4326   */\n      0x24\n        /* \"#utility.yul\":4319:4320   */\n      0x00\n        /* \"#utility.yul\":4312:4327   */\n      revert\n        /* \"#utility.yul\":4339:4486   */\n    tag_79:\n        /* \"#utility.yul\":4440:4451   */\n      0x00\n        /* \"#utility.yul\":4477:4480   */\n      dup2\n        /* \"#utility.yul\":4462:4480   */\n      swap1\n      pop\n        /* \"#utility.yul\":4339:4486   */\n      swap3\n      swap2\n      pop\n      pop\n      jump\t// out\n        /* \"#utility.yul\":4492:4606   */\n    tag_80:\n      pop\n      jump\t// out\n        /* \"#utility.yul\":4612:5010   */\n    tag_81:\n        /* \"#utility.yul\":4771:4774   */\n      0x00\n        /* \"#utility.yul\":4792:4875   */\n      tag_138\n        /* \"#utility.yul\":4873:4874   */\n      0x00\n        /* \"#utility.yul\":4868:4871   */\n      dup4\n        /* \"#utility.yul\":4792:4875   */\n      tag_79\n      jump\t// in\n    tag_138:\n        /* \"#utility.yul\":4785:4875   */\n      swap2\n      pop\n        /* \"#utility.yul\":4884:4977   */\n      tag_139\n        /* \"#utility.yul\":4973:4976   */\n      dup3\n        /* \"#utility.yul\":4884:4977   */\n      tag_80\n      jump\t// in\n    tag_139:\n        /* \"#utility.yul\":5002:5003   */\n      0x00\n        /* \"#utility.yul\":4997:5000   */\n      dup3\n        /* \"#utility.yul\":4993:5004   */\n      add\n        /* \"#utility.yul\":4986:5004   */\n      swap1\n      pop\n        /* \"#utility.yul\":4612:5010   */\n      swap2\n      swap1\n      pop\n      jump\t// out\n        /* \"#utility.yul\":5016:5395   */\n    tag_38:\n        /* \"#utility.yul\":5200:5203   */\n      0x00\n        /* \"#utility.yul\":5222:5369   */\n      tag_141\n        /* \"#utility.yul\":5365:5368   */\n      dup3\n        /* \"#utility.yul\":5222:5369   */\n      tag_81\n      jump\t// in\n    tag_141:\n        /* \"#utility.yul\":5215:5369   */\n      swap2\n      pop\n        /* \"#utility.yul\":5386:5389   */\n      dup2\n        /* \"#utility.yul\":5379:5389   */\n      swap1\n      pop\n        /* \"#utility.yul\":5016:5395   */\n      swap2\n      swap1\n      pop\n      jump\t// out\n        /* \"#utility.yul\":5401:5562   */\n    tag_82:\n        /* \"#utility.yul\":5541:5554   */\n      0x43616c6c206661696c6564000000000000000000000000000000000000000000\n        /* \"#utility.yul\":5537:5538   */\n      0x00\n        /* \"#utility.yul\":5529:5535   */\n      dup3\n        /* \"#utility.yul\":5525:5539   */\n      add\n        /* \"#utility.yul\":5518:5555   */\n      mstore\n        /* \"#utility.yul\":5401:5562   */\n      pop\n      jump\t// out\n        /* \"#utility.yul\":5568:5934   */\n    tag_83:\n        /* \"#utility.yul\":5710:5713   */\n      0x00\n        /* \"#utility.yul\":5731:5798   */\n      tag_144\n        /* \"#utility.yul\":5795:5797   */\n      0x0b\n        /* \"#utility.yul\":5790:5793   */\n      dup4\n        /* \"#utility.yul\":5731:5798   */\n      tag_68\n      jump\t// in\n    tag_144:\n        /* \"#utility.yul\":5724:5798   */\n      swap2\n      pop\n        /* \"#utility.yul\":5807:5900   */\n      tag_145\n        /* \"#utility.yul\":5896:5899   */\n      dup3\n        /* \"#utility.yul\":5807:5900   */\n      tag_82\n      jump\t// in\n    tag_145:\n        /* \"#utility.yul\":5925:5927   */\n      0x20\n        /* \"#utility.yul\":5920:5923   */\n      dup3\n        /* \"#utility.yul\":5916:5928   */\n      add\n        /* \"#utility.yul\":5909:5928   */\n      swap1\n      pop\n        /* \"#utility.yul\":5568:5934   */\n      swap2\n      swap1\n      pop\n      jump\t// out\n        /* \"#utility.yul\":5940:6359   */\n    tag_44:\n        /* \"#utility.yul\":6106:6110   */\n      0x00\n        /* \"#utility.yul\":6144:6146   */\n      0x20\n        /* \"#utility.yul\":6133:6142   */\n      dup3\n        /* \"#utility.yul\":6129:6147   */\n      add\n        /* \"#utility.yul\":6121:6147   */\n      swap1\n      pop\n        /* \"#utility.yul\":6193:6202   */\n      dup2\n        /* \"#utility.yul\":6187:6191   */\n      dup2\n        /* \"#utility.yul\":6183:6203   */\n      sub\n        /* \"#utility.yul\":6179:6180   */\n      0x00\n        /* \"#utility.yul\":6168:6177   */\n      dup4\n        /* \"#utility.yul\":6164:6181   */\n      add\n        /* \"#utility.yul\":6157:6204   */\n      mstore\n        /* \"#utility.yul\":6221:6352   */\n      tag_147\n        /* \"#utility.yul\":6347:6351   */\n      dup2\n        /* \"#utility.yul\":6221:6352   */\n      tag_83\n      jump\t// in\n    tag_147:\n        /* \"#utility.yul\":6213:6352   */\n      swap1\n      pop\n        /* \"#utility.yul\":5940:6359   */\n      swap2\n      swap1\n      pop\n      jump\t// out\n        /* \"#utility.yul\":6365:6539   */\n    tag_84:\n        /* \"#utility.yul\":6505:6531   */\n      0x4e6f7420656e6f75676820457468657265756d2073656e740000000000000000\n        /* \"#utility.yul\":6501:6502   */\n      0x00\n        /* \"#utility.yul\":6493:6499   */\n      dup3\n        /* \"#utility.yul\":6489:6503   */\n      add\n        /* \"#utility.yul\":6482:6532   */\n      mstore\n        /* \"#utility.yul\":6365:6539   */\n      pop\n      jump\t// out\n        /* \"#utility.yul\":6545:6911   */\n    tag_85:\n        /* \"#utility.yul\":6687:6690   */\n      0x00\n        /* \"#utility.yul\":6708:6775   */\n      tag_150\n        /* \"#utility.yul\":6772:6774   */\n      0x18\n        /* \"#utility.yul\":6767:6770   */\n      dup4\n        /* \"#utility.yul\":6708:6775   */\n      tag_68\n      jump\t// in\n    tag_150:\n        /* \"#utility.yul\":6701:6775   */\n      swap2\n      pop\n        /* \"#utility.yul\":6784:6877   */\n      tag_151\n        /* \"#utility.yul\":6873:6876   */\n      dup3\n        /* \"#utility.yul\":6784:6877   */\n      tag_84\n      jump\t// in\n    tag_151:\n        /* \"#utility.yul\":6902:6904   */\n      0x20\n        /* \"#utility.yul\":6897:6900   */\n      dup3\n        /* \"#utility.yul\":6893:6905   */\n      add\n        /* \"#utility.yul\":6886:6905   */\n      swap1\n      pop\n        /* \"#utility.yul\":6545:6911   */\n      swap2\n      swap1\n      pop\n      jump\t// out\n        /* \"#utility.yul\":6917:7336   */\n    tag_48:\n        /* \"#utility.yul\":7083:7087   */\n      0x00\n        /* \"#utility.yul\":7121:7123   */\n      0x20\n        /* \"#utility.yul\":7110:7119   */\n      dup3\n        /* \"#utility.yul\":7106:7124   */\n      add\n        /* \"#utility.yul\":7098:7124   */\n      swap1\n      pop\n        /* \"#utility.yul\":7170:7179   */\n      dup2\n        /* \"#utility.yul\":7164:7168   */\n      dup2\n        /* \"#utility.yul\":7160:7180   */\n      sub\n        /* \"#utility.yul\":7156:7157   */\n      0x00\n        /* \"#utility.yul\":7145:7154   */\n      dup4\n        /* \"#utility.yul\":7141:7158   */\n      add\n        /* \"#utility.yul\":7134:7181   */\n      mstore\n        /* \"#utility.yul\":7198:7329   */\n      tag_153\n        /* \"#utility.yul\":7324:7328   */\n      dup2\n        /* \"#utility.yul\":7198:7329   */\n      tag_85\n      jump\t// in\n    tag_153:\n        /* \"#utility.yul\":7190:7329   */\n      swap1\n      pop\n        /* \"#utility.yul\":6917:7336   */\n      swap2\n      swap1\n      pop\n      jump\t// out\n        /* \"#utility.yul\":7342:7533   */\n    tag_50:\n        /* \"#utility.yul\":7382:7385   */\n      0x00\n        /* \"#utility.yul\":7401:7421   */\n      tag_155\n        /* \"#utility.yul\":7419:7420   */\n      dup3\n        /* \"#utility.yul\":7401:7421   */\n      tag_71\n      jump\t// in\n    tag_155:\n        /* \"#utility.yul\":7396:7421   */\n      swap2\n      pop\n        /* \"#utility.yul\":7435:7455   */\n      tag_156\n        /* \"#utility.yul\":7453:7454   */\n      dup4\n        /* \"#utility.yul\":7435:7455   */\n      tag_71\n      jump\t// in\n    tag_156:\n        /* \"#utility.yul\":7430:7455   */\n      swap3\n      pop\n        /* \"#utility.yul\":7478:7479   */\n      dup3\n        /* \"#utility.yul\":7475:7476   */\n      dup3\n        /* \"#utility.yul\":7471:7480   */\n      add\n        /* \"#utility.yul\":7464:7480   */\n      swap1\n      pop\n        /* \"#utility.yul\":7499:7502   */\n      dup1\n        /* \"#utility.yul\":7496:7497   */\n      dup3\n        /* \"#utility.yul\":7493:7503   */\n      gt\n        /* \"#utility.yul\":7490:7526   */\n      iszero\n      tag_157\n      jumpi\n        /* \"#utility.yul\":7506:7524   */\n      tag_158\n      tag_72\n      jump\t// in\n    tag_158:\n        /* \"#utility.yul\":7490:7526   */\n    tag_157:\n        /* \"#utility.yul\":7342:7533   */\n      swap3\n      swap2\n      pop\n      pop\n      jump\t// out\n\n    auxdata: 0xa26469706673582212201e979b01927bd999398e8aa6f058bde65d2eecad19d201b2a814904e7cfd232264736f6c63430008150033\n}\n",
				"bytecode": {
					"linkReferences": {},
					"object": "60a060405234801561000f575f80fd5b503373ffffffffffffffffffffffffffffffffffffffff1660808173ffffffffffffffffffffffffffffffffffffffff168152505060805161092b6100695f395f8181608a015281816101f2015261041a015261092b5ff3fe60806040526004361061003e575f3560e01c806333b16d93146100425780633ccfd60b146100585780636c77f98914610062578063aaca875b1461006c575b5f80fd5b34801561004d575f80fd5b50610056610088565b005b6100606101f0565b005b61006a610320565b005b610086600480360381019061008191906105a7565b610418565b005b7f000000000000000000000000000000000000000000000000000000000000000073ffffffffffffffffffffffffffffffffffffffff163373ffffffffffffffffffffffffffffffffffffffff161461010d576040517f251c9d6300000000000000000000000000000000000000000000000000000000815260040160405180910390fd5b5f60018054905011610154576040517f08c379a000000000000000000000000000000000000000000000000000000000815260040161014b9061062c565b60405180910390fd5b5f6001436101629190610680565b40426040516020016101759291906106fc565b604051602081830303815290604052805190602001205f1c90505f600180549050826101a19190610754565b90505f600182815481106101b8576101b7610784565b5b905f5260205f20015f9054906101000a900473ffffffffffffffffffffffffffffffffffffffff1690506101eb81610418565b505050565b7f000000000000000000000000000000000000000000000000000000000000000073ffffffffffffffffffffffffffffffffffffffff163373ffffffffffffffffffffffffffffffffffffffff1614610275576040517f251c9d6300000000000000000000000000000000000000000000000000000000815260040160405180910390fd5b5f3373ffffffffffffffffffffffffffffffffffffffff164760405161029a906107de565b5f6040518083038185875af1925050503d805f81146102d4576040519150601f19603f3d011682016040523d82523d5f602084013e6102d9565b606091505b505090508061031d576040517f08c379a00000000000000000000000000000000000000000000000000000000081526004016103149061083c565b60405180910390fd5b50565b6175303411610364576040517f08c379a000000000000000000000000000000000000000000000000000000000815260040161035b906108a4565b60405180910390fd5b345f803373ffffffffffffffffffffffffffffffffffffffff1673ffffffffffffffffffffffffffffffffffffffff1681526020019081526020015f205f8282546103af91906108c2565b92505081905550600133908060018154018082558091505060019003905f5260205f20015f9091909190916101000a81548173ffffffffffffffffffffffffffffffffffffffff021916908373ffffffffffffffffffffffffffffffffffffffff160217905550565b7f000000000000000000000000000000000000000000000000000000000000000073ffffffffffffffffffffffffffffffffffffffff163373ffffffffffffffffffffffffffffffffffffffff161461049d576040517f251c9d6300000000000000000000000000000000000000000000000000000000815260040160405180910390fd5b5f8173ffffffffffffffffffffffffffffffffffffffff16476040516104c2906107de565b5f6040518083038185875af1925050503d805f81146104fc576040519150601f19603f3d011682016040523d82523d5f602084013e610501565b606091505b5050905080610545576040517f08c379a000000000000000000000000000000000000000000000000000000000815260040161053c9061083c565b60405180910390fd5b5050565b5f80fd5b5f73ffffffffffffffffffffffffffffffffffffffff82169050919050565b5f6105768261054d565b9050919050565b6105868161056c565b8114610590575f80fd5b50565b5f813590506105a18161057d565b92915050565b5f602082840312156105bc576105bb610549565b5b5f6105c984828501610593565b91505092915050565b5f82825260208201905092915050565b7f4e6f207061727469636970616e747320696e20746865206c6f747465727900005f82015250565b5f610616601e836105d2565b9150610621826105e2565b602082019050919050565b5f6020820190508181035f8301526106438161060a565b9050919050565b5f819050919050565b7f4e487b71000000000000000000000000000000000000000000000000000000005f52601160045260245ffd5b5f61068a8261064a565b91506106958361064a565b92508282039050818111156106ad576106ac610653565b5b92915050565b5f819050919050565b5f819050919050565b6106d66106d1826106b3565b6106bc565b82525050565b5f819050919050565b6106f66106f18261064a565b6106dc565b82525050565b5f61070782856106c5565b60208201915061071782846106e5565b6020820191508190509392505050565b7f4e487b71000000000000000000000000000000000000000000000000000000005f52601260045260245ffd5b5f61075e8261064a565b91506107698361064a565b92508261077957610778610727565b5b828206905092915050565b7f4e487b71000000000000000000000000000000000000000000000000000000005f52603260045260245ffd5b5f81905092915050565b50565b5f6107c95f836107b1565b91506107d4826107bb565b5f82019050919050565b5f6107e8826107be565b9150819050919050565b7f43616c6c206661696c65640000000000000000000000000000000000000000005f82015250565b5f610826600b836105d2565b9150610831826107f2565b602082019050919050565b5f6020820190508181035f8301526108538161081a565b9050919050565b7f4e6f7420656e6f75676820457468657265756d2073656e7400000000000000005f82015250565b5f61088e6018836105d2565b91506108998261085a565b602082019050919050565b5f6020820190508181035f8301526108bb81610882565b9050919050565b5f6108cc8261064a565b91506108d78361064a565b92508282019050808211156108ef576108ee610653565b5b9291505056fea26469706673582212201e979b01927bd999398e8aa6f058bde65d2eecad19d201b2a814904e7cfd232264736f6c63430008150033",
					"opcodes": "PUSH1 0xA0 PUSH1 0x40 MSTORE CALLVALUE DUP1 ISZERO PUSH2 0xF JUMPI PUSH0 DUP1 REVERT JUMPDEST POP CALLER PUSH20 0xFFFFFFFFFFFFFFFFFFFFFFFFFFFFFFFFFFFFFFFF AND PUSH1 0x80 DUP2 PUSH20 0xFFFFFFFFFFFFFFFFFFFFFFFFFFFFFFFFFFFFFFFF AND DUP2 MSTORE POP POP PUSH1 0x80 MLOAD PUSH2 0x92B PUSH2 0x69 PUSH0 CODECOPY PUSH0 DUP2 DUP2 PUSH1 0x8A ADD MSTORE DUP2 DUP2 PUSH2 0x1F2 ADD MSTORE PUSH2 0x41A ADD MSTORE PUSH2 0x92B PUSH0 RETURN INVALID PUSH1 0x80 PUSH1 0x40 MSTORE PUSH1 0x4 CALLDATASIZE LT PUSH2 0x3E JUMPI PUSH0 CALLDATALOAD PUSH1 0xE0 SHR DUP1 PUSH4 0x33B16D93 EQ PUSH2 0x42 JUMPI DUP1 PUSH4 0x3CCFD60B EQ PUSH2 0x58 JUMPI DUP1 PUSH4 0x6C77F989 EQ PUSH2 0x62 JUMPI DUP1 PUSH4 0xAACA875B EQ PUSH2 0x6C JUMPI JUMPDEST PUSH0 DUP1 REVERT JUMPDEST CALLVALUE DUP1 ISZERO PUSH2 0x4D JUMPI PUSH0 DUP1 REVERT JUMPDEST POP PUSH2 0x56 PUSH2 0x88 JUMP JUMPDEST STOP JUMPDEST PUSH2 0x60 PUSH2 0x1F0 JUMP JUMPDEST STOP JUMPDEST PUSH2 0x6A PUSH2 0x320 JUMP JUMPDEST STOP JUMPDEST PUSH2 0x86 PUSH1 0x4 DUP1 CALLDATASIZE SUB DUP2 ADD SWAP1 PUSH2 0x81 SWAP2 SWAP1 PUSH2 0x5A7 JUMP JUMPDEST PUSH2 0x418 JUMP JUMPDEST STOP JUMPDEST PUSH32 0x0 PUSH20 0xFFFFFFFFFFFFFFFFFFFFFFFFFFFFFFFFFFFFFFFF AND CALLER PUSH20 0xFFFFFFFFFFFFFFFFFFFFFFFFFFFFFFFFFFFFFFFF AND EQ PUSH2 0x10D JUMPI PUSH1 0x40 MLOAD PUSH32 0x251C9D6300000000000000000000000000000000000000000000000000000000 DUP2 MSTORE PUSH1 0x4 ADD PUSH1 0x40 MLOAD DUP1 SWAP2 SUB SWAP1 REVERT JUMPDEST PUSH0 PUSH1 0x1 DUP1 SLOAD SWAP1 POP GT PUSH2 0x154 JUMPI PUSH1 0x40 MLOAD PUSH32 0x8C379A000000000000000000000000000000000000000000000000000000000 DUP2 MSTORE PUSH1 0x4 ADD PUSH2 0x14B SWAP1 PUSH2 0x62C JUMP JUMPDEST PUSH1 0x40 MLOAD DUP1 SWAP2 SUB SWAP1 REVERT JUMPDEST PUSH0 PUSH1 0x1 NUMBER PUSH2 0x162 SWAP2 SWAP1 PUSH2 0x680 JUMP JUMPDEST BLOCKHASH TIMESTAMP PUSH1 0x40 MLOAD PUSH1 0x20 ADD PUSH2 0x175 SWAP3 SWAP2 SWAP1 PUSH2 0x6FC JUMP JUMPDEST PUSH1 0x40 MLOAD PUSH1 0x20 DUP2 DUP4 SUB SUB DUP2 MSTORE SWAP1 PUSH1 0x40 MSTORE DUP1 MLOAD SWAP1 PUSH1 0x20 ADD KECCAK256 PUSH0 SHR SWAP1 POP PUSH0 PUSH1 0x1 DUP1 SLOAD SWAP1 POP DUP3 PUSH2 0x1A1 SWAP2 SWAP1 PUSH2 0x754 JUMP JUMPDEST SWAP1 POP PUSH0 PUSH1 0x1 DUP3 DUP2 SLOAD DUP2 LT PUSH2 0x1B8 JUMPI PUSH2 0x1B7 PUSH2 0x784 JUMP JUMPDEST JUMPDEST SWAP1 PUSH0 MSTORE PUSH1 0x20 PUSH0 KECCAK256 ADD PUSH0 SWAP1 SLOAD SWAP1 PUSH2 0x100 EXP SWAP1 DIV PUSH20 0xFFFFFFFFFFFFFFFFFFFFFFFFFFFFFFFFFFFFFFFF AND SWAP1 POP PUSH2 0x1EB DUP2 PUSH2 0x418 JUMP JUMPDEST POP POP POP JUMP JUMPDEST PUSH32 0x0 PUSH20 0xFFFFFFFFFFFFFFFFFFFFFFFFFFFFFFFFFFFFFFFF AND CALLER PUSH20 0xFFFFFFFFFFFFFFFFFFFFFFFFFFFFFFFFFFFFFFFF AND EQ PUSH2 0x275 JUMPI PUSH1 0x40 MLOAD PUSH32 0x251C9D6300000000000000000000000000000000000000000000000000000000 DUP2 MSTORE PUSH1 0x4 ADD PUSH1 0x40 MLOAD DUP1 SWAP2 SUB SWAP1 REVERT JUMPDEST PUSH0 CALLER PUSH20 0xFFFFFFFFFFFFFFFFFFFFFFFFFFFFFFFFFFFFFFFF AND SELFBALANCE PUSH1 0x40 MLOAD PUSH2 0x29A SWAP1 PUSH2 0x7DE JUMP JUMPDEST PUSH0 PUSH1 0x40 MLOAD DUP1 DUP4 SUB DUP2 DUP6 DUP8 GAS CALL SWAP3 POP POP POP RETURNDATASIZE DUP1 PUSH0 DUP2 EQ PUSH2 0x2D4 JUMPI PUSH1 0x40 MLOAD SWAP2 POP PUSH1 0x1F NOT PUSH1 0x3F RETURNDATASIZE ADD AND DUP3 ADD PUSH1 0x40 MSTORE RETURNDATASIZE DUP3 MSTORE RETURNDATASIZE PUSH0 PUSH1 0x20 DUP5 ADD RETURNDATACOPY PUSH2 0x2D9 JUMP JUMPDEST PUSH1 0x60 SWAP2 POP JUMPDEST POP POP SWAP1 POP DUP1 PUSH2 0x31D JUMPI PUSH1 0x40 MLOAD PUSH32 0x8C379A000000000000000000000000000000000000000000000000000000000 DUP2 MSTORE PUSH1 0x4 ADD PUSH2 0x314 SWAP1 PUSH2 0x83C JUMP JUMPDEST PUSH1 0x40 MLOAD DUP1 SWAP2 SUB SWAP1 REVERT JUMPDEST POP JUMP JUMPDEST PUSH2 0x7530 CALLVALUE GT PUSH2 0x364 JUMPI PUSH1 0x40 MLOAD PUSH32 0x8C379A000000000000000000000000000000000000000000000000000000000 DUP2 MSTORE PUSH1 0x4 ADD PUSH2 0x35B SWAP1 PUSH2 0x8A4 JUMP JUMPDEST PUSH1 0x40 MLOAD DUP1 SWAP2 SUB SWAP1 REVERT JUMPDEST CALLVALUE PUSH0 DUP1 CALLER PUSH20 0xFFFFFFFFFFFFFFFFFFFFFFFFFFFFFFFFFFFFFFFF AND PUSH20 0xFFFFFFFFFFFFFFFFFFFFFFFFFFFFFFFFFFFFFFFF AND DUP2 MSTORE PUSH1 0x20 ADD SWAP1 DUP2 MSTORE PUSH1 0x20 ADD PUSH0 KECCAK256 PUSH0 DUP3 DUP3 SLOAD PUSH2 0x3AF SWAP2 SWAP1 PUSH2 0x8C2 JUMP JUMPDEST SWAP3 POP POP DUP2 SWAP1 SSTORE POP PUSH1 0x1 CALLER SWAP1 DUP1 PUSH1 0x1 DUP2 SLOAD ADD DUP1 DUP3 SSTORE DUP1 SWAP2 POP POP PUSH1 0x1 SWAP1 SUB SWAP1 PUSH0 MSTORE PUSH1 0x20 PUSH0 KECCAK256 ADD PUSH0 SWAP1 SWAP2 SWAP1 SWAP2 SWAP1 SWAP2 PUSH2 0x100 EXP DUP2 SLOAD DUP2 PUSH20 0xFFFFFFFFFFFFFFFFFFFFFFFFFFFFFFFFFFFFFFFF MUL NOT AND SWAP1 DUP4 PUSH20 0xFFFFFFFFFFFFFFFFFFFFFFFFFFFFFFFFFFFFFFFF AND MUL OR SWAP1 SSTORE POP JUMP JUMPDEST PUSH32 0x0 PUSH20 0xFFFFFFFFFFFFFFFFFFFFFFFFFFFFFFFFFFFFFFFF AND CALLER PUSH20 0xFFFFFFFFFFFFFFFFFFFFFFFFFFFFFFFFFFFFFFFF AND EQ PUSH2 0x49D JUMPI PUSH1 0x40 MLOAD PUSH32 0x251C9D6300000000000000000000000000000000000000000000000000000000 DUP2 MSTORE PUSH1 0x4 ADD PUSH1 0x40 MLOAD DUP1 SWAP2 SUB SWAP1 REVERT JUMPDEST PUSH0 DUP2 PUSH20 0xFFFFFFFFFFFFFFFFFFFFFFFFFFFFFFFFFFFFFFFF AND SELFBALANCE PUSH1 0x40 MLOAD PUSH2 0x4C2 SWAP1 PUSH2 0x7DE JUMP JUMPDEST PUSH0 PUSH1 0x40 MLOAD DUP1 DUP4 SUB DUP2 DUP6 DUP8 GAS CALL SWAP3 POP POP POP RETURNDATASIZE DUP1 PUSH0 DUP2 EQ PUSH2 0x4FC JUMPI PUSH1 0x40 MLOAD SWAP2 POP PUSH1 0x1F NOT PUSH1 0x3F RETURNDATASIZE ADD AND DUP3 ADD PUSH1 0x40 MSTORE RETURNDATASIZE DUP3 MSTORE RETURNDATASIZE PUSH0 PUSH1 0x20 DUP5 ADD RETURNDATACOPY PUSH2 0x501 JUMP JUMPDEST PUSH1 0x60 SWAP2 POP JUMPDEST POP POP SWAP1 POP DUP1 PUSH2 0x545 JUMPI PUSH1 0x40 MLOAD PUSH32 0x8C379A000000000000000000000000000000000000000000000000000000000 DUP2 MSTORE PUSH1 0x4 ADD PUSH2 0x53C SWAP1 PUSH2 0x83C JUMP JUMPDEST PUSH1 0x40 MLOAD DUP1 SWAP2 SUB SWAP1 REVERT JUMPDEST POP POP JUMP JUMPDEST PUSH0 DUP1 REVERT JUMPDEST PUSH0 PUSH20 0xFFFFFFFFFFFFFFFFFFFFFFFFFFFFFFFFFFFFFFFF DUP3 AND SWAP1 POP SWAP2 SWAP1 POP JUMP JUMPDEST PUSH0 PUSH2 0x576 DUP3 PUSH2 0x54D JUMP JUMPDEST SWAP1 POP SWAP2 SWAP1 POP JUMP JUMPDEST PUSH2 0x586 DUP2 PUSH2 0x56C JUMP JUMPDEST DUP2 EQ PUSH2 0x590 JUMPI PUSH0 DUP1 REVERT JUMPDEST POP JUMP JUMPDEST PUSH0 DUP2 CALLDATALOAD SWAP1 POP PUSH2 0x5A1 DUP2 PUSH2 0x57D JUMP JUMPDEST SWAP3 SWAP2 POP POP JUMP JUMPDEST PUSH0 PUSH1 0x20 DUP3 DUP5 SUB SLT ISZERO PUSH2 0x5BC JUMPI PUSH2 0x5BB PUSH2 0x549 JUMP JUMPDEST JUMPDEST PUSH0 PUSH2 0x5C9 DUP5 DUP3 DUP6 ADD PUSH2 0x593 JUMP JUMPDEST SWAP2 POP POP SWAP3 SWAP2 POP POP JUMP JUMPDEST PUSH0 DUP3 DUP3 MSTORE PUSH1 0x20 DUP3 ADD SWAP1 POP SWAP3 SWAP2 POP POP JUMP JUMPDEST PUSH32 0x4E6F207061727469636970616E747320696E20746865206C6F74746572790000 PUSH0 DUP3 ADD MSTORE POP JUMP JUMPDEST PUSH0 PUSH2 0x616 PUSH1 0x1E DUP4 PUSH2 0x5D2 JUMP JUMPDEST SWAP2 POP PUSH2 0x621 DUP3 PUSH2 0x5E2 JUMP JUMPDEST PUSH1 0x20 DUP3 ADD SWAP1 POP SWAP2 SWAP1 POP JUMP JUMPDEST PUSH0 PUSH1 0x20 DUP3 ADD SWAP1 POP DUP2 DUP2 SUB PUSH0 DUP4 ADD MSTORE PUSH2 0x643 DUP2 PUSH2 0x60A JUMP JUMPDEST SWAP1 POP SWAP2 SWAP1 POP JUMP JUMPDEST PUSH0 DUP2 SWAP1 POP SWAP2 SWAP1 POP JUMP JUMPDEST PUSH32 0x4E487B7100000000000000000000000000000000000000000000000000000000 PUSH0 MSTORE PUSH1 0x11 PUSH1 0x4 MSTORE PUSH1 0x24 PUSH0 REVERT JUMPDEST PUSH0 PUSH2 0x68A DUP3 PUSH2 0x64A JUMP JUMPDEST SWAP2 POP PUSH2 0x695 DUP4 PUSH2 0x64A JUMP JUMPDEST SWAP3 POP DUP3 DUP3 SUB SWAP1 POP DUP2 DUP2 GT ISZERO PUSH2 0x6AD JUMPI PUSH2 0x6AC PUSH2 0x653 JUMP JUMPDEST JUMPDEST SWAP3 SWAP2 POP POP JUMP JUMPDEST PUSH0 DUP2 SWAP1 POP SWAP2 SWAP1 POP JUMP JUMPDEST PUSH0 DUP2 SWAP1 POP SWAP2 SWAP1 POP JUMP JUMPDEST PUSH2 0x6D6 PUSH2 0x6D1 DUP3 PUSH2 0x6B3 JUMP JUMPDEST PUSH2 0x6BC JUMP JUMPDEST DUP3 MSTORE POP POP JUMP JUMPDEST PUSH0 DUP2 SWAP1 POP SWAP2 SWAP1 POP JUMP JUMPDEST PUSH2 0x6F6 PUSH2 0x6F1 DUP3 PUSH2 0x64A JUMP JUMPDEST PUSH2 0x6DC JUMP JUMPDEST DUP3 MSTORE POP POP JUMP JUMPDEST PUSH0 PUSH2 0x707 DUP3 DUP6 PUSH2 0x6C5 JUMP JUMPDEST PUSH1 0x20 DUP3 ADD SWAP2 POP PUSH2 0x717 DUP3 DUP5 PUSH2 0x6E5 JUMP JUMPDEST PUSH1 0x20 DUP3 ADD SWAP2 POP DUP2 SWAP1 POP SWAP4 SWAP3 POP POP POP JUMP JUMPDEST PUSH32 0x4E487B7100000000000000000000000000000000000000000000000000000000 PUSH0 MSTORE PUSH1 0x12 PUSH1 0x4 MSTORE PUSH1 0x24 PUSH0 REVERT JUMPDEST PUSH0 PUSH2 0x75E DUP3 PUSH2 0x64A JUMP JUMPDEST SWAP2 POP PUSH2 0x769 DUP4 PUSH2 0x64A JUMP JUMPDEST SWAP3 POP DUP3 PUSH2 0x779 JUMPI PUSH2 0x778 PUSH2 0x727 JUMP JUMPDEST JUMPDEST DUP3 DUP3 MOD SWAP1 POP SWAP3 SWAP2 POP POP JUMP JUMPDEST PUSH32 0x4E487B7100000000000000000000000000000000000000000000000000000000 PUSH0 MSTORE PUSH1 0x32 PUSH1 0x4 MSTORE PUSH1 0x24 PUSH0 REVERT JUMPDEST PUSH0 DUP2 SWAP1 POP SWAP3 SWAP2 POP POP JUMP JUMPDEST POP JUMP JUMPDEST PUSH0 PUSH2 0x7C9 PUSH0 DUP4 PUSH2 0x7B1 JUMP JUMPDEST SWAP2 POP PUSH2 0x7D4 DUP3 PUSH2 0x7BB JUMP JUMPDEST PUSH0 DUP3 ADD SWAP1 POP SWAP2 SWAP1 POP JUMP JUMPDEST PUSH0 PUSH2 0x7E8 DUP3 PUSH2 0x7BE JUMP JUMPDEST SWAP2 POP DUP2 SWAP1 POP SWAP2 SWAP1 POP JUMP JUMPDEST PUSH32 0x43616C6C206661696C6564000000000000000000000000000000000000000000 PUSH0 DUP3 ADD MSTORE POP JUMP JUMPDEST PUSH0 PUSH2 0x826 PUSH1 0xB DUP4 PUSH2 0x5D2 JUMP JUMPDEST SWAP2 POP PUSH2 0x831 DUP3 PUSH2 0x7F2 JUMP JUMPDEST PUSH1 0x20 DUP3 ADD SWAP1 POP SWAP2 SWAP1 POP JUMP JUMPDEST PUSH0 PUSH1 0x20 DUP3 ADD SWAP1 POP DUP2 DUP2 SUB PUSH0 DUP4 ADD MSTORE PUSH2 0x853 DUP2 PUSH2 0x81A JUMP JUMPDEST SWAP1 POP SWAP2 SWAP1 POP JUMP JUMPDEST PUSH32 0x4E6F7420656E6F75676820457468657265756D2073656E740000000000000000 PUSH0 DUP3 ADD MSTORE POP JUMP JUMPDEST PUSH0 PUSH2 0x88E PUSH1 0x18 DUP4 PUSH2 0x5D2 JUMP JUMPDEST SWAP2 POP PUSH2 0x899 DUP3 PUSH2 0x85A JUMP JUMPDEST PUSH1 0x20 DUP3 ADD SWAP1 POP SWAP2 SWAP1 POP JUMP JUMPDEST PUSH0 PUSH1 0x20 DUP3 ADD SWAP1 POP DUP2 DUP2 SUB PUSH0 DUP4 ADD MSTORE PUSH2 0x8BB DUP2 PUSH2 0x882 JUMP JUMPDEST SWAP1 POP SWAP2 SWAP1 POP JUMP JUMPDEST PUSH0 PUSH2 0x8CC DUP3 PUSH2 0x64A JUMP JUMPDEST SWAP2 POP PUSH2 0x8D7 DUP4 PUSH2 0x64A JUMP JUMPDEST SWAP3 POP DUP3 DUP3 ADD SWAP1 POP DUP1 DUP3 GT ISZERO PUSH2 0x8EF JUMPI PUSH2 0x8EE PUSH2 0x653 JUMP JUMPDEST JUMPDEST SWAP3 SWAP2 POP POP JUMP INVALID LOG2 PUSH5 0x6970667358 0x22 SLT KECCAK256 0x1E SWAP8 SWAP12 ADD SWAP3 PUSH28 0xD999398E8AA6F058BDE65D2EECAD19D201B2A814904E7CFD23226473 PUSH16 0x6C634300081500330000000000000000 "
				},
				"gasEstimates": {
					"creation": {
						"codeDepositCost": "469400",
						"executionCost": "infinite",
						"totalCost": "infinite"
					},
					"external": {
						"determineWinner()": "infinite",
						"joinLottery()": "infinite",
						"payPrize(address)": "infinite",
						"withdraw()": "infinite"
					}
				},
				"methodIdentifiers": {
					"determineWinner()": "33b16d93",
					"joinLottery()": "6c77f989",
					"payPrize(address)": "aaca875b",
					"withdraw()": "3ccfd60b"
				}
			},
			"storageLayout": {
				"storage": [
					{
						"astId": 10,
						"contract": "contracts/Lottery.sol:Lottery",
						"label": "contributions",
						"offset": 0,
						"slot": "0",
						"type": "t_mapping(t_address,t_uint256)"
					},
					{
						"astId": 13,
						"contract": "contracts/Lottery.sol:Lottery",
						"label": "participants",
						"offset": 0,
						"slot": "1",
						"type": "t_array(t_address)dyn_storage"
					}
				],
				"types": {
					"t_address": {
						"encoding": "inplace",
						"label": "address",
						"numberOfBytes": "20"
					},
					"t_array(t_address)dyn_storage": {
						"base": "t_address",
						"encoding": "dynamic_array",
						"label": "address[]",
						"numberOfBytes": "32"
					},
					"t_mapping(t_address,t_uint256)": {
						"encoding": "mapping",
						"key": "t_address",
						"label": "mapping(address => uint256)",
						"numberOfBytes": "32",
						"value": "t_uint256"
					},
					"t_uint256": {
						"encoding": "inplace",
						"label": "uint256",
						"numberOfBytes": "32"
					}
				}
			},
			"userdoc": {
				"kind": "user",
				"methods": {},
				"version": 1
			}
		}
	}
}