{
	"data": {
		"bytecode": {
			"linkReferences": {},
			"object": "60a0604052620f4240600155348015610016575f80fd5b503373ffffffffffffffffffffffffffffffffffffffff1660808173ffffffffffffffffffffffffffffffffffffffff1681525050608051610dde61006a5f395f818161029701526103bc0152610dde5ff3fe608060405260043610610054575f3560e01c80636c11bcd3146100585780636d1b229d146100745780637824407f1461009c57806397304ced146100c6578063beabacc8146100ee578063d0febe4c14610116575b5f80fd5b610072600480360381019061006d9190610788565b610120565b005b34801561007f575f80fd5b5061009a60048036038101906100959190610788565b61027e565b005b3480156100a7575f80fd5b506100b061039d565b6040516100bd91906107c2565b60405180910390f35b3480156100d1575f80fd5b506100ec60048036038101906100e79190610788565b6103a3565b005b3480156100f9575f80fd5b50610114600480360381019061010f9190610835565b610443565b005b61011e61056b565b005b5f803373ffffffffffffffffffffffffffffffffffffffff1673ffffffffffffffffffffffffffffffffffffffff1681526020019081526020015f205481111561019f576040517f08c379a0000000000000000000000000000000000000000000000000000000008152600401610196906108df565b60405180910390fd5b8060015f8282546101b0919061092a565b925050819055505f3373ffffffffffffffffffffffffffffffffffffffff166101eb670de0b6b3a7640000846101e6919061095d565b61063c565b6040516101f7906109cb565b5f6040518083038185875af1925050503d805f8114610231576040519150601f19603f3d011682016040523d82523d5f602084013e610236565b606091505b505090508061027a576040517f08c379a000000000000000000000000000000000000000000000000000000000815260040161027190610a29565b60405180910390fd5b5050565b3373ffffffffffffffffffffffffffffffffffffffff167f000000000000000000000000000000000000000000000000000000000000000073ffffffffffffffffffffffffffffffffffffffff1614610303576040517f251c9d6300000000000000000000000000000000000000000000000000000000815260040160405180910390fd5b5f803373ffffffffffffffffffffffffffffffffffffffff1673ffffffffffffffffffffffffffffffffffffffff1681526020019081526020015f2054811115610382576040517f08c379a000000000000000000000000000000000000000000000000000000000815260040161037990610ab7565b60405180910390fd5b8060015f8282546103939190610ad5565b9250508190555050565b60015481565b3373ffffffffffffffffffffffffffffffffffffffff167f000000000000000000000000000000000000000000000000000000000000000073ffffffffffffffffffffffffffffffffffffffff1614610428576040517f251c9d6300000000000000000000000000000000000000000000000000000000815260040160405180910390fd5b8060015f828254610439919061092a565b9250508190555050565b805f808573ffffffffffffffffffffffffffffffffffffffff1673ffffffffffffffffffffffffffffffffffffffff1681526020019081526020015f205410156104c2576040517f08c379a00000000000000000000000000000000000000000000000000000000081526004016104b990610b52565b60405180910390fd5b805f808573ffffffffffffffffffffffffffffffffffffffff1673ffffffffffffffffffffffffffffffffffffffff1681526020019081526020015f205f82825461050d9190610ad5565b92505081905550805f808473ffffffffffffffffffffffffffffffffffffffff1673ffffffffffffffffffffffffffffffffffffffff1681526020019081526020015f205f82825461055f919061092a565b92505081905550505050565b5f670de0b6b3a764000061057e34610674565b6105889190610b9d565b90508060015410156105cf576040517f08c379a00000000000000000000000000000000000000000000000000000000081526004016105c690610c17565b60405180910390fd5b805f803373ffffffffffffffffffffffffffffffffffffffff1673ffffffffffffffffffffffffffffffffffffffff1681526020019081526020015f205f82825461061a919061092a565b925050819055508060015f8282546106329190610ad5565b9250508190555050565b5f806106466106ac565b90505f670de0b6b3a7640000828561065e9190610b9d565b6106689190610b9d565b90508092505050919050565b5f8061067e6106ac565b90505f670de0b6b3a76400008483610696919061095d565b6106a09190610b9d565b90508092505050919050565b5f8073694aa1769357215de4fac081bf1f309adc32530690505f8173ffffffffffffffffffffffffffffffffffffffff1663feaf968c6040518163ffffffff1660e01b815260040160a060405180830381865afa15801561070f573d5f803e3d5ffd5b505050506040513d601f19601f820116820180604052508101906107339190610cbb565b5050509150506402540be4008161074a9190610d32565b9250505090565b5f80fd5b5f819050919050565b61076781610755565b8114610771575f80fd5b50565b5f813590506107828161075e565b92915050565b5f6020828403121561079d5761079c610751565b5b5f6107aa84828501610774565b91505092915050565b6107bc81610755565b82525050565b5f6020820190506107d55f8301846107b3565b92915050565b5f73ffffffffffffffffffffffffffffffffffffffff82169050919050565b5f610804826107db565b9050919050565b610814816107fa565b811461081e575f80fd5b50565b5f8135905061082f8161080b565b92915050565b5f805f6060848603121561084c5761084b610751565b5b5f61085986828701610821565b935050602061086a86828701610821565b925050604061087b86828701610774565b9150509250925092565b5f82825260208201905092915050565b7f4e6f7420656e6f75676820746f6b656e73206f6e2062616c616e6365000000005f82015250565b5f6108c9601c83610885565b91506108d482610895565b602082019050919050565b5f6020820190508181035f8301526108f6816108bd565b9050919050565b7f4e487b71000000000000000000000000000000000000000000000000000000005f52601160045260245ffd5b5f61093482610755565b915061093f83610755565b9250828201905080821115610957576109566108fd565b5b92915050565b5f61096782610755565b915061097283610755565b925082820261098081610755565b91508282048414831517610997576109966108fd565b5b5092915050565b5f81905092915050565b50565b5f6109b65f8361099e565b91506109c1826109a8565b5f82019050919050565b5f6109d5826109ab565b9150819050919050565b7f43616c6c206661696c65640000000000000000000000000000000000000000005f82015250565b5f610a13600b83610885565b9150610a1e826109df565b602082019050919050565b5f6020820190508181035f830152610a4081610a07565b9050919050565b7f4e6f7420656e6f75676820746f6b656e7320746f6b656e73206f6e2062616c615f8201527f6e63650000000000000000000000000000000000000000000000000000000000602082015250565b5f610aa1602383610885565b9150610aac82610a47565b604082019050919050565b5f6020820190508181035f830152610ace81610a95565b9050919050565b5f610adf82610755565b9150610aea83610755565b9250828203905081811115610b0257610b016108fd565b5b92915050565b7f4e6f7420656e6f75676820746f6b656e730000000000000000000000000000005f82015250565b5f610b3c601183610885565b9150610b4782610b08565b602082019050919050565b5f6020820190508181035f830152610b6981610b30565b9050919050565b7f4e487b71000000000000000000000000000000000000000000000000000000005f52601260045260245ffd5b5f610ba782610755565b9150610bb283610755565b925082610bc257610bc1610b70565b5b828204905092915050565b7f4e6f7420656e6f75676820746f6b656e732072656d61696e00000000000000005f82015250565b5f610c01601883610885565b9150610c0c82610bcd565b602082019050919050565b5f6020820190508181035f830152610c2e81610bf5565b9050919050565b5f69ffffffffffffffffffff82169050919050565b610c5381610c35565b8114610c5d575f80fd5b50565b5f81519050610c6e81610c4a565b92915050565b5f819050919050565b610c8681610c74565b8114610c90575f80fd5b50565b5f81519050610ca181610c7d565b92915050565b5f81519050610cb58161075e565b92915050565b5f805f805f60a08688031215610cd457610cd3610751565b5b5f610ce188828901610c60565b9550506020610cf288828901610c93565b9450506040610d0388828901610ca7565b9350506060610d1488828901610ca7565b9250506080610d2588828901610c60565b9150509295509295909350565b5f610d3c82610c74565b9150610d4783610c74565b9250828202610d5581610c74565b91507f800000000000000000000000000000000000000000000000000000000000000084145f84121615610d8c57610d8b6108fd565b5b8282058414831517610da157610da06108fd565b5b509291505056fea26469706673582212202618f46c656f158506adfaeedfc3a70495f4dc12c1b7b56dc0770d58862e337f64736f6c63430008150033",
			"opcodes": "PUSH1 0xA0 PUSH1 0x40 MSTORE PUSH3 0xF4240 PUSH1 0x1 SSTORE CALLVALUE DUP1 ISZERO PUSH2 0x16 JUMPI PUSH0 DUP1 REVERT JUMPDEST POP CALLER PUSH20 0xFFFFFFFFFFFFFFFFFFFFFFFFFFFFFFFFFFFFFFFF AND PUSH1 0x80 DUP2 PUSH20 0xFFFFFFFFFFFFFFFFFFFFFFFFFFFFFFFFFFFFFFFF AND DUP2 MSTORE POP POP PUSH1 0x80 MLOAD PUSH2 0xDDE PUSH2 0x6A PUSH0 CODECOPY PUSH0 DUP2 DUP2 PUSH2 0x297 ADD MSTORE PUSH2 0x3BC ADD MSTORE PUSH2 0xDDE PUSH0 RETURN INVALID PUSH1 0x80 PUSH1 0x40 MSTORE PUSH1 0x4 CALLDATASIZE LT PUSH2 0x54 JUMPI PUSH0 CALLDATALOAD PUSH1 0xE0 SHR DUP1 PUSH4 0x6C11BCD3 EQ PUSH2 0x58 JUMPI DUP1 PUSH4 0x6D1B229D EQ PUSH2 0x74 JUMPI DUP1 PUSH4 0x7824407F EQ PUSH2 0x9C JUMPI DUP1 PUSH4 0x97304CED EQ PUSH2 0xC6 JUMPI DUP1 PUSH4 0xBEABACC8 EQ PUSH2 0xEE JUMPI DUP1 PUSH4 0xD0FEBE4C EQ PUSH2 0x116 JUMPI JUMPDEST PUSH0 DUP1 REVERT JUMPDEST PUSH2 0x72 PUSH1 0x4 DUP1 CALLDATASIZE SUB DUP2 ADD SWAP1 PUSH2 0x6D SWAP2 SWAP1 PUSH2 0x788 JUMP JUMPDEST PUSH2 0x120 JUMP JUMPDEST STOP JUMPDEST CALLVALUE DUP1 ISZERO PUSH2 0x7F JUMPI PUSH0 DUP1 REVERT JUMPDEST POP PUSH2 0x9A PUSH1 0x4 DUP1 CALLDATASIZE SUB DUP2 ADD SWAP1 PUSH2 0x95 SWAP2 SWAP1 PUSH2 0x788 JUMP JUMPDEST PUSH2 0x27E JUMP JUMPDEST STOP JUMPDEST CALLVALUE DUP1 ISZERO PUSH2 0xA7 JUMPI PUSH0 DUP1 REVERT JUMPDEST POP PUSH2 0xB0 PUSH2 0x39D JUMP JUMPDEST PUSH1 0x40 MLOAD PUSH2 0xBD SWAP2 SWAP1 PUSH2 0x7C2 JUMP JUMPDEST PUSH1 0x40 MLOAD DUP1 SWAP2 SUB SWAP1 RETURN JUMPDEST CALLVALUE DUP1 ISZERO PUSH2 0xD1 JUMPI PUSH0 DUP1 REVERT JUMPDEST POP PUSH2 0xEC PUSH1 0x4 DUP1 CALLDATASIZE SUB DUP2 ADD SWAP1 PUSH2 0xE7 SWAP2 SWAP1 PUSH2 0x788 JUMP JUMPDEST PUSH2 0x3A3 JUMP JUMPDEST STOP JUMPDEST CALLVALUE DUP1 ISZERO PUSH2 0xF9 JUMPI PUSH0 DUP1 REVERT JUMPDEST POP PUSH2 0x114 PUSH1 0x4 DUP1 CALLDATASIZE SUB DUP2 ADD SWAP1 PUSH2 0x10F SWAP2 SWAP1 PUSH2 0x835 JUMP JUMPDEST PUSH2 0x443 JUMP JUMPDEST STOP JUMPDEST PUSH2 0x11E PUSH2 0x56B JUMP JUMPDEST STOP JUMPDEST PUSH0 DUP1 CALLER PUSH20 0xFFFFFFFFFFFFFFFFFFFFFFFFFFFFFFFFFFFFFFFF AND PUSH20 0xFFFFFFFFFFFFFFFFFFFFFFFFFFFFFFFFFFFFFFFF AND DUP2 MSTORE PUSH1 0x20 ADD SWAP1 DUP2 MSTORE PUSH1 0x20 ADD PUSH0 KECCAK256 SLOAD DUP2 GT ISZERO PUSH2 0x19F JUMPI PUSH1 0x40 MLOAD PUSH32 0x8C379A000000000000000000000000000000000000000000000000000000000 DUP2 MSTORE PUSH1 0x4 ADD PUSH2 0x196 SWAP1 PUSH2 0x8DF JUMP JUMPDEST PUSH1 0x40 MLOAD DUP1 SWAP2 SUB SWAP1 REVERT JUMPDEST DUP1 PUSH1 0x1 PUSH0 DUP3 DUP3 SLOAD PUSH2 0x1B0 SWAP2 SWAP1 PUSH2 0x92A JUMP JUMPDEST SWAP3 POP POP DUP2 SWAP1 SSTORE POP PUSH0 CALLER PUSH20 0xFFFFFFFFFFFFFFFFFFFFFFFFFFFFFFFFFFFFFFFF AND PUSH2 0x1EB PUSH8 0xDE0B6B3A7640000 DUP5 PUSH2 0x1E6 SWAP2 SWAP1 PUSH2 0x95D JUMP JUMPDEST PUSH2 0x63C JUMP JUMPDEST PUSH1 0x40 MLOAD PUSH2 0x1F7 SWAP1 PUSH2 0x9CB JUMP JUMPDEST PUSH0 PUSH1 0x40 MLOAD DUP1 DUP4 SUB DUP2 DUP6 DUP8 GAS CALL SWAP3 POP POP POP RETURNDATASIZE DUP1 PUSH0 DUP2 EQ PUSH2 0x231 JUMPI PUSH1 0x40 MLOAD SWAP2 POP PUSH1 0x1F NOT PUSH1 0x3F RETURNDATASIZE ADD AND DUP3 ADD PUSH1 0x40 MSTORE RETURNDATASIZE DUP3 MSTORE RETURNDATASIZE PUSH0 PUSH1 0x20 DUP5 ADD RETURNDATACOPY PUSH2 0x236 JUMP JUMPDEST PUSH1 0x60 SWAP2 POP JUMPDEST POP POP SWAP1 POP DUP1 PUSH2 0x27A JUMPI PUSH1 0x40 MLOAD PUSH32 0x8C379A000000000000000000000000000000000000000000000000000000000 DUP2 MSTORE PUSH1 0x4 ADD PUSH2 0x271 SWAP1 PUSH2 0xA29 JUMP JUMPDEST PUSH1 0x40 MLOAD DUP1 SWAP2 SUB SWAP1 REVERT JUMPDEST POP POP JUMP JUMPDEST CALLER PUSH20 0xFFFFFFFFFFFFFFFFFFFFFFFFFFFFFFFFFFFFFFFF AND PUSH32 0x0 PUSH20 0xFFFFFFFFFFFFFFFFFFFFFFFFFFFFFFFFFFFFFFFF AND EQ PUSH2 0x303 JUMPI PUSH1 0x40 MLOAD PUSH32 0x251C9D6300000000000000000000000000000000000000000000000000000000 DUP2 MSTORE PUSH1 0x4 ADD PUSH1 0x40 MLOAD DUP1 SWAP2 SUB SWAP1 REVERT JUMPDEST PUSH0 DUP1 CALLER PUSH20 0xFFFFFFFFFFFFFFFFFFFFFFFFFFFFFFFFFFFFFFFF AND PUSH20 0xFFFFFFFFFFFFFFFFFFFFFFFFFFFFFFFFFFFFFFFF AND DUP2 MSTORE PUSH1 0x20 ADD SWAP1 DUP2 MSTORE PUSH1 0x20 ADD PUSH0 KECCAK256 SLOAD DUP2 GT ISZERO PUSH2 0x382 JUMPI PUSH1 0x40 MLOAD PUSH32 0x8C379A000000000000000000000000000000000000000000000000000000000 DUP2 MSTORE PUSH1 0x4 ADD PUSH2 0x379 SWAP1 PUSH2 0xAB7 JUMP JUMPDEST PUSH1 0x40 MLOAD DUP1 SWAP2 SUB SWAP1 REVERT JUMPDEST DUP1 PUSH1 0x1 PUSH0 DUP3 DUP3 SLOAD PUSH2 0x393 SWAP2 SWAP1 PUSH2 0xAD5 JUMP JUMPDEST SWAP3 POP POP DUP2 SWAP1 SSTORE POP POP JUMP JUMPDEST PUSH1 0x1 SLOAD DUP2 JUMP JUMPDEST CALLER PUSH20 0xFFFFFFFFFFFFFFFFFFFFFFFFFFFFFFFFFFFFFFFF AND PUSH32 0x0 PUSH20 0xFFFFFFFFFFFFFFFFFFFFFFFFFFFFFFFFFFFFFFFF AND EQ PUSH2 0x428 JUMPI PUSH1 0x40 MLOAD PUSH32 0x251C9D6300000000000000000000000000000000000000000000000000000000 DUP2 MSTORE PUSH1 0x4 ADD PUSH1 0x40 MLOAD DUP1 SWAP2 SUB SWAP1 REVERT JUMPDEST DUP1 PUSH1 0x1 PUSH0 DUP3 DUP3 SLOAD PUSH2 0x439 SWAP2 SWAP1 PUSH2 0x92A JUMP JUMPDEST SWAP3 POP POP DUP2 SWAP1 SSTORE POP POP JUMP JUMPDEST DUP1 PUSH0 DUP1 DUP6 PUSH20 0xFFFFFFFFFFFFFFFFFFFFFFFFFFFFFFFFFFFFFFFF AND PUSH20 0xFFFFFFFFFFFFFFFFFFFFFFFFFFFFFFFFFFFFFFFF AND DUP2 MSTORE PUSH1 0x20 ADD SWAP1 DUP2 MSTORE PUSH1 0x20 ADD PUSH0 KECCAK256 SLOAD LT ISZERO PUSH2 0x4C2 JUMPI PUSH1 0x40 MLOAD PUSH32 0x8C379A000000000000000000000000000000000000000000000000000000000 DUP2 MSTORE PUSH1 0x4 ADD PUSH2 0x4B9 SWAP1 PUSH2 0xB52 JUMP JUMPDEST PUSH1 0x40 MLOAD DUP1 SWAP2 SUB SWAP1 REVERT JUMPDEST DUP1 PUSH0 DUP1 DUP6 PUSH20 0xFFFFFFFFFFFFFFFFFFFFFFFFFFFFFFFFFFFFFFFF AND PUSH20 0xFFFFFFFFFFFFFFFFFFFFFFFFFFFFFFFFFFFFFFFF AND DUP2 MSTORE PUSH1 0x20 ADD SWAP1 DUP2 MSTORE PUSH1 0x20 ADD PUSH0 KECCAK256 PUSH0 DUP3 DUP3 SLOAD PUSH2 0x50D SWAP2 SWAP1 PUSH2 0xAD5 JUMP JUMPDEST SWAP3 POP POP DUP2 SWAP1 SSTORE POP DUP1 PUSH0 DUP1 DUP5 PUSH20 0xFFFFFFFFFFFFFFFFFFFFFFFFFFFFFFFFFFFFFFFF AND PUSH20 0xFFFFFFFFFFFFFFFFFFFFFFFFFFFFFFFFFFFFFFFF AND DUP2 MSTORE PUSH1 0x20 ADD SWAP1 DUP2 MSTORE PUSH1 0x20 ADD PUSH0 KECCAK256 PUSH0 DUP3 DUP3 SLOAD PUSH2 0x55F SWAP2 SWAP1 PUSH2 0x92A JUMP JUMPDEST SWAP3 POP POP DUP2 SWAP1 SSTORE POP POP POP POP JUMP JUMPDEST PUSH0 PUSH8 0xDE0B6B3A7640000 PUSH2 0x57E CALLVALUE PUSH2 0x674 JUMP JUMPDEST PUSH2 0x588 SWAP2 SWAP1 PUSH2 0xB9D JUMP JUMPDEST SWAP1 POP DUP1 PUSH1 0x1 SLOAD LT ISZERO PUSH2 0x5CF JUMPI PUSH1 0x40 MLOAD PUSH32 0x8C379A000000000000000000000000000000000000000000000000000000000 DUP2 MSTORE PUSH1 0x4 ADD PUSH2 0x5C6 SWAP1 PUSH2 0xC17 JUMP JUMPDEST PUSH1 0x40 MLOAD DUP1 SWAP2 SUB SWAP1 REVERT JUMPDEST DUP1 PUSH0 DUP1 CALLER PUSH20 0xFFFFFFFFFFFFFFFFFFFFFFFFFFFFFFFFFFFFFFFF AND PUSH20 0xFFFFFFFFFFFFFFFFFFFFFFFFFFFFFFFFFFFFFFFF AND DUP2 MSTORE PUSH1 0x20 ADD SWAP1 DUP2 MSTORE PUSH1 0x20 ADD PUSH0 KECCAK256 PUSH0 DUP3 DUP3 SLOAD PUSH2 0x61A SWAP2 SWAP1 PUSH2 0x92A JUMP JUMPDEST SWAP3 POP POP DUP2 SWAP1 SSTORE POP DUP1 PUSH1 0x1 PUSH0 DUP3 DUP3 SLOAD PUSH2 0x632 SWAP2 SWAP1 PUSH2 0xAD5 JUMP JUMPDEST SWAP3 POP POP DUP2 SWAP1 SSTORE POP POP JUMP JUMPDEST PUSH0 DUP1 PUSH2 0x646 PUSH2 0x6AC JUMP JUMPDEST SWAP1 POP PUSH0 PUSH8 0xDE0B6B3A7640000 DUP3 DUP6 PUSH2 0x65E SWAP2 SWAP1 PUSH2 0xB9D JUMP JUMPDEST PUSH2 0x668 SWAP2 SWAP1 PUSH2 0xB9D JUMP JUMPDEST SWAP1 POP DUP1 SWAP3 POP POP POP SWAP2 SWAP1 POP JUMP JUMPDEST PUSH0 DUP1 PUSH2 0x67E PUSH2 0x6AC JUMP JUMPDEST SWAP1 POP PUSH0 PUSH8 0xDE0B6B3A7640000 DUP5 DUP4 PUSH2 0x696 SWAP2 SWAP1 PUSH2 0x95D JUMP JUMPDEST PUSH2 0x6A0 SWAP2 SWAP1 PUSH2 0xB9D JUMP JUMPDEST SWAP1 POP DUP1 SWAP3 POP POP POP SWAP2 SWAP1 POP JUMP JUMPDEST PUSH0 DUP1 PUSH20 0x694AA1769357215DE4FAC081BF1F309ADC325306 SWAP1 POP PUSH0 DUP2 PUSH20 0xFFFFFFFFFFFFFFFFFFFFFFFFFFFFFFFFFFFFFFFF AND PUSH4 0xFEAF968C PUSH1 0x40 MLOAD DUP2 PUSH4 0xFFFFFFFF AND PUSH1 0xE0 SHL DUP2 MSTORE PUSH1 0x4 ADD PUSH1 0xA0 PUSH1 0x40 MLOAD DUP1 DUP4 SUB DUP2 DUP7 GAS STATICCALL ISZERO DUP1 ISZERO PUSH2 0x70F JUMPI RETURNDATASIZE PUSH0 DUP1 RETURNDATACOPY RETURNDATASIZE PUSH0 REVERT JUMPDEST POP POP POP POP PUSH1 0x40 MLOAD RETURNDATASIZE PUSH1 0x1F NOT PUSH1 0x1F DUP3 ADD AND DUP3 ADD DUP1 PUSH1 0x40 MSTORE POP DUP2 ADD SWAP1 PUSH2 0x733 SWAP2 SWAP1 PUSH2 0xCBB JUMP JUMPDEST POP POP POP SWAP2 POP POP PUSH5 0x2540BE400 DUP2 PUSH2 0x74A SWAP2 SWAP1 PUSH2 0xD32 JUMP JUMPDEST SWAP3 POP POP POP SWAP1 JUMP JUMPDEST PUSH0 DUP1 REVERT JUMPDEST PUSH0 DUP2 SWAP1 POP SWAP2 SWAP1 POP JUMP JUMPDEST PUSH2 0x767 DUP2 PUSH2 0x755 JUMP JUMPDEST DUP2 EQ PUSH2 0x771 JUMPI PUSH0 DUP1 REVERT JUMPDEST POP JUMP JUMPDEST PUSH0 DUP2 CALLDATALOAD SWAP1 POP PUSH2 0x782 DUP2 PUSH2 0x75E JUMP JUMPDEST SWAP3 SWAP2 POP POP JUMP JUMPDEST PUSH0 PUSH1 0x20 DUP3 DUP5 SUB SLT ISZERO PUSH2 0x79D JUMPI PUSH2 0x79C PUSH2 0x751 JUMP JUMPDEST JUMPDEST PUSH0 PUSH2 0x7AA DUP5 DUP3 DUP6 ADD PUSH2 0x774 JUMP JUMPDEST SWAP2 POP POP SWAP3 SWAP2 POP POP JUMP JUMPDEST PUSH2 0x7BC DUP2 PUSH2 0x755 JUMP JUMPDEST DUP3 MSTORE POP POP JUMP JUMPDEST PUSH0 PUSH1 0x20 DUP3 ADD SWAP1 POP PUSH2 0x7D5 PUSH0 DUP4 ADD DUP5 PUSH2 0x7B3 JUMP JUMPDEST SWAP3 SWAP2 POP POP JUMP JUMPDEST PUSH0 PUSH20 0xFFFFFFFFFFFFFFFFFFFFFFFFFFFFFFFFFFFFFFFF DUP3 AND SWAP1 POP SWAP2 SWAP1 POP JUMP JUMPDEST PUSH0 PUSH2 0x804 DUP3 PUSH2 0x7DB JUMP JUMPDEST SWAP1 POP SWAP2 SWAP1 POP JUMP JUMPDEST PUSH2 0x814 DUP2 PUSH2 0x7FA JUMP JUMPDEST DUP2 EQ PUSH2 0x81E JUMPI PUSH0 DUP1 REVERT JUMPDEST POP JUMP JUMPDEST PUSH0 DUP2 CALLDATALOAD SWAP1 POP PUSH2 0x82F DUP2 PUSH2 0x80B JUMP JUMPDEST SWAP3 SWAP2 POP POP JUMP JUMPDEST PUSH0 DUP1 PUSH0 PUSH1 0x60 DUP5 DUP7 SUB SLT ISZERO PUSH2 0x84C JUMPI PUSH2 0x84B PUSH2 0x751 JUMP JUMPDEST JUMPDEST PUSH0 PUSH2 0x859 DUP7 DUP3 DUP8 ADD PUSH2 0x821 JUMP JUMPDEST SWAP4 POP POP PUSH1 0x20 PUSH2 0x86A DUP7 DUP3 DUP8 ADD PUSH2 0x821 JUMP JUMPDEST SWAP3 POP POP PUSH1 0x40 PUSH2 0x87B DUP7 DUP3 DUP8 ADD PUSH2 0x774 JUMP JUMPDEST SWAP2 POP POP SWAP3 POP SWAP3 POP SWAP3 JUMP JUMPDEST PUSH0 DUP3 DUP3 MSTORE PUSH1 0x20 DUP3 ADD SWAP1 POP SWAP3 SWAP2 POP POP JUMP JUMPDEST PUSH32 0x4E6F7420656E6F75676820746F6B656E73206F6E2062616C616E636500000000 PUSH0 DUP3 ADD MSTORE POP JUMP JUMPDEST PUSH0 PUSH2 0x8C9 PUSH1 0x1C DUP4 PUSH2 0x885 JUMP JUMPDEST SWAP2 POP PUSH2 0x8D4 DUP3 PUSH2 0x895 JUMP JUMPDEST PUSH1 0x20 DUP3 ADD SWAP1 POP SWAP2 SWAP1 POP JUMP JUMPDEST PUSH0 PUSH1 0x20 DUP3 ADD SWAP1 POP DUP2 DUP2 SUB PUSH0 DUP4 ADD MSTORE PUSH2 0x8F6 DUP2 PUSH2 0x8BD JUMP JUMPDEST SWAP1 POP SWAP2 SWAP1 POP JUMP JUMPDEST PUSH32 0x4E487B7100000000000000000000000000000000000000000000000000000000 PUSH0 MSTORE PUSH1 0x11 PUSH1 0x4 MSTORE PUSH1 0x24 PUSH0 REVERT JUMPDEST PUSH0 PUSH2 0x934 DUP3 PUSH2 0x755 JUMP JUMPDEST SWAP2 POP PUSH2 0x93F DUP4 PUSH2 0x755 JUMP JUMPDEST SWAP3 POP DUP3 DUP3 ADD SWAP1 POP DUP1 DUP3 GT ISZERO PUSH2 0x957 JUMPI PUSH2 0x956 PUSH2 0x8FD JUMP JUMPDEST JUMPDEST SWAP3 SWAP2 POP POP JUMP JUMPDEST PUSH0 PUSH2 0x967 DUP3 PUSH2 0x755 JUMP JUMPDEST SWAP2 POP PUSH2 0x972 DUP4 PUSH2 0x755 JUMP JUMPDEST SWAP3 POP DUP3 DUP3 MUL PUSH2 0x980 DUP2 PUSH2 0x755 JUMP JUMPDEST SWAP2 POP DUP3 DUP3 DIV DUP5 EQ DUP4 ISZERO OR PUSH2 0x997 JUMPI PUSH2 0x996 PUSH2 0x8FD JUMP JUMPDEST JUMPDEST POP SWAP3 SWAP2 POP POP JUMP JUMPDEST PUSH0 DUP2 SWAP1 POP SWAP3 SWAP2 POP POP JUMP JUMPDEST POP JUMP JUMPDEST PUSH0 PUSH2 0x9B6 PUSH0 DUP4 PUSH2 0x99E JUMP JUMPDEST SWAP2 POP PUSH2 0x9C1 DUP3 PUSH2 0x9A8 JUMP JUMPDEST PUSH0 DUP3 ADD SWAP1 POP SWAP2 SWAP1 POP JUMP JUMPDEST PUSH0 PUSH2 0x9D5 DUP3 PUSH2 0x9AB JUMP JUMPDEST SWAP2 POP DUP2 SWAP1 POP SWAP2 SWAP1 POP JUMP JUMPDEST PUSH32 0x43616C6C206661696C6564000000000000000000000000000000000000000000 PUSH0 DUP3 ADD MSTORE POP JUMP JUMPDEST PUSH0 PUSH2 0xA13 PUSH1 0xB DUP4 PUSH2 0x885 JUMP JUMPDEST SWAP2 POP PUSH2 0xA1E DUP3 PUSH2 0x9DF JUMP JUMPDEST PUSH1 0x20 DUP3 ADD SWAP1 POP SWAP2 SWAP1 POP JUMP JUMPDEST PUSH0 PUSH1 0x20 DUP3 ADD SWAP1 POP DUP2 DUP2 SUB PUSH0 DUP4 ADD MSTORE PUSH2 0xA40 DUP2 PUSH2 0xA07 JUMP JUMPDEST SWAP1 POP SWAP2 SWAP1 POP JUMP JUMPDEST PUSH32 0x4E6F7420656E6F75676820746F6B656E7320746F6B656E73206F6E2062616C61 PUSH0 DUP3 ADD MSTORE PUSH32 0x6E63650000000000000000000000000000000000000000000000000000000000 PUSH1 0x20 DUP3 ADD MSTORE POP JUMP JUMPDEST PUSH0 PUSH2 0xAA1 PUSH1 0x23 DUP4 PUSH2 0x885 JUMP JUMPDEST SWAP2 POP PUSH2 0xAAC DUP3 PUSH2 0xA47 JUMP JUMPDEST PUSH1 0x40 DUP3 ADD SWAP1 POP SWAP2 SWAP1 POP JUMP JUMPDEST PUSH0 PUSH1 0x20 DUP3 ADD SWAP1 POP DUP2 DUP2 SUB PUSH0 DUP4 ADD MSTORE PUSH2 0xACE DUP2 PUSH2 0xA95 JUMP JUMPDEST SWAP1 POP SWAP2 SWAP1 POP JUMP JUMPDEST PUSH0 PUSH2 0xADF DUP3 PUSH2 0x755 JUMP JUMPDEST SWAP2 POP PUSH2 0xAEA DUP4 PUSH2 0x755 JUMP JUMPDEST SWAP3 POP DUP3 DUP3 SUB SWAP1 POP DUP2 DUP2 GT ISZERO PUSH2 0xB02 JUMPI PUSH2 0xB01 PUSH2 0x8FD JUMP JUMPDEST JUMPDEST SWAP3 SWAP2 POP POP JUMP JUMPDEST PUSH32 0x4E6F7420656E6F75676820746F6B656E73000000000000000000000000000000 PUSH0 DUP3 ADD MSTORE POP JUMP JUMPDEST PUSH0 PUSH2 0xB3C PUSH1 0x11 DUP4 PUSH2 0x885 JUMP JUMPDEST SWAP2 POP PUSH2 0xB47 DUP3 PUSH2 0xB08 JUMP JUMPDEST PUSH1 0x20 DUP3 ADD SWAP1 POP SWAP2 SWAP1 POP JUMP JUMPDEST PUSH0 PUSH1 0x20 DUP3 ADD SWAP1 POP DUP2 DUP2 SUB PUSH0 DUP4 ADD MSTORE PUSH2 0xB69 DUP2 PUSH2 0xB30 JUMP JUMPDEST SWAP1 POP SWAP2 SWAP1 POP JUMP JUMPDEST PUSH32 0x4E487B7100000000000000000000000000000000000000000000000000000000 PUSH0 MSTORE PUSH1 0x12 PUSH1 0x4 MSTORE PUSH1 0x24 PUSH0 REVERT JUMPDEST PUSH0 PUSH2 0xBA7 DUP3 PUSH2 0x755 JUMP JUMPDEST SWAP2 POP PUSH2 0xBB2 DUP4 PUSH2 0x755 JUMP JUMPDEST SWAP3 POP DUP3 PUSH2 0xBC2 JUMPI PUSH2 0xBC1 PUSH2 0xB70 JUMP JUMPDEST JUMPDEST DUP3 DUP3 DIV SWAP1 POP SWAP3 SWAP2 POP POP JUMP JUMPDEST PUSH32 0x4E6F7420656E6F75676820746F6B656E732072656D61696E0000000000000000 PUSH0 DUP3 ADD MSTORE POP JUMP JUMPDEST PUSH0 PUSH2 0xC01 PUSH1 0x18 DUP4 PUSH2 0x885 JUMP JUMPDEST SWAP2 POP PUSH2 0xC0C DUP3 PUSH2 0xBCD JUMP JUMPDEST PUSH1 0x20 DUP3 ADD SWAP1 POP SWAP2 SWAP1 POP JUMP JUMPDEST PUSH0 PUSH1 0x20 DUP3 ADD SWAP1 POP DUP2 DUP2 SUB PUSH0 DUP4 ADD MSTORE PUSH2 0xC2E DUP2 PUSH2 0xBF5 JUMP JUMPDEST SWAP1 POP SWAP2 SWAP1 POP JUMP JUMPDEST PUSH0 PUSH10 0xFFFFFFFFFFFFFFFFFFFF DUP3 AND SWAP1 POP SWAP2 SWAP1 POP JUMP JUMPDEST PUSH2 0xC53 DUP2 PUSH2 0xC35 JUMP JUMPDEST DUP2 EQ PUSH2 0xC5D JUMPI PUSH0 DUP1 REVERT JUMPDEST POP JUMP JUMPDEST PUSH0 DUP2 MLOAD SWAP1 POP PUSH2 0xC6E DUP2 PUSH2 0xC4A JUMP JUMPDEST SWAP3 SWAP2 POP POP JUMP JUMPDEST PUSH0 DUP2 SWAP1 POP SWAP2 SWAP1 POP JUMP JUMPDEST PUSH2 0xC86 DUP2 PUSH2 0xC74 JUMP JUMPDEST DUP2 EQ PUSH2 0xC90 JUMPI PUSH0 DUP1 REVERT JUMPDEST POP JUMP JUMPDEST PUSH0 DUP2 MLOAD SWAP1 POP PUSH2 0xCA1 DUP2 PUSH2 0xC7D JUMP JUMPDEST SWAP3 SWAP2 POP POP JUMP JUMPDEST PUSH0 DUP2 MLOAD SWAP1 POP PUSH2 0xCB5 DUP2 PUSH2 0x75E JUMP JUMPDEST SWAP3 SWAP2 POP POP JUMP JUMPDEST PUSH0 DUP1 PUSH0 DUP1 PUSH0 PUSH1 0xA0 DUP7 DUP9 SUB SLT ISZERO PUSH2 0xCD4 JUMPI PUSH2 0xCD3 PUSH2 0x751 JUMP JUMPDEST JUMPDEST PUSH0 PUSH2 0xCE1 DUP9 DUP3 DUP10 ADD PUSH2 0xC60 JUMP JUMPDEST SWAP6 POP POP PUSH1 0x20 PUSH2 0xCF2 DUP9 DUP3 DUP10 ADD PUSH2 0xC93 JUMP JUMPDEST SWAP5 POP POP PUSH1 0x40 PUSH2 0xD03 DUP9 DUP3 DUP10 ADD PUSH2 0xCA7 JUMP JUMPDEST SWAP4 POP POP PUSH1 0x60 PUSH2 0xD14 DUP9 DUP3 DUP10 ADD PUSH2 0xCA7 JUMP JUMPDEST SWAP3 POP POP PUSH1 0x80 PUSH2 0xD25 DUP9 DUP3 DUP10 ADD PUSH2 0xC60 JUMP JUMPDEST SWAP2 POP POP SWAP3 SWAP6 POP SWAP3 SWAP6 SWAP1 SWAP4 POP JUMP JUMPDEST PUSH0 PUSH2 0xD3C DUP3 PUSH2 0xC74 JUMP JUMPDEST SWAP2 POP PUSH2 0xD47 DUP4 PUSH2 0xC74 JUMP JUMPDEST SWAP3 POP DUP3 DUP3 MUL PUSH2 0xD55 DUP2 PUSH2 0xC74 JUMP JUMPDEST SWAP2 POP PUSH32 0x8000000000000000000000000000000000000000000000000000000000000000 DUP5 EQ PUSH0 DUP5 SLT AND ISZERO PUSH2 0xD8C JUMPI PUSH2 0xD8B PUSH2 0x8FD JUMP JUMPDEST JUMPDEST DUP3 DUP3 SDIV DUP5 EQ DUP4 ISZERO OR PUSH2 0xDA1 JUMPI PUSH2 0xDA0 PUSH2 0x8FD JUMP JUMPDEST JUMPDEST POP SWAP3 SWAP2 POP POP JUMP INVALID LOG2 PUSH5 0x6970667358 0x22 SLT KECCAK256 0x26 XOR DELEGATECALL PUSH13 0x656F158506ADFAEEDFC3A70495 DELEGATECALL 0xDC SLT 0xC1 0xB7 0xB5 PUSH14 0xC0770D58862E337F64736F6C6343 STOP ADDMOD ISZERO STOP CALLER "
		},
		"gasEstimates": {
			"creation": {
				"codeDepositCost": "710000",
				"executionCost": "infinite",
				"totalCost": "infinite"
			},
			"external": {
				"burnTokens(uint256)": "infinite",
				"buyTokens()": "infinite",
				"mintTokens(uint256)": "infinite",
				"sellTokens(uint256)": "infinite",
				"tokenSupply()": "2447",
				"transfer(address,address,uint256)": "infinite"
			}
		},
		"methodIdentifiers": {
			"burnTokens(uint256)": "6d1b229d",
			"buyTokens()": "d0febe4c",
			"mintTokens(uint256)": "97304ced",
			"sellTokens(uint256)": "6c11bcd3",
			"tokenSupply()": "7824407f",
			"transfer(address,address,uint256)": "beabacc8"
		}
	},
	"abi": [
		{
			"inputs": [],
			"stateMutability": "nonpayable",
			"type": "constructor"
		},
		{
			"inputs": [],
			"name": "notOwner",
			"type": "error"
		},
		{
			"inputs": [
				{
					"internalType": "uint256",
					"name": "_amount",
					"type": "uint256"
				}
			],
			"name": "burnTokens",
			"outputs": [],
			"stateMutability": "nonpayable",
			"type": "function"
		},
		{
			"inputs": [],
			"name": "buyTokens",
			"outputs": [],
			"stateMutability": "payable",
			"type": "function"
		},
		{
			"inputs": [
				{
					"internalType": "uint256",
					"name": "_amount",
					"type": "uint256"
				}
			],
			"name": "mintTokens",
			"outputs": [],
			"stateMutability": "nonpayable",
			"type": "function"
		},
		{
			"inputs": [
				{
					"internalType": "uint256",
					"name": "_amount",
					"type": "uint256"
				}
			],
			"name": "sellTokens",
			"outputs": [],
			"stateMutability": "payable",
			"type": "function"
		},
		{
			"inputs": [],
			"name": "tokenSupply",
			"outputs": [
				{
					"internalType": "uint256",
					"name": "",
					"type": "uint256"
				}
			],
			"stateMutability": "view",
			"type": "function"
		},
		{
			"inputs": [
				{
					"internalType": "address",
					"name": "_from",
					"type": "address"
				},
				{
					"internalType": "address",
					"name": "_to",
					"type": "address"
				},
				{
					"internalType": "uint256",
					"name": "_amount",
					"type": "uint256"
				}
			],
			"name": "transfer",
			"outputs": [],
			"stateMutability": "nonpayable",
			"type": "function"
		}
	]
}